{
	"voting.sol": {
		"Voting": {
			"abi": [
				{
					"inputs": [],
					"stateMutability": "nonpayable",
					"type": "constructor"
				},
				{
					"anonymous": false,
					"inputs": [
						{
							"indexed": true,
							"internalType": "address",
							"name": "voter",
							"type": "address"
						},
						{
							"indexed": true,
							"internalType": "address",
							"name": "receiver",
							"type": "address"
						},
						{
							"indexed": false,
							"internalType": "uint256",
							"name": "timestamp",
							"type": "uint256"
						}
					],
					"name": "AddVote",
					"type": "event"
				},
				{
					"anonymous": false,
					"inputs": [
						{
							"indexed": true,
							"internalType": "address",
							"name": "voter",
							"type": "address"
						}
					],
					"name": "RemoveVote",
					"type": "event"
				},
				{
					"anonymous": false,
					"inputs": [
						{
							"indexed": true,
							"internalType": "address",
							"name": "startedBy",
							"type": "address"
						}
					],
					"name": "StartVoting",
					"type": "event"
				},
				{
					"anonymous": false,
					"inputs": [
						{
							"indexed": true,
							"internalType": "address",
							"name": "stoppedBy",
							"type": "address"
						}
					],
					"name": "StopVoting",
					"type": "event"
				},
				{
					"inputs": [],
					"name": "startVoting",
					"outputs": [
						{
							"internalType": "bool",
							"name": "",
							"type": "bool"
						}
					],
					"stateMutability": "nonpayable",
					"type": "function"
				},
				{
					"inputs": [
						{
							"internalType": "address",
							"name": "",
							"type": "address"
						}
					],
					"name": "votes",
					"outputs": [
						{
							"internalType": "address",
							"name": "receiver",
							"type": "address"
						},
						{
							"internalType": "uint256",
							"name": "timestamp",
							"type": "uint256"
						}
					],
					"stateMutability": "view",
					"type": "function"
				},
				{
					"inputs": [],
					"name": "voting",
					"outputs": [
						{
							"internalType": "bool",
							"name": "",
							"type": "bool"
						}
					],
					"stateMutability": "view",
					"type": "function"
				}
			],
			"devdoc": {
				"kind": "dev",
				"methods": {},
				"version": 1
			},
			"evm": {
				"assembly": "    /* \"voting.sol\":85:1154  contract Voting {... */\n  mstore(0x40, 0x80)\n    /* \"voting.sol\":843:888  constructor() {... */\n  callvalue\n  dup1\n  iszero\n  tag_1\n  jumpi\n  0x00\n  dup1\n  revert\ntag_1:\n  pop\n    /* \"voting.sol\":876:881  false */\n  0x00\n    /* \"voting.sol\":867:873  voting */\n  0x01\n  0x00\n    /* \"voting.sol\":867:881  voting = false */\n  0x0100\n  exp\n  dup2\n  sload\n  dup2\n  0xff\n  mul\n  not\n  and\n  swap1\n  dup4\n  iszero\n  iszero\n  mul\n  or\n  swap1\n  sstore\n  pop\n    /* \"voting.sol\":85:1154  contract Voting {... */\n  dataSize(sub_0)\n  dup1\n  dataOffset(sub_0)\n  0x00\n  codecopy\n  0x00\n  return\nstop\n\nsub_0: assembly {\n        /* \"voting.sol\":85:1154  contract Voting {... */\n      mstore(0x40, 0x80)\n      callvalue\n      dup1\n      iszero\n      tag_1\n      jumpi\n      0x00\n      dup1\n      revert\n    tag_1:\n      pop\n      jumpi(tag_2, lt(calldatasize, 0x04))\n      shr(0xe0, calldataload(0x00))\n      dup1\n      0x1ec6b60a\n      eq\n      tag_3\n      jumpi\n      dup1\n      0xd8bff5a5\n      eq\n      tag_4\n      jumpi\n      dup1\n      0xfce1ccca\n      eq\n      tag_5\n      jumpi\n    tag_2:\n      0x00\n      dup1\n      revert\n        /* \"voting.sol\":947:1152  function startVoting() external returns (bool) {... */\n    tag_3:\n      tag_6\n      tag_7\n      jump\t// in\n    tag_6:\n      mload(0x40)\n      tag_8\n      swap2\n      swap1\n      tag_9\n      jump\t// in\n    tag_8:\n      mload(0x40)\n      dup1\n      swap2\n      sub\n      swap1\n      return\n        /* \"voting.sol\":354:391  mapping(address => Vote) public votes */\n    tag_4:\n      tag_10\n      0x04\n      dup1\n      calldatasize\n      sub\n      dup2\n      add\n      swap1\n      tag_11\n      swap2\n      swap1\n      tag_12\n      jump\t// in\n    tag_11:\n      tag_13\n      jump\t// in\n    tag_10:\n      mload(0x40)\n      tag_14\n      swap3\n      swap2\n      swap1\n      tag_15\n      jump\t// in\n    tag_14:\n      mload(0x40)\n      dup1\n      swap2\n      sub\n      swap1\n      return\n        /* \"voting.sol\":456:474  bool public voting */\n    tag_5:\n      tag_16\n      tag_17\n      jump\t// in\n    tag_16:\n      mload(0x40)\n      tag_18\n      swap2\n      swap1\n      tag_9\n      jump\t// in\n    tag_18:\n      mload(0x40)\n      dup1\n      swap2\n      sub\n      swap1\n      return\n        /* \"voting.sol\":947:1152  function startVoting() external returns (bool) {... */\n    tag_7:\n        /* \"voting.sol\":988:992  bool */\n      0x00\n        /* \"voting.sol\":1013:1017  true */\n      0x01\n        /* \"voting.sol\":1004:1010  voting */\n      dup1\n      0x00\n        /* \"voting.sol\":1004:1017  voting = true */\n      0x0100\n      exp\n      dup2\n      sload\n      dup2\n      0xff\n      mul\n      not\n      and\n      swap1\n      dup4\n      iszero\n      iszero\n      mul\n      or\n      swap1\n      sstore\n      pop\n        /* \"voting.sol\":1061:1071  msg.sender */\n      caller\n        /* \"voting.sol\":1049:1072  StartVoting(msg.sender) */\n      0xffffffffffffffffffffffffffffffffffffffff\n      and\n      0x84d66542381393079134898f2436f7ba19b5fab5b4ae13da6b78e7454395661d\n      mload(0x40)\n      mload(0x40)\n      dup1\n      swap2\n      sub\n      swap1\n      log2\n        /* \"voting.sol\":1118:1122  true */\n      0x01\n        /* \"voting.sol\":1111:1122  return true */\n      swap1\n      pop\n        /* \"voting.sol\":947:1152  function startVoting() external returns (bool) {... */\n      swap1\n      jump\t// out\n        /* \"voting.sol\":354:391  mapping(address => Vote) public votes */\n    tag_13:\n      mstore(0x20, 0x00)\n      dup1\n      0x00\n      mstore\n      keccak256(0x00, 0x40)\n      0x00\n      swap2\n      pop\n      swap1\n      pop\n      dup1\n      0x00\n      add\n      0x00\n      swap1\n      sload\n      swap1\n      0x0100\n      exp\n      swap1\n      div\n      0xffffffffffffffffffffffffffffffffffffffff\n      and\n      swap1\n      dup1\n      0x01\n      add\n      sload\n      swap1\n      pop\n      dup3\n      jump\t// out\n        /* \"voting.sol\":456:474  bool public voting */\n    tag_17:\n      0x01\n      0x00\n      swap1\n      sload\n      swap1\n      0x0100\n      exp\n      swap1\n      div\n      0xff\n      and\n      dup2\n      jump\t// out\n        /* \"#utility.yul\":7:97   */\n    tag_20:\n        /* \"#utility.yul\":41:48   */\n      0x00\n        /* \"#utility.yul\":84:89   */\n      dup2\n        /* \"#utility.yul\":77:90   */\n      iszero\n        /* \"#utility.yul\":70:91   */\n      iszero\n        /* \"#utility.yul\":59:91   */\n      swap1\n      pop\n        /* \"#utility.yul\":7:97   */\n      swap2\n      swap1\n      pop\n      jump\t// out\n        /* \"#utility.yul\":103:212   */\n    tag_21:\n        /* \"#utility.yul\":184:205   */\n      tag_35\n        /* \"#utility.yul\":199:204   */\n      dup2\n        /* \"#utility.yul\":184:205   */\n      tag_20\n      jump\t// in\n    tag_35:\n        /* \"#utility.yul\":179:182   */\n      dup3\n        /* \"#utility.yul\":172:206   */\n      mstore\n        /* \"#utility.yul\":103:212   */\n      pop\n      pop\n      jump\t// out\n        /* \"#utility.yul\":218:428   */\n    tag_9:\n        /* \"#utility.yul\":305:309   */\n      0x00\n        /* \"#utility.yul\":343:345   */\n      0x20\n        /* \"#utility.yul\":332:341   */\n      dup3\n        /* \"#utility.yul\":328:346   */\n      add\n        /* \"#utility.yul\":320:346   */\n      swap1\n      pop\n        /* \"#utility.yul\":356:421   */\n      tag_37\n        /* \"#utility.yul\":418:419   */\n      0x00\n        /* \"#utility.yul\":407:416   */\n      dup4\n        /* \"#utility.yul\":403:420   */\n      add\n        /* \"#utility.yul\":394:400   */\n      dup5\n        /* \"#utility.yul\":356:421   */\n      tag_21\n      jump\t// in\n    tag_37:\n        /* \"#utility.yul\":218:428   */\n      swap3\n      swap2\n      pop\n      pop\n      jump\t// out\n        /* \"#utility.yul\":515:632   */\n    tag_23:\n        /* \"#utility.yul\":624:625   */\n      0x00\n        /* \"#utility.yul\":621:622   */\n      dup1\n        /* \"#utility.yul\":614:626   */\n      revert\n        /* \"#utility.yul\":761:887   */\n    tag_25:\n        /* \"#utility.yul\":798:805   */\n      0x00\n        /* \"#utility.yul\":838:880   */\n      0xffffffffffffffffffffffffffffffffffffffff\n        /* \"#utility.yul\":831:836   */\n      dup3\n        /* \"#utility.yul\":827:881   */\n      and\n        /* \"#utility.yul\":816:881   */\n      swap1\n      pop\n        /* \"#utility.yul\":761:887   */\n      swap2\n      swap1\n      pop\n      jump\t// out\n        /* \"#utility.yul\":893:989   */\n    tag_26:\n        /* \"#utility.yul\":930:937   */\n      0x00\n        /* \"#utility.yul\":959:983   */\n      tag_43\n        /* \"#utility.yul\":977:982   */\n      dup3\n        /* \"#utility.yul\":959:983   */\n      tag_25\n      jump\t// in\n    tag_43:\n        /* \"#utility.yul\":948:983   */\n      swap1\n      pop\n        /* \"#utility.yul\":893:989   */\n      swap2\n      swap1\n      pop\n      jump\t// out\n        /* \"#utility.yul\":995:1117   */\n    tag_27:\n        /* \"#utility.yul\":1068:1092   */\n      tag_45\n        /* \"#utility.yul\":1086:1091   */\n      dup2\n        /* \"#utility.yul\":1068:1092   */\n      tag_26\n      jump\t// in\n    tag_45:\n        /* \"#utility.yul\":1061:1066   */\n      dup2\n        /* \"#utility.yul\":1058:1093   */\n      eq\n        /* \"#utility.yul\":1048:1111   */\n      tag_46\n      jumpi\n        /* \"#utility.yul\":1107:1108   */\n      0x00\n        /* \"#utility.yul\":1104:1105   */\n      dup1\n        /* \"#utility.yul\":1097:1109   */\n      revert\n        /* \"#utility.yul\":1048:1111   */\n    tag_46:\n        /* \"#utility.yul\":995:1117   */\n      pop\n      jump\t// out\n        /* \"#utility.yul\":1123:1262   */\n    tag_28:\n        /* \"#utility.yul\":1169:1174   */\n      0x00\n        /* \"#utility.yul\":1207:1213   */\n      dup2\n        /* \"#utility.yul\":1194:1214   */\n      calldataload\n        /* \"#utility.yul\":1185:1214   */\n      swap1\n      pop\n        /* \"#utility.yul\":1223:1256   */\n      tag_48\n        /* \"#utility.yul\":1250:1255   */\n      dup2\n        /* \"#utility.yul\":1223:1256   */\n      tag_27\n      jump\t// in\n    tag_48:\n        /* \"#utility.yul\":1123:1262   */\n      swap3\n      swap2\n      pop\n      pop\n      jump\t// out\n        /* \"#utility.yul\":1268:1597   */\n    tag_12:\n        /* \"#utility.yul\":1327:1333   */\n      0x00\n        /* \"#utility.yul\":1376:1378   */\n      0x20\n        /* \"#utility.yul\":1364:1373   */\n      dup3\n        /* \"#utility.yul\":1355:1362   */\n      dup5\n        /* \"#utility.yul\":1351:1374   */\n      sub\n        /* \"#utility.yul\":1347:1379   */\n      slt\n        /* \"#utility.yul\":1344:1463   */\n      iszero\n      tag_50\n      jumpi\n        /* \"#utility.yul\":1382:1461   */\n      tag_51\n      tag_23\n      jump\t// in\n    tag_51:\n        /* \"#utility.yul\":1344:1463   */\n    tag_50:\n        /* \"#utility.yul\":1502:1503   */\n      0x00\n        /* \"#utility.yul\":1527:1580   */\n      tag_52\n        /* \"#utility.yul\":1572:1579   */\n      dup5\n        /* \"#utility.yul\":1563:1569   */\n      dup3\n        /* \"#utility.yul\":1552:1561   */\n      dup6\n        /* \"#utility.yul\":1548:1570   */\n      add\n        /* \"#utility.yul\":1527:1580   */\n      tag_28\n      jump\t// in\n    tag_52:\n        /* \"#utility.yul\":1517:1580   */\n      swap2\n      pop\n        /* \"#utility.yul\":1473:1590   */\n      pop\n        /* \"#utility.yul\":1268:1597   */\n      swap3\n      swap2\n      pop\n      pop\n      jump\t// out\n        /* \"#utility.yul\":1603:1721   */\n    tag_29:\n        /* \"#utility.yul\":1690:1714   */\n      tag_54\n        /* \"#utility.yul\":1708:1713   */\n      dup2\n        /* \"#utility.yul\":1690:1714   */\n      tag_26\n      jump\t// in\n    tag_54:\n        /* \"#utility.yul\":1685:1688   */\n      dup3\n        /* \"#utility.yul\":1678:1715   */\n      mstore\n        /* \"#utility.yul\":1603:1721   */\n      pop\n      pop\n      jump\t// out\n        /* \"#utility.yul\":1727:1804   */\n    tag_30:\n        /* \"#utility.yul\":1764:1771   */\n      0x00\n        /* \"#utility.yul\":1793:1798   */\n      dup2\n        /* \"#utility.yul\":1782:1798   */\n      swap1\n      pop\n        /* \"#utility.yul\":1727:1804   */\n      swap2\n      swap1\n      pop\n      jump\t// out\n        /* \"#utility.yul\":1810:1928   */\n    tag_31:\n        /* \"#utility.yul\":1897:1921   */\n      tag_57\n        /* \"#utility.yul\":1915:1920   */\n      dup2\n        /* \"#utility.yul\":1897:1921   */\n      tag_30\n      jump\t// in\n    tag_57:\n        /* \"#utility.yul\":1892:1895   */\n      dup3\n        /* \"#utility.yul\":1885:1922   */\n      mstore\n        /* \"#utility.yul\":1810:1928   */\n      pop\n      pop\n      jump\t// out\n        /* \"#utility.yul\":1934:2266   */\n    tag_15:\n        /* \"#utility.yul\":2055:2059   */\n      0x00\n        /* \"#utility.yul\":2093:2095   */\n      0x40\n        /* \"#utility.yul\":2082:2091   */\n      dup3\n        /* \"#utility.yul\":2078:2096   */\n      add\n        /* \"#utility.yul\":2070:2096   */\n      swap1\n      pop\n        /* \"#utility.yul\":2106:2177   */\n      tag_59\n        /* \"#utility.yul\":2174:2175   */\n      0x00\n        /* \"#utility.yul\":2163:2172   */\n      dup4\n        /* \"#utility.yul\":2159:2176   */\n      add\n        /* \"#utility.yul\":2150:2156   */\n      dup6\n        /* \"#utility.yul\":2106:2177   */\n      tag_29\n      jump\t// in\n    tag_59:\n        /* \"#utility.yul\":2187:2259   */\n      tag_60\n        /* \"#utility.yul\":2255:2257   */\n      0x20\n        /* \"#utility.yul\":2244:2253   */\n      dup4\n        /* \"#utility.yul\":2240:2258   */\n      add\n        /* \"#utility.yul\":2231:2237   */\n      dup5\n        /* \"#utility.yul\":2187:2259   */\n      tag_31\n      jump\t// in\n    tag_60:\n        /* \"#utility.yul\":1934:2266   */\n      swap4\n      swap3\n      pop\n      pop\n      pop\n      jump\t// out\n\n    auxdata: 0xa26469706673582212209f6739f0185d6a918e54f1ab3c1ee3a58728c34e9f930f8ea68f87dc3b3fde7464736f6c634300081a0033\n}\n",
				"bytecode": {
					"linkReferences": {},
					"object": "6080604052348015600e575f80fd5b505f60015f6101000a81548160ff0219169083151502179055506102a4806100355f395ff3fe608060405234801561000f575f80fd5b506004361061003f575f3560e01c80631ec6b60a14610043578063d8bff5a514610061578063fce1ccca14610092575b5f80fd5b61004b6100b0565b604051610058919061017e565b60405180910390f35b61007b600480360381019061007691906101f5565b610114565b604051610089929190610247565b60405180910390f35b61009a610152565b6040516100a7919061017e565b60405180910390f35b5f6001805f6101000a81548160ff0219169083151502179055503373ffffffffffffffffffffffffffffffffffffffff167f84d66542381393079134898f2436f7ba19b5fab5b4ae13da6b78e7454395661d60405160405180910390a26001905090565b5f602052805f5260405f205f91509050805f015f9054906101000a900473ffffffffffffffffffffffffffffffffffffffff16908060010154905082565b60015f9054906101000a900460ff1681565b5f8115159050919050565b61017881610164565b82525050565b5f6020820190506101915f83018461016f565b92915050565b5f80fd5b5f73ffffffffffffffffffffffffffffffffffffffff82169050919050565b5f6101c48261019b565b9050919050565b6101d4816101ba565b81146101de575f80fd5b50565b5f813590506101ef816101cb565b92915050565b5f6020828403121561020a57610209610197565b5b5f610217848285016101e1565b91505092915050565b610229816101ba565b82525050565b5f819050919050565b6102418161022f565b82525050565b5f60408201905061025a5f830185610220565b6102676020830184610238565b939250505056fea26469706673582212209f6739f0185d6a918e54f1ab3c1ee3a58728c34e9f930f8ea68f87dc3b3fde7464736f6c634300081a0033",
					"opcodes": "PUSH1 0x80 PUSH1 0x40 MSTORE CALLVALUE DUP1 ISZERO PUSH1 0xE JUMPI PUSH0 DUP1 REVERT JUMPDEST POP PUSH0 PUSH1 0x1 PUSH0 PUSH2 0x100 EXP DUP2 SLOAD DUP2 PUSH1 0xFF MUL NOT AND SWAP1 DUP4 ISZERO ISZERO MUL OR SWAP1 SSTORE POP PUSH2 0x2A4 DUP1 PUSH2 0x35 PUSH0 CODECOPY PUSH0 RETURN INVALID PUSH1 0x80 PUSH1 0x40 MSTORE CALLVALUE DUP1 ISZERO PUSH2 0xF JUMPI PUSH0 DUP1 REVERT JUMPDEST POP PUSH1 0x4 CALLDATASIZE LT PUSH2 0x3F JUMPI PUSH0 CALLDATALOAD PUSH1 0xE0 SHR DUP1 PUSH4 0x1EC6B60A EQ PUSH2 0x43 JUMPI DUP1 PUSH4 0xD8BFF5A5 EQ PUSH2 0x61 JUMPI DUP1 PUSH4 0xFCE1CCCA EQ PUSH2 0x92 JUMPI JUMPDEST PUSH0 DUP1 REVERT JUMPDEST PUSH2 0x4B PUSH2 0xB0 JUMP JUMPDEST PUSH1 0x40 MLOAD PUSH2 0x58 SWAP2 SWAP1 PUSH2 0x17E JUMP JUMPDEST PUSH1 0x40 MLOAD DUP1 SWAP2 SUB SWAP1 RETURN JUMPDEST PUSH2 0x7B PUSH1 0x4 DUP1 CALLDATASIZE SUB DUP2 ADD SWAP1 PUSH2 0x76 SWAP2 SWAP1 PUSH2 0x1F5 JUMP JUMPDEST PUSH2 0x114 JUMP JUMPDEST PUSH1 0x40 MLOAD PUSH2 0x89 SWAP3 SWAP2 SWAP1 PUSH2 0x247 JUMP JUMPDEST PUSH1 0x40 MLOAD DUP1 SWAP2 SUB SWAP1 RETURN JUMPDEST PUSH2 0x9A PUSH2 0x152 JUMP JUMPDEST PUSH1 0x40 MLOAD PUSH2 0xA7 SWAP2 SWAP1 PUSH2 0x17E JUMP JUMPDEST PUSH1 0x40 MLOAD DUP1 SWAP2 SUB SWAP1 RETURN JUMPDEST PUSH0 PUSH1 0x1 DUP1 PUSH0 PUSH2 0x100 EXP DUP2 SLOAD DUP2 PUSH1 0xFF MUL NOT AND SWAP1 DUP4 ISZERO ISZERO MUL OR SWAP1 SSTORE POP CALLER PUSH20 0xFFFFFFFFFFFFFFFFFFFFFFFFFFFFFFFFFFFFFFFF AND PUSH32 0x84D66542381393079134898F2436F7BA19B5FAB5B4AE13DA6B78E7454395661D PUSH1 0x40 MLOAD PUSH1 0x40 MLOAD DUP1 SWAP2 SUB SWAP1 LOG2 PUSH1 0x1 SWAP1 POP SWAP1 JUMP JUMPDEST PUSH0 PUSH1 0x20 MSTORE DUP1 PUSH0 MSTORE PUSH1 0x40 PUSH0 KECCAK256 PUSH0 SWAP2 POP SWAP1 POP DUP1 PUSH0 ADD PUSH0 SWAP1 SLOAD SWAP1 PUSH2 0x100 EXP SWAP1 DIV PUSH20 0xFFFFFFFFFFFFFFFFFFFFFFFFFFFFFFFFFFFFFFFF AND SWAP1 DUP1 PUSH1 0x1 ADD SLOAD SWAP1 POP DUP3 JUMP JUMPDEST PUSH1 0x1 PUSH0 SWAP1 SLOAD SWAP1 PUSH2 0x100 EXP SWAP1 DIV PUSH1 0xFF AND DUP2 JUMP JUMPDEST PUSH0 DUP2 ISZERO ISZERO SWAP1 POP SWAP2 SWAP1 POP JUMP JUMPDEST PUSH2 0x178 DUP2 PUSH2 0x164 JUMP JUMPDEST DUP3 MSTORE POP POP JUMP JUMPDEST PUSH0 PUSH1 0x20 DUP3 ADD SWAP1 POP PUSH2 0x191 PUSH0 DUP4 ADD DUP5 PUSH2 0x16F JUMP JUMPDEST SWAP3 SWAP2 POP POP JUMP JUMPDEST PUSH0 DUP1 REVERT JUMPDEST PUSH0 PUSH20 0xFFFFFFFFFFFFFFFFFFFFFFFFFFFFFFFFFFFFFFFF DUP3 AND SWAP1 POP SWAP2 SWAP1 POP JUMP JUMPDEST PUSH0 PUSH2 0x1C4 DUP3 PUSH2 0x19B JUMP JUMPDEST SWAP1 POP SWAP2 SWAP1 POP JUMP JUMPDEST PUSH2 0x1D4 DUP2 PUSH2 0x1BA JUMP JUMPDEST DUP2 EQ PUSH2 0x1DE JUMPI PUSH0 DUP1 REVERT JUMPDEST POP JUMP JUMPDEST PUSH0 DUP2 CALLDATALOAD SWAP1 POP PUSH2 0x1EF DUP2 PUSH2 0x1CB JUMP JUMPDEST SWAP3 SWAP2 POP POP JUMP JUMPDEST PUSH0 PUSH1 0x20 DUP3 DUP5 SUB SLT ISZERO PUSH2 0x20A JUMPI PUSH2 0x209 PUSH2 0x197 JUMP JUMPDEST JUMPDEST PUSH0 PUSH2 0x217 DUP5 DUP3 DUP6 ADD PUSH2 0x1E1 JUMP JUMPDEST SWAP2 POP POP SWAP3 SWAP2 POP POP JUMP JUMPDEST PUSH2 0x229 DUP2 PUSH2 0x1BA JUMP JUMPDEST DUP3 MSTORE POP POP JUMP JUMPDEST PUSH0 DUP2 SWAP1 POP SWAP2 SWAP1 POP JUMP JUMPDEST PUSH2 0x241 DUP2 PUSH2 0x22F JUMP JUMPDEST DUP3 MSTORE POP POP JUMP JUMPDEST PUSH0 PUSH1 0x40 DUP3 ADD SWAP1 POP PUSH2 0x25A PUSH0 DUP4 ADD DUP6 PUSH2 0x220 JUMP JUMPDEST PUSH2 0x267 PUSH1 0x20 DUP4 ADD DUP5 PUSH2 0x238 JUMP JUMPDEST SWAP4 SWAP3 POP POP POP JUMP INVALID LOG2 PUSH5 0x6970667358 0x22 SLT KECCAK256 SWAP16 PUSH8 0x39F0185D6A918E54 CALL 0xAB EXTCODECOPY 0x1E 0xE3 0xA5 DUP8 0x28 0xC3 0x4E SWAP16 SWAP4 0xF DUP15 0xA6 DUP16 DUP8 0xDC EXTCODESIZE EXTCODEHASH 0xDE PUSH21 0x64736F6C634300081A003300000000000000000000 "
				},
				"gasEstimates": {
					"creation": {
						"codeDepositCost": "135200",
						"executionCost": "24446",
						"totalCost": "159646"
					},
					"external": {
						"startVoting()": "25742",
						"votes(address)": "infinite",
						"voting()": "2488"
					}
				},
				"methodIdentifiers": {
					"startVoting()": "1ec6b60a",
					"votes(address)": "d8bff5a5",
					"voting()": "fce1ccca"
				}
			},
			"storageLayout": {
				"storage": [
					{
						"astId": 11,
						"contract": "voting.sol:Voting",
						"label": "votes",
						"offset": 0,
						"slot": "0",
						"type": "t_mapping(t_address,t_struct(Vote)6_storage)"
					},
					{
						"astId": 13,
						"contract": "voting.sol:Voting",
						"label": "voting",
						"offset": 0,
						"slot": "1",
						"type": "t_bool"
					}
				],
				"types": {
					"t_address": {
						"encoding": "inplace",
						"label": "address",
						"numberOfBytes": "20"
					},
					"t_bool": {
						"encoding": "inplace",
						"label": "bool",
						"numberOfBytes": "1"
					},
					"t_mapping(t_address,t_struct(Vote)6_storage)": {
						"encoding": "mapping",
						"key": "t_address",
						"label": "mapping(address => struct Voting.Vote)",
						"numberOfBytes": "32",
						"value": "t_struct(Vote)6_storage"
					},
					"t_struct(Vote)6_storage": {
						"encoding": "inplace",
						"label": "struct Voting.Vote",
						"members": [
							{
								"astId": 3,
								"contract": "voting.sol:Voting",
								"label": "receiver",
								"offset": 0,
								"slot": "0",
								"type": "t_address"
							},
							{
								"astId": 5,
								"contract": "voting.sol:Voting",
								"label": "timestamp",
								"offset": 0,
								"slot": "1",
								"type": "t_uint256"
							}
						],
						"numberOfBytes": "64"
					},
					"t_uint256": {
						"encoding": "inplace",
						"label": "uint256",
						"numberOfBytes": "32"
					}
				}
			},
			"userdoc": {
				"kind": "user",
				"methods": {},
				"version": 1
			}
		}
	}
}