{
	"DataType.sol": {
		"DataTypes": {
			"abi": [
				{
					"inputs": [],
					"name": "getGlobalValue",
					"outputs": [
						{
							"internalType": "bool",
							"name": "",
							"type": "bool"
						},
						{
							"internalType": "uint256",
							"name": "",
							"type": "uint256"
						},
						{
							"internalType": "uint256",
							"name": "",
							"type": "uint256"
						},
						{
							"internalType": "uint8",
							"name": "",
							"type": "uint8"
						},
						{
							"internalType": "uint8",
							"name": "",
							"type": "uint8"
						},
						{
							"internalType": "uint16",
							"name": "",
							"type": "uint16"
						},
						{
							"internalType": "uint16",
							"name": "",
							"type": "uint16"
						},
						{
							"internalType": "int256",
							"name": "",
							"type": "int256"
						},
						{
							"internalType": "int256",
							"name": "",
							"type": "int256"
						},
						{
							"internalType": "int8",
							"name": "",
							"type": "int8"
						},
						{
							"internalType": "int8",
							"name": "",
							"type": "int8"
						}
					],
					"stateMutability": "view",
					"type": "function"
				},
				{
					"inputs": [],
					"name": "isMale",
					"outputs": [
						{
							"internalType": "bool",
							"name": "",
							"type": "bool"
						}
					],
					"stateMutability": "view",
					"type": "function"
				},
				{
					"inputs": [],
					"name": "maxInt",
					"outputs": [
						{
							"internalType": "int256",
							"name": "",
							"type": "int256"
						}
					],
					"stateMutability": "view",
					"type": "function"
				},
				{
					"inputs": [],
					"name": "maxInt8",
					"outputs": [
						{
							"internalType": "int8",
							"name": "",
							"type": "int8"
						}
					],
					"stateMutability": "view",
					"type": "function"
				},
				{
					"inputs": [],
					"name": "maxUint",
					"outputs": [
						{
							"internalType": "uint256",
							"name": "",
							"type": "uint256"
						}
					],
					"stateMutability": "view",
					"type": "function"
				},
				{
					"inputs": [],
					"name": "maxUint16",
					"outputs": [
						{
							"internalType": "uint16",
							"name": "",
							"type": "uint16"
						}
					],
					"stateMutability": "view",
					"type": "function"
				},
				{
					"inputs": [],
					"name": "maxUint8",
					"outputs": [
						{
							"internalType": "uint8",
							"name": "",
							"type": "uint8"
						}
					],
					"stateMutability": "view",
					"type": "function"
				},
				{
					"inputs": [],
					"name": "minInt",
					"outputs": [
						{
							"internalType": "int256",
							"name": "",
							"type": "int256"
						}
					],
					"stateMutability": "view",
					"type": "function"
				},
				{
					"inputs": [],
					"name": "minInt8",
					"outputs": [
						{
							"internalType": "int8",
							"name": "",
							"type": "int8"
						}
					],
					"stateMutability": "view",
					"type": "function"
				},
				{
					"inputs": [],
					"name": "minUint",
					"outputs": [
						{
							"internalType": "uint256",
							"name": "",
							"type": "uint256"
						}
					],
					"stateMutability": "view",
					"type": "function"
				},
				{
					"inputs": [],
					"name": "minUint16",
					"outputs": [
						{
							"internalType": "uint16",
							"name": "",
							"type": "uint16"
						}
					],
					"stateMutability": "view",
					"type": "function"
				},
				{
					"inputs": [],
					"name": "minUint8",
					"outputs": [
						{
							"internalType": "uint8",
							"name": "",
							"type": "uint8"
						}
					],
					"stateMutability": "view",
					"type": "function"
				}
			],
			"devdoc": {
				"kind": "dev",
				"methods": {},
				"version": 1
			},
			"evm": {
				"assembly": "    /* \"DataType.sol\":57:1054  contract DataTypes{... */\n  mstore(0x40, 0x80)\n    /* \"DataType.sol\":102:106  true */\n  0x01\n    /* \"DataType.sol\":81:106  bool public isMale = true */\n  0x00\n  dup1\n  0x0100\n  exp\n  dup2\n  sload\n  dup2\n  0xff\n  mul\n  not\n  and\n  swap1\n  dup4\n  iszero\n  iszero\n  mul\n  or\n  swap1\n  sstore\n  pop\n    /* \"DataType.sol\":134:148  type(uint).max */\n  0xffffffffffffffffffffffffffffffffffffffffffffffffffffffffffffffff\n    /* \"DataType.sol\":112:148  uint public maxUint = type(uint).max */\n  0x01\n  sstore\n    /* \"DataType.sol\":176:190  type(uint).min */\n  0x00\n    /* \"DataType.sol\":154:190  uint public minUint = type(uint).min */\n  0x02\n  sstore\n    /* \"DataType.sol\":221:236  type(uint8).max */\n  0xff\n    /* \"DataType.sol\":197:236  uint8 public maxUint8 = type(uint8).max */\n  0x03\n  exp(0x0100, 0x00)\n  dup2\n  sload\n  dup2\n  0xff\n  mul\n  not\n  and\n  swap1\n  dup4\n  0xff\n  and\n  mul\n  or\n  swap1\n  sstore\n  pop\n    /* \"DataType.sol\":266:281  type(uint8).min */\n  0x00\n    /* \"DataType.sol\":242:281  uint8 public minUint8 = type(uint8).min */\n  0x03\n  exp(0x0100, 0x01)\n  dup2\n  sload\n  dup2\n  0xff\n  mul\n  not\n  and\n  swap1\n  dup4\n  0xff\n  and\n  mul\n  or\n  swap1\n  sstore\n  pop\n    /* \"DataType.sol\":314:330  type(uint16).max */\n  0xffff\n    /* \"DataType.sol\":288:330  uint16 public maxUint16 = type(uint16).max */\n  0x03\n  exp(0x0100, 0x02)\n  dup2\n  sload\n  dup2\n  0xffff\n  mul\n  not\n  and\n  swap1\n  dup4\n  0xffff\n  and\n  mul\n  or\n  swap1\n  sstore\n  pop\n    /* \"DataType.sol\":362:378  type(uint16).min */\n  0x00\n    /* \"DataType.sol\":336:378  uint16 public minUint16 = type(uint16).min */\n  0x03\n  exp(0x0100, 0x04)\n  dup2\n  sload\n  dup2\n  0xffff\n  mul\n  not\n  and\n  swap1\n  dup4\n  0xffff\n  and\n  mul\n  or\n  swap1\n  sstore\n  pop\n    /* \"DataType.sol\":406:419  type(int).max */\n  0x7fffffffffffffffffffffffffffffffffffffffffffffffffffffffffffffff\n    /* \"DataType.sol\":386:419  int public maxInt = type(int).max */\n  0x04\n  sstore\n    /* \"DataType.sol\":445:458  type(int).min */\n  0x8000000000000000000000000000000000000000000000000000000000000000\n    /* \"DataType.sol\":425:458  int public minInt = type(int).min */\n  0x05\n  sstore\n    /* \"DataType.sol\":487:501  type(int8).max */\n  0x7f\n    /* \"DataType.sol\":465:501  int8 public maxInt8 = type(int8).max */\n  0x06\n  exp(0x0100, 0x00)\n  dup2\n  sload\n  dup2\n  0xff\n  mul\n  not\n  and\n  swap1\n  dup4\n  0x00\n  signextend\n  0xff\n  and\n  mul\n  or\n  swap1\n  sstore\n  pop\n    /* \"DataType.sol\":529:543  type(int8).min */\n  0xffffffffffffffffffffffffffffffffffffffffffffffffffffffffffffff80\n    /* \"DataType.sol\":507:543  int8 public minInt8 = type(int8).min */\n  0x06\n  exp(0x0100, 0x01)\n  dup2\n  sload\n  dup2\n  0xff\n  mul\n  not\n  and\n  swap1\n  dup4\n  0x00\n  signextend\n  0xff\n  and\n  mul\n  or\n  swap1\n  sstore\n  pop\n    /* \"DataType.sol\":57:1054  contract DataTypes{... */\n  callvalue\n  dup1\n  iszero\n  tag_1\n  jumpi\n  0x00\n  dup1\n  revert\ntag_1:\n  pop\n  dataSize(sub_0)\n  dup1\n  dataOffset(sub_0)\n  0x00\n  codecopy\n  0x00\n  return\nstop\n\nsub_0: assembly {\n        /* \"DataType.sol\":57:1054  contract DataTypes{... */\n      mstore(0x40, 0x80)\n      callvalue\n      dup1\n      iszero\n      tag_1\n      jumpi\n      0x00\n      dup1\n      revert\n    tag_1:\n      pop\n      jumpi(tag_2, lt(calldatasize, 0x04))\n      shr(0xe0, calldataload(0x00))\n      dup1\n      0x7e4e14cc\n      gt\n      tag_15\n      jumpi\n      dup1\n      0x7e4e14cc\n      eq\n      tag_9\n      jumpi\n      dup1\n      0x85d350f1\n      eq\n      tag_10\n      jumpi\n      dup1\n      0x86891422\n      eq\n      tag_11\n      jumpi\n      dup1\n      0xa631eb62\n      eq\n      tag_12\n      jumpi\n      dup1\n      0xeacc248b\n      eq\n      tag_13\n      jumpi\n      dup1\n      0xf260cd4c\n      eq\n      tag_14\n      jumpi\n      jump(tag_2)\n    tag_15:\n      dup1\n      0x16a0c5b5\n      eq\n      tag_3\n      jumpi\n      dup1\n      0x24d02974\n      eq\n      tag_4\n      jumpi\n      dup1\n      0x3814c856\n      eq\n      tag_5\n      jumpi\n      dup1\n      0x654a573c\n      eq\n      tag_6\n      jumpi\n      dup1\n      0x719e9613\n      eq\n      tag_7\n      jumpi\n      dup1\n      0x7a4c2571\n      eq\n      tag_8\n      jumpi\n    tag_2:\n      0x00\n      dup1\n      revert\n        /* \"DataType.sol\":112:148  uint public maxUint = type(uint).max */\n    tag_3:\n      tag_16\n      tag_17\n      jump\t// in\n    tag_16:\n      mload(0x40)\n      tag_18\n      swap2\n      swap1\n      tag_19\n      jump\t// in\n    tag_18:\n      mload(0x40)\n      dup1\n      swap2\n      sub\n      swap1\n      return\n        /* \"DataType.sol\":197:236  uint8 public maxUint8 = type(uint8).max */\n    tag_4:\n      tag_20\n      tag_21\n      jump\t// in\n    tag_20:\n      mload(0x40)\n      tag_22\n      swap2\n      swap1\n      tag_23\n      jump\t// in\n    tag_22:\n      mload(0x40)\n      dup1\n      swap2\n      sub\n      swap1\n      return\n        /* \"DataType.sol\":465:501  int8 public maxInt8 = type(int8).max */\n    tag_5:\n      tag_24\n      tag_25\n      jump\t// in\n    tag_24:\n      mload(0x40)\n      tag_26\n      swap2\n      swap1\n      tag_27\n      jump\t// in\n    tag_26:\n      mload(0x40)\n      dup1\n      swap2\n      sub\n      swap1\n      return\n        /* \"DataType.sol\":81:106  bool public isMale = true */\n    tag_6:\n      tag_28\n      tag_29\n      jump\t// in\n    tag_28:\n      mload(0x40)\n      tag_30\n      swap2\n      swap1\n      tag_31\n      jump\t// in\n    tag_30:\n      mload(0x40)\n      dup1\n      swap2\n      sub\n      swap1\n      return\n        /* \"DataType.sol\":288:330  uint16 public maxUint16 = type(uint16).max */\n    tag_7:\n      tag_32\n      tag_33\n      jump\t// in\n    tag_32:\n      mload(0x40)\n      tag_34\n      swap2\n      swap1\n      tag_35\n      jump\t// in\n    tag_34:\n      mload(0x40)\n      dup1\n      swap2\n      sub\n      swap1\n      return\n        /* \"DataType.sol\":386:419  int public maxInt = type(int).max */\n    tag_8:\n      tag_36\n      tag_37\n      jump\t// in\n    tag_36:\n      mload(0x40)\n      tag_38\n      swap2\n      swap1\n      tag_39\n      jump\t// in\n    tag_38:\n      mload(0x40)\n      dup1\n      swap2\n      sub\n      swap1\n      return\n        /* \"DataType.sol\":425:458  int public minInt = type(int).min */\n    tag_9:\n      tag_40\n      tag_41\n      jump\t// in\n    tag_40:\n      mload(0x40)\n      tag_42\n      swap2\n      swap1\n      tag_39\n      jump\t// in\n    tag_42:\n      mload(0x40)\n      dup1\n      swap2\n      sub\n      swap1\n      return\n        /* \"DataType.sol\":242:281  uint8 public minUint8 = type(uint8).min */\n    tag_10:\n      tag_43\n      tag_44\n      jump\t// in\n    tag_43:\n      mload(0x40)\n      tag_45\n      swap2\n      swap1\n      tag_23\n      jump\t// in\n    tag_45:\n      mload(0x40)\n      dup1\n      swap2\n      sub\n      swap1\n      return\n        /* \"DataType.sol\":820:1052  function getGlobalValue () external view returns (bool, uint, uint, uint8, uint8, uint16, uint16,int,int,int8,int8){... */\n    tag_11:\n      tag_46\n      tag_47\n      jump\t// in\n    tag_46:\n      mload(0x40)\n      tag_48\n      swap12\n      swap11\n      swap10\n      swap9\n      swap8\n      swap7\n      swap6\n      swap5\n      swap4\n      swap3\n      swap2\n      swap1\n      tag_49\n      jump\t// in\n    tag_48:\n      mload(0x40)\n      dup1\n      swap2\n      sub\n      swap1\n      return\n        /* \"DataType.sol\":507:543  int8 public minInt8 = type(int8).min */\n    tag_12:\n      tag_50\n      tag_51\n      jump\t// in\n    tag_50:\n      mload(0x40)\n      tag_52\n      swap2\n      swap1\n      tag_27\n      jump\t// in\n    tag_52:\n      mload(0x40)\n      dup1\n      swap2\n      sub\n      swap1\n      return\n        /* \"DataType.sol\":154:190  uint public minUint = type(uint).min */\n    tag_13:\n      tag_53\n      tag_54\n      jump\t// in\n    tag_53:\n      mload(0x40)\n      tag_55\n      swap2\n      swap1\n      tag_19\n      jump\t// in\n    tag_55:\n      mload(0x40)\n      dup1\n      swap2\n      sub\n      swap1\n      return\n        /* \"DataType.sol\":336:378  uint16 public minUint16 = type(uint16).min */\n    tag_14:\n      tag_56\n      tag_57\n      jump\t// in\n    tag_56:\n      mload(0x40)\n      tag_58\n      swap2\n      swap1\n      tag_35\n      jump\t// in\n    tag_58:\n      mload(0x40)\n      dup1\n      swap2\n      sub\n      swap1\n      return\n        /* \"DataType.sol\":112:148  uint public maxUint = type(uint).max */\n    tag_17:\n      sload(0x01)\n      dup2\n      jump\t// out\n        /* \"DataType.sol\":197:236  uint8 public maxUint8 = type(uint8).max */\n    tag_21:\n      0x03\n      0x00\n      swap1\n      sload\n      swap1\n      0x0100\n      exp\n      swap1\n      div\n      0xff\n      and\n      dup2\n      jump\t// out\n        /* \"DataType.sol\":465:501  int8 public maxInt8 = type(int8).max */\n    tag_25:\n      0x06\n      0x00\n      swap1\n      sload\n      swap1\n      0x0100\n      exp\n      swap1\n      div\n      0x00\n      signextend\n      dup2\n      jump\t// out\n        /* \"DataType.sol\":81:106  bool public isMale = true */\n    tag_29:\n      0x00\n      dup1\n      sload\n      swap1\n      0x0100\n      exp\n      swap1\n      div\n      0xff\n      and\n      dup2\n      jump\t// out\n        /* \"DataType.sol\":288:330  uint16 public maxUint16 = type(uint16).max */\n    tag_33:\n      0x03\n      0x02\n      swap1\n      sload\n      swap1\n      0x0100\n      exp\n      swap1\n      div\n      0xffff\n      and\n      dup2\n      jump\t// out\n        /* \"DataType.sol\":386:419  int public maxInt = type(int).max */\n    tag_37:\n      sload(0x04)\n      dup2\n      jump\t// out\n        /* \"DataType.sol\":425:458  int public minInt = type(int).min */\n    tag_41:\n      sload(0x05)\n      dup2\n      jump\t// out\n        /* \"DataType.sol\":242:281  uint8 public minUint8 = type(uint8).min */\n    tag_44:\n      0x03\n      0x01\n      swap1\n      sload\n      swap1\n      0x0100\n      exp\n      swap1\n      div\n      0xff\n      and\n      dup2\n      jump\t// out\n        /* \"DataType.sol\":820:1052  function getGlobalValue () external view returns (bool, uint, uint, uint8, uint8, uint16, uint16,int,int,int8,int8){... */\n    tag_47:\n        /* \"DataType.sol\":870:874  bool */\n      0x00\n        /* \"DataType.sol\":876:880  uint */\n      dup1\n        /* \"DataType.sol\":882:886  uint */\n      0x00\n        /* \"DataType.sol\":888:893  uint8 */\n      dup1\n        /* \"DataType.sol\":895:900  uint8 */\n      0x00\n        /* \"DataType.sol\":902:908  uint16 */\n      dup1\n        /* \"DataType.sol\":910:916  uint16 */\n      0x00\n        /* \"DataType.sol\":917:920  int */\n      dup1\n        /* \"DataType.sol\":921:924  int */\n      0x00\n        /* \"DataType.sol\":925:929  int8 */\n      dup1\n        /* \"DataType.sol\":930:934  int8 */\n      0x00\n        /* \"DataType.sol\":953:959  isMale */\n      dup1\n      0x00\n      swap1\n      sload\n      swap1\n      0x0100\n      exp\n      swap1\n      div\n      0xff\n      and\n        /* \"DataType.sol\":961:968  maxUint */\n      sload(0x01)\n        /* \"DataType.sol\":969:976  minUint */\n      sload(0x02)\n        /* \"DataType.sol\":977:985  maxUint8 */\n      0x03\n      0x00\n      swap1\n      sload\n      swap1\n      0x0100\n      exp\n      swap1\n      div\n      0xff\n      and\n        /* \"DataType.sol\":986:994  minUint8 */\n      0x03\n      0x01\n      swap1\n      sload\n      swap1\n      0x0100\n      exp\n      swap1\n      div\n      0xff\n      and\n        /* \"DataType.sol\":995:1004  maxUint16 */\n      0x03\n      0x02\n      swap1\n      sload\n      swap1\n      0x0100\n      exp\n      swap1\n      div\n      0xffff\n      and\n        /* \"DataType.sol\":1005:1014  minUint16 */\n      0x03\n      0x04\n      swap1\n      sload\n      swap1\n      0x0100\n      exp\n      swap1\n      div\n      0xffff\n      and\n        /* \"DataType.sol\":1015:1021  maxInt */\n      sload(0x04)\n        /* \"DataType.sol\":1022:1028  minInt */\n      sload(0x05)\n        /* \"DataType.sol\":1029:1036  maxInt8 */\n      0x06\n      0x00\n      swap1\n      sload\n      swap1\n      0x0100\n      exp\n      swap1\n      div\n      0x00\n      signextend\n        /* \"DataType.sol\":1037:1044  minInt8 */\n      0x06\n      0x01\n      swap1\n      sload\n      swap1\n      0x0100\n      exp\n      swap1\n      div\n      0x00\n      signextend\n        /* \"DataType.sol\":945:1045  return (isMale, maxUint,minUint,maxUint8,minUint8,maxUint16,minUint16,maxInt,minInt,maxInt8,minInt8) */\n      swap11\n      pop\n      swap11\n      pop\n      swap11\n      pop\n      swap11\n      pop\n      swap11\n      pop\n      swap11\n      pop\n      swap11\n      pop\n      swap11\n      pop\n      swap11\n      pop\n      swap11\n      pop\n      swap11\n      pop\n        /* \"DataType.sol\":820:1052  function getGlobalValue () external view returns (bool, uint, uint, uint8, uint8, uint16, uint16,int,int,int8,int8){... */\n      swap1\n      swap2\n      swap3\n      swap4\n      swap5\n      swap6\n      swap7\n      swap8\n      swap9\n      swap10\n      swap11\n      jump\t// out\n        /* \"DataType.sol\":507:543  int8 public minInt8 = type(int8).min */\n    tag_51:\n      0x06\n      0x01\n      swap1\n      sload\n      swap1\n      0x0100\n      exp\n      swap1\n      div\n      0x00\n      signextend\n      dup2\n      jump\t// out\n        /* \"DataType.sol\":154:190  uint public minUint = type(uint).min */\n    tag_54:\n      sload(0x02)\n      dup2\n      jump\t// out\n        /* \"DataType.sol\":336:378  uint16 public minUint16 = type(uint16).min */\n    tag_57:\n      0x03\n      0x04\n      swap1\n      sload\n      swap1\n      0x0100\n      exp\n      swap1\n      div\n      0xffff\n      and\n      dup2\n      jump\t// out\n        /* \"#utility.yul\":7:84   */\n    tag_60:\n        /* \"#utility.yul\":44:51   */\n      0x00\n        /* \"#utility.yul\":73:78   */\n      dup2\n        /* \"#utility.yul\":62:78   */\n      swap1\n      pop\n        /* \"#utility.yul\":7:84   */\n      swap2\n      swap1\n      pop\n      jump\t// out\n        /* \"#utility.yul\":90:208   */\n    tag_61:\n        /* \"#utility.yul\":177:201   */\n      tag_75\n        /* \"#utility.yul\":195:200   */\n      dup2\n        /* \"#utility.yul\":177:201   */\n      tag_60\n      jump\t// in\n    tag_75:\n        /* \"#utility.yul\":172:175   */\n      dup3\n        /* \"#utility.yul\":165:202   */\n      mstore\n        /* \"#utility.yul\":90:208   */\n      pop\n      pop\n      jump\t// out\n        /* \"#utility.yul\":214:436   */\n    tag_19:\n        /* \"#utility.yul\":307:311   */\n      0x00\n        /* \"#utility.yul\":345:347   */\n      0x20\n        /* \"#utility.yul\":334:343   */\n      dup3\n        /* \"#utility.yul\":330:348   */\n      add\n        /* \"#utility.yul\":322:348   */\n      swap1\n      pop\n        /* \"#utility.yul\":358:429   */\n      tag_77\n        /* \"#utility.yul\":426:427   */\n      0x00\n        /* \"#utility.yul\":415:424   */\n      dup4\n        /* \"#utility.yul\":411:428   */\n      add\n        /* \"#utility.yul\":402:408   */\n      dup5\n        /* \"#utility.yul\":358:429   */\n      tag_61\n      jump\t// in\n    tag_77:\n        /* \"#utility.yul\":214:436   */\n      swap3\n      swap2\n      pop\n      pop\n      jump\t// out\n        /* \"#utility.yul\":442:528   */\n    tag_62:\n        /* \"#utility.yul\":477:484   */\n      0x00\n        /* \"#utility.yul\":517:521   */\n      0xff\n        /* \"#utility.yul\":510:515   */\n      dup3\n        /* \"#utility.yul\":506:522   */\n      and\n        /* \"#utility.yul\":495:522   */\n      swap1\n      pop\n        /* \"#utility.yul\":442:528   */\n      swap2\n      swap1\n      pop\n      jump\t// out\n        /* \"#utility.yul\":534:646   */\n    tag_63:\n        /* \"#utility.yul\":617:639   */\n      tag_80\n        /* \"#utility.yul\":633:638   */\n      dup2\n        /* \"#utility.yul\":617:639   */\n      tag_62\n      jump\t// in\n    tag_80:\n        /* \"#utility.yul\":612:615   */\n      dup3\n        /* \"#utility.yul\":605:640   */\n      mstore\n        /* \"#utility.yul\":534:646   */\n      pop\n      pop\n      jump\t// out\n        /* \"#utility.yul\":652:866   */\n    tag_23:\n        /* \"#utility.yul\":741:745   */\n      0x00\n        /* \"#utility.yul\":779:781   */\n      0x20\n        /* \"#utility.yul\":768:777   */\n      dup3\n        /* \"#utility.yul\":764:782   */\n      add\n        /* \"#utility.yul\":756:782   */\n      swap1\n      pop\n        /* \"#utility.yul\":792:859   */\n      tag_82\n        /* \"#utility.yul\":856:857   */\n      0x00\n        /* \"#utility.yul\":845:854   */\n      dup4\n        /* \"#utility.yul\":841:858   */\n      add\n        /* \"#utility.yul\":832:838   */\n      dup5\n        /* \"#utility.yul\":792:859   */\n      tag_63\n      jump\t// in\n    tag_82:\n        /* \"#utility.yul\":652:866   */\n      swap3\n      swap2\n      pop\n      pop\n      jump\t// out\n        /* \"#utility.yul\":872:961   */\n    tag_64:\n        /* \"#utility.yul\":906:913   */\n      0x00\n        /* \"#utility.yul\":949:954   */\n      dup2\n        /* \"#utility.yul\":946:947   */\n      0x00\n        /* \"#utility.yul\":935:955   */\n      signextend\n        /* \"#utility.yul\":924:955   */\n      swap1\n      pop\n        /* \"#utility.yul\":872:961   */\n      swap2\n      swap1\n      pop\n      jump\t// out\n        /* \"#utility.yul\":967:1076   */\n    tag_65:\n        /* \"#utility.yul\":1048:1069   */\n      tag_85\n        /* \"#utility.yul\":1063:1068   */\n      dup2\n        /* \"#utility.yul\":1048:1069   */\n      tag_64\n      jump\t// in\n    tag_85:\n        /* \"#utility.yul\":1043:1046   */\n      dup3\n        /* \"#utility.yul\":1036:1070   */\n      mstore\n        /* \"#utility.yul\":967:1076   */\n      pop\n      pop\n      jump\t// out\n        /* \"#utility.yul\":1082:1292   */\n    tag_27:\n        /* \"#utility.yul\":1169:1173   */\n      0x00\n        /* \"#utility.yul\":1207:1209   */\n      0x20\n        /* \"#utility.yul\":1196:1205   */\n      dup3\n        /* \"#utility.yul\":1192:1210   */\n      add\n        /* \"#utility.yul\":1184:1210   */\n      swap1\n      pop\n        /* \"#utility.yul\":1220:1285   */\n      tag_87\n        /* \"#utility.yul\":1282:1283   */\n      0x00\n        /* \"#utility.yul\":1271:1280   */\n      dup4\n        /* \"#utility.yul\":1267:1284   */\n      add\n        /* \"#utility.yul\":1258:1264   */\n      dup5\n        /* \"#utility.yul\":1220:1285   */\n      tag_65\n      jump\t// in\n    tag_87:\n        /* \"#utility.yul\":1082:1292   */\n      swap3\n      swap2\n      pop\n      pop\n      jump\t// out\n        /* \"#utility.yul\":1298:1388   */\n    tag_66:\n        /* \"#utility.yul\":1332:1339   */\n      0x00\n        /* \"#utility.yul\":1375:1380   */\n      dup2\n        /* \"#utility.yul\":1368:1381   */\n      iszero\n        /* \"#utility.yul\":1361:1382   */\n      iszero\n        /* \"#utility.yul\":1350:1382   */\n      swap1\n      pop\n        /* \"#utility.yul\":1298:1388   */\n      swap2\n      swap1\n      pop\n      jump\t// out\n        /* \"#utility.yul\":1394:1503   */\n    tag_67:\n        /* \"#utility.yul\":1475:1496   */\n      tag_90\n        /* \"#utility.yul\":1490:1495   */\n      dup2\n        /* \"#utility.yul\":1475:1496   */\n      tag_66\n      jump\t// in\n    tag_90:\n        /* \"#utility.yul\":1470:1473   */\n      dup3\n        /* \"#utility.yul\":1463:1497   */\n      mstore\n        /* \"#utility.yul\":1394:1503   */\n      pop\n      pop\n      jump\t// out\n        /* \"#utility.yul\":1509:1719   */\n    tag_31:\n        /* \"#utility.yul\":1596:1600   */\n      0x00\n        /* \"#utility.yul\":1634:1636   */\n      0x20\n        /* \"#utility.yul\":1623:1632   */\n      dup3\n        /* \"#utility.yul\":1619:1637   */\n      add\n        /* \"#utility.yul\":1611:1637   */\n      swap1\n      pop\n        /* \"#utility.yul\":1647:1712   */\n      tag_92\n        /* \"#utility.yul\":1709:1710   */\n      0x00\n        /* \"#utility.yul\":1698:1707   */\n      dup4\n        /* \"#utility.yul\":1694:1711   */\n      add\n        /* \"#utility.yul\":1685:1691   */\n      dup5\n        /* \"#utility.yul\":1647:1712   */\n      tag_67\n      jump\t// in\n    tag_92:\n        /* \"#utility.yul\":1509:1719   */\n      swap3\n      swap2\n      pop\n      pop\n      jump\t// out\n        /* \"#utility.yul\":1725:1814   */\n    tag_68:\n        /* \"#utility.yul\":1761:1768   */\n      0x00\n        /* \"#utility.yul\":1801:1807   */\n      0xffff\n        /* \"#utility.yul\":1794:1799   */\n      dup3\n        /* \"#utility.yul\":1790:1808   */\n      and\n        /* \"#utility.yul\":1779:1808   */\n      swap1\n      pop\n        /* \"#utility.yul\":1725:1814   */\n      swap2\n      swap1\n      pop\n      jump\t// out\n        /* \"#utility.yul\":1820:1935   */\n    tag_69:\n        /* \"#utility.yul\":1905:1928   */\n      tag_95\n        /* \"#utility.yul\":1922:1927   */\n      dup2\n        /* \"#utility.yul\":1905:1928   */\n      tag_68\n      jump\t// in\n    tag_95:\n        /* \"#utility.yul\":1900:1903   */\n      dup3\n        /* \"#utility.yul\":1893:1929   */\n      mstore\n        /* \"#utility.yul\":1820:1935   */\n      pop\n      pop\n      jump\t// out\n        /* \"#utility.yul\":1941:2159   */\n    tag_35:\n        /* \"#utility.yul\":2032:2036   */\n      0x00\n        /* \"#utility.yul\":2070:2072   */\n      0x20\n        /* \"#utility.yul\":2059:2068   */\n      dup3\n        /* \"#utility.yul\":2055:2073   */\n      add\n        /* \"#utility.yul\":2047:2073   */\n      swap1\n      pop\n        /* \"#utility.yul\":2083:2152   */\n      tag_97\n        /* \"#utility.yul\":2149:2150   */\n      0x00\n        /* \"#utility.yul\":2138:2147   */\n      dup4\n        /* \"#utility.yul\":2134:2151   */\n      add\n        /* \"#utility.yul\":2125:2131   */\n      dup5\n        /* \"#utility.yul\":2083:2152   */\n      tag_69\n      jump\t// in\n    tag_97:\n        /* \"#utility.yul\":1941:2159   */\n      swap3\n      swap2\n      pop\n      pop\n      jump\t// out\n        /* \"#utility.yul\":2165:2241   */\n    tag_70:\n        /* \"#utility.yul\":2201:2208   */\n      0x00\n        /* \"#utility.yul\":2230:2235   */\n      dup2\n        /* \"#utility.yul\":2219:2235   */\n      swap1\n      pop\n        /* \"#utility.yul\":2165:2241   */\n      swap2\n      swap1\n      pop\n      jump\t// out\n        /* \"#utility.yul\":2247:2362   */\n    tag_71:\n        /* \"#utility.yul\":2332:2355   */\n      tag_100\n        /* \"#utility.yul\":2349:2354   */\n      dup2\n        /* \"#utility.yul\":2332:2355   */\n      tag_70\n      jump\t// in\n    tag_100:\n        /* \"#utility.yul\":2327:2330   */\n      dup3\n        /* \"#utility.yul\":2320:2356   */\n      mstore\n        /* \"#utility.yul\":2247:2362   */\n      pop\n      pop\n      jump\t// out\n        /* \"#utility.yul\":2368:2586   */\n    tag_39:\n        /* \"#utility.yul\":2459:2463   */\n      0x00\n        /* \"#utility.yul\":2497:2499   */\n      0x20\n        /* \"#utility.yul\":2486:2495   */\n      dup3\n        /* \"#utility.yul\":2482:2500   */\n      add\n        /* \"#utility.yul\":2474:2500   */\n      swap1\n      pop\n        /* \"#utility.yul\":2510:2579   */\n      tag_102\n        /* \"#utility.yul\":2576:2577   */\n      0x00\n        /* \"#utility.yul\":2565:2574   */\n      dup4\n        /* \"#utility.yul\":2561:2578   */\n      add\n        /* \"#utility.yul\":2552:2558   */\n      dup5\n        /* \"#utility.yul\":2510:2579   */\n      tag_71\n      jump\t// in\n    tag_102:\n        /* \"#utility.yul\":2368:2586   */\n      swap3\n      swap2\n      pop\n      pop\n      jump\t// out\n        /* \"#utility.yul\":2592:3856   */\n    tag_49:\n        /* \"#utility.yul\":2932:2936   */\n      0x00\n        /* \"#utility.yul\":2970:2973   */\n      0x0160\n        /* \"#utility.yul\":2959:2968   */\n      dup3\n        /* \"#utility.yul\":2955:2974   */\n      add\n        /* \"#utility.yul\":2947:2974   */\n      swap1\n      pop\n        /* \"#utility.yul\":2984:3049   */\n      tag_104\n        /* \"#utility.yul\":3046:3047   */\n      0x00\n        /* \"#utility.yul\":3035:3044   */\n      dup4\n        /* \"#utility.yul\":3031:3048   */\n      add\n        /* \"#utility.yul\":3022:3028   */\n      dup15\n        /* \"#utility.yul\":2984:3049   */\n      tag_67\n      jump\t// in\n    tag_104:\n        /* \"#utility.yul\":3059:3131   */\n      tag_105\n        /* \"#utility.yul\":3127:3129   */\n      0x20\n        /* \"#utility.yul\":3116:3125   */\n      dup4\n        /* \"#utility.yul\":3112:3130   */\n      add\n        /* \"#utility.yul\":3103:3109   */\n      dup14\n        /* \"#utility.yul\":3059:3131   */\n      tag_61\n      jump\t// in\n    tag_105:\n        /* \"#utility.yul\":3141:3213   */\n      tag_106\n        /* \"#utility.yul\":3209:3211   */\n      0x40\n        /* \"#utility.yul\":3198:3207   */\n      dup4\n        /* \"#utility.yul\":3194:3212   */\n      add\n        /* \"#utility.yul\":3185:3191   */\n      dup13\n        /* \"#utility.yul\":3141:3213   */\n      tag_61\n      jump\t// in\n    tag_106:\n        /* \"#utility.yul\":3223:3291   */\n      tag_107\n        /* \"#utility.yul\":3287:3289   */\n      0x60\n        /* \"#utility.yul\":3276:3285   */\n      dup4\n        /* \"#utility.yul\":3272:3290   */\n      add\n        /* \"#utility.yul\":3263:3269   */\n      dup12\n        /* \"#utility.yul\":3223:3291   */\n      tag_63\n      jump\t// in\n    tag_107:\n        /* \"#utility.yul\":3301:3370   */\n      tag_108\n        /* \"#utility.yul\":3365:3368   */\n      0x80\n        /* \"#utility.yul\":3354:3363   */\n      dup4\n        /* \"#utility.yul\":3350:3369   */\n      add\n        /* \"#utility.yul\":3341:3347   */\n      dup11\n        /* \"#utility.yul\":3301:3370   */\n      tag_63\n      jump\t// in\n    tag_108:\n        /* \"#utility.yul\":3380:3451   */\n      tag_109\n        /* \"#utility.yul\":3446:3449   */\n      0xa0\n        /* \"#utility.yul\":3435:3444   */\n      dup4\n        /* \"#utility.yul\":3431:3450   */\n      add\n        /* \"#utility.yul\":3422:3428   */\n      dup10\n        /* \"#utility.yul\":3380:3451   */\n      tag_69\n      jump\t// in\n    tag_109:\n        /* \"#utility.yul\":3461:3532   */\n      tag_110\n        /* \"#utility.yul\":3527:3530   */\n      0xc0\n        /* \"#utility.yul\":3516:3525   */\n      dup4\n        /* \"#utility.yul\":3512:3531   */\n      add\n        /* \"#utility.yul\":3503:3509   */\n      dup9\n        /* \"#utility.yul\":3461:3532   */\n      tag_69\n      jump\t// in\n    tag_110:\n        /* \"#utility.yul\":3542:3613   */\n      tag_111\n        /* \"#utility.yul\":3608:3611   */\n      0xe0\n        /* \"#utility.yul\":3597:3606   */\n      dup4\n        /* \"#utility.yul\":3593:3612   */\n      add\n        /* \"#utility.yul\":3584:3590   */\n      dup8\n        /* \"#utility.yul\":3542:3613   */\n      tag_71\n      jump\t// in\n    tag_111:\n        /* \"#utility.yul\":3623:3694   */\n      tag_112\n        /* \"#utility.yul\":3689:3692   */\n      0x0100\n        /* \"#utility.yul\":3678:3687   */\n      dup4\n        /* \"#utility.yul\":3674:3693   */\n      add\n        /* \"#utility.yul\":3665:3671   */\n      dup7\n        /* \"#utility.yul\":3623:3694   */\n      tag_71\n      jump\t// in\n    tag_112:\n        /* \"#utility.yul\":3704:3771   */\n      tag_113\n        /* \"#utility.yul\":3766:3769   */\n      0x0120\n        /* \"#utility.yul\":3755:3764   */\n      dup4\n        /* \"#utility.yul\":3751:3770   */\n      add\n        /* \"#utility.yul\":3742:3748   */\n      dup6\n        /* \"#utility.yul\":3704:3771   */\n      tag_65\n      jump\t// in\n    tag_113:\n        /* \"#utility.yul\":3781:3849   */\n      tag_114\n        /* \"#utility.yul\":3844:3847   */\n      0x0140\n        /* \"#utility.yul\":3833:3842   */\n      dup4\n        /* \"#utility.yul\":3829:3848   */\n      add\n        /* \"#utility.yul\":3819:3826   */\n      dup5\n        /* \"#utility.yul\":3781:3849   */\n      tag_65\n      jump\t// in\n    tag_114:\n        /* \"#utility.yul\":2592:3856   */\n      swap13\n      swap12\n      pop\n      pop\n      pop\n      pop\n      pop\n      pop\n      pop\n      pop\n      pop\n      pop\n      pop\n      pop\n      jump\t// out\n\n    auxdata: 0xa2646970667358221220e65a9f8f736aa74cae249f3264ad0e9ca976d22391643b2ac2205724664a6ea164736f6c634300081a0033\n}\n",
				"bytecode": {
					"linkReferences": {},
					"object": "608060405260015f806101000a81548160ff0219169083151502179055507fffffffffffffffffffffffffffffffffffffffffffffffffffffffffffffffff6001555f60025560ff60035f6101000a81548160ff021916908360ff1602179055505f600360016101000a81548160ff021916908360ff16021790555061ffff600360026101000a81548161ffff021916908361ffff1602179055505f600360046101000a81548161ffff021916908361ffff1602179055507f7fffffffffffffffffffffffffffffffffffffffffffffffffffffffffffffff6004557f8000000000000000000000000000000000000000000000000000000000000000600555607f60065f6101000a81548160ff02191690835f0b60ff1602179055507fffffffffffffffffffffffffffffffffffffffffffffffffffffffffffffff80600660016101000a81548160ff02191690835f0b60ff160217905550348015610164575f80fd5b50610576806101725f395ff3fe608060405234801561000f575f80fd5b50600436106100b2575f3560e01c80637e4e14cc1161006f5780637e4e14cc1461016a57806385d350f11461018857806386891422146101a6578063a631eb62146101ce578063eacc248b146101ec578063f260cd4c1461020a576100b2565b806316a0c5b5146100b657806324d02974146100d45780633814c856146100f2578063654a573c14610110578063719e96131461012e5780637a4c25711461014c575b5f80fd5b6100be610228565b6040516100cb919061037e565b60405180910390f35b6100dc61022e565b6040516100e991906103b2565b60405180910390f35b6100fa610240565b60405161010791906103e5565b60405180910390f35b610118610251565b6040516101259190610418565b60405180910390f35b610136610261565b604051610143919061044d565b60405180910390f35b610154610275565b604051610161919061047e565b60405180910390f35b61017261027b565b60405161017f919061047e565b60405180910390f35b610190610281565b60405161019d91906103b2565b60405180910390f35b6101ae610294565b6040516101c59b9a99989796959493929190610497565b60405180910390f35b6101d661033a565b6040516101e391906103e5565b60405180910390f35b6101f461034c565b604051610201919061037e565b60405180910390f35b610212610352565b60405161021f919061044d565b60405180910390f35b60015481565b60035f9054906101000a900460ff1681565b60065f9054906101000a90045f0b81565b5f8054906101000a900460ff1681565b600360029054906101000a900461ffff1681565b60045481565b60055481565b600360019054906101000a900460ff1681565b5f805f805f805f805f805f805f9054906101000a900460ff1660015460025460035f9054906101000a900460ff16600360019054906101000a900460ff16600360029054906101000a900461ffff16600360049054906101000a900461ffff1660045460055460065f9054906101000a90045f0b600660019054906101000a90045f0b9a509a509a509a509a509a509a509a509a509a509a50909192939495969798999a565b600660019054906101000a90045f0b81565b60025481565b600360049054906101000a900461ffff1681565b5f819050919050565b61037881610366565b82525050565b5f6020820190506103915f83018461036f565b92915050565b5f60ff82169050919050565b6103ac81610397565b82525050565b5f6020820190506103c55f8301846103a3565b92915050565b5f815f0b9050919050565b6103df816103cb565b82525050565b5f6020820190506103f85f8301846103d6565b92915050565b5f8115159050919050565b610412816103fe565b82525050565b5f60208201905061042b5f830184610409565b92915050565b5f61ffff82169050919050565b61044781610431565b82525050565b5f6020820190506104605f83018461043e565b92915050565b5f819050919050565b61047881610466565b82525050565b5f6020820190506104915f83018461046f565b92915050565b5f610160820190506104ab5f83018e610409565b6104b8602083018d61036f565b6104c5604083018c61036f565b6104d2606083018b6103a3565b6104df608083018a6103a3565b6104ec60a083018961043e565b6104f960c083018861043e565b61050660e083018761046f565b61051461010083018661046f565b6105226101208301856103d6565b6105306101408301846103d6565b9c9b50505050505050505050505056fea2646970667358221220e65a9f8f736aa74cae249f3264ad0e9ca976d22391643b2ac2205724664a6ea164736f6c634300081a0033",
					"opcodes": "PUSH1 0x80 PUSH1 0x40 MSTORE PUSH1 0x1 PUSH0 DUP1 PUSH2 0x100 EXP DUP2 SLOAD DUP2 PUSH1 0xFF MUL NOT AND SWAP1 DUP4 ISZERO ISZERO MUL OR SWAP1 SSTORE POP PUSH32 0xFFFFFFFFFFFFFFFFFFFFFFFFFFFFFFFFFFFFFFFFFFFFFFFFFFFFFFFFFFFFFFFF PUSH1 0x1 SSTORE PUSH0 PUSH1 0x2 SSTORE PUSH1 0xFF PUSH1 0x3 PUSH0 PUSH2 0x100 EXP DUP2 SLOAD DUP2 PUSH1 0xFF MUL NOT AND SWAP1 DUP4 PUSH1 0xFF AND MUL OR SWAP1 SSTORE POP PUSH0 PUSH1 0x3 PUSH1 0x1 PUSH2 0x100 EXP DUP2 SLOAD DUP2 PUSH1 0xFF MUL NOT AND SWAP1 DUP4 PUSH1 0xFF AND MUL OR SWAP1 SSTORE POP PUSH2 0xFFFF PUSH1 0x3 PUSH1 0x2 PUSH2 0x100 EXP DUP2 SLOAD DUP2 PUSH2 0xFFFF MUL NOT AND SWAP1 DUP4 PUSH2 0xFFFF AND MUL OR SWAP1 SSTORE POP PUSH0 PUSH1 0x3 PUSH1 0x4 PUSH2 0x100 EXP DUP2 SLOAD DUP2 PUSH2 0xFFFF MUL NOT AND SWAP1 DUP4 PUSH2 0xFFFF AND MUL OR SWAP1 SSTORE POP PUSH32 0x7FFFFFFFFFFFFFFFFFFFFFFFFFFFFFFFFFFFFFFFFFFFFFFFFFFFFFFFFFFFFFFF PUSH1 0x4 SSTORE PUSH32 0x8000000000000000000000000000000000000000000000000000000000000000 PUSH1 0x5 SSTORE PUSH1 0x7F PUSH1 0x6 PUSH0 PUSH2 0x100 EXP DUP2 SLOAD DUP2 PUSH1 0xFF MUL NOT AND SWAP1 DUP4 PUSH0 SIGNEXTEND PUSH1 0xFF AND MUL OR SWAP1 SSTORE POP PUSH32 0xFFFFFFFFFFFFFFFFFFFFFFFFFFFFFFFFFFFFFFFFFFFFFFFFFFFFFFFFFFFFFF80 PUSH1 0x6 PUSH1 0x1 PUSH2 0x100 EXP DUP2 SLOAD DUP2 PUSH1 0xFF MUL NOT AND SWAP1 DUP4 PUSH0 SIGNEXTEND PUSH1 0xFF AND MUL OR SWAP1 SSTORE POP CALLVALUE DUP1 ISZERO PUSH2 0x164 JUMPI PUSH0 DUP1 REVERT JUMPDEST POP PUSH2 0x576 DUP1 PUSH2 0x172 PUSH0 CODECOPY PUSH0 RETURN INVALID PUSH1 0x80 PUSH1 0x40 MSTORE CALLVALUE DUP1 ISZERO PUSH2 0xF JUMPI PUSH0 DUP1 REVERT JUMPDEST POP PUSH1 0x4 CALLDATASIZE LT PUSH2 0xB2 JUMPI PUSH0 CALLDATALOAD PUSH1 0xE0 SHR DUP1 PUSH4 0x7E4E14CC GT PUSH2 0x6F JUMPI DUP1 PUSH4 0x7E4E14CC EQ PUSH2 0x16A JUMPI DUP1 PUSH4 0x85D350F1 EQ PUSH2 0x188 JUMPI DUP1 PUSH4 0x86891422 EQ PUSH2 0x1A6 JUMPI DUP1 PUSH4 0xA631EB62 EQ PUSH2 0x1CE JUMPI DUP1 PUSH4 0xEACC248B EQ PUSH2 0x1EC JUMPI DUP1 PUSH4 0xF260CD4C EQ PUSH2 0x20A JUMPI PUSH2 0xB2 JUMP JUMPDEST DUP1 PUSH4 0x16A0C5B5 EQ PUSH2 0xB6 JUMPI DUP1 PUSH4 0x24D02974 EQ PUSH2 0xD4 JUMPI DUP1 PUSH4 0x3814C856 EQ PUSH2 0xF2 JUMPI DUP1 PUSH4 0x654A573C EQ PUSH2 0x110 JUMPI DUP1 PUSH4 0x719E9613 EQ PUSH2 0x12E JUMPI DUP1 PUSH4 0x7A4C2571 EQ PUSH2 0x14C JUMPI JUMPDEST PUSH0 DUP1 REVERT JUMPDEST PUSH2 0xBE PUSH2 0x228 JUMP JUMPDEST PUSH1 0x40 MLOAD PUSH2 0xCB SWAP2 SWAP1 PUSH2 0x37E JUMP JUMPDEST PUSH1 0x40 MLOAD DUP1 SWAP2 SUB SWAP1 RETURN JUMPDEST PUSH2 0xDC PUSH2 0x22E JUMP JUMPDEST PUSH1 0x40 MLOAD PUSH2 0xE9 SWAP2 SWAP1 PUSH2 0x3B2 JUMP JUMPDEST PUSH1 0x40 MLOAD DUP1 SWAP2 SUB SWAP1 RETURN JUMPDEST PUSH2 0xFA PUSH2 0x240 JUMP JUMPDEST PUSH1 0x40 MLOAD PUSH2 0x107 SWAP2 SWAP1 PUSH2 0x3E5 JUMP JUMPDEST PUSH1 0x40 MLOAD DUP1 SWAP2 SUB SWAP1 RETURN JUMPDEST PUSH2 0x118 PUSH2 0x251 JUMP JUMPDEST PUSH1 0x40 MLOAD PUSH2 0x125 SWAP2 SWAP1 PUSH2 0x418 JUMP JUMPDEST PUSH1 0x40 MLOAD DUP1 SWAP2 SUB SWAP1 RETURN JUMPDEST PUSH2 0x136 PUSH2 0x261 JUMP JUMPDEST PUSH1 0x40 MLOAD PUSH2 0x143 SWAP2 SWAP1 PUSH2 0x44D JUMP JUMPDEST PUSH1 0x40 MLOAD DUP1 SWAP2 SUB SWAP1 RETURN JUMPDEST PUSH2 0x154 PUSH2 0x275 JUMP JUMPDEST PUSH1 0x40 MLOAD PUSH2 0x161 SWAP2 SWAP1 PUSH2 0x47E JUMP JUMPDEST PUSH1 0x40 MLOAD DUP1 SWAP2 SUB SWAP1 RETURN JUMPDEST PUSH2 0x172 PUSH2 0x27B JUMP JUMPDEST PUSH1 0x40 MLOAD PUSH2 0x17F SWAP2 SWAP1 PUSH2 0x47E JUMP JUMPDEST PUSH1 0x40 MLOAD DUP1 SWAP2 SUB SWAP1 RETURN JUMPDEST PUSH2 0x190 PUSH2 0x281 JUMP JUMPDEST PUSH1 0x40 MLOAD PUSH2 0x19D SWAP2 SWAP1 PUSH2 0x3B2 JUMP JUMPDEST PUSH1 0x40 MLOAD DUP1 SWAP2 SUB SWAP1 RETURN JUMPDEST PUSH2 0x1AE PUSH2 0x294 JUMP JUMPDEST PUSH1 0x40 MLOAD PUSH2 0x1C5 SWAP12 SWAP11 SWAP10 SWAP9 SWAP8 SWAP7 SWAP6 SWAP5 SWAP4 SWAP3 SWAP2 SWAP1 PUSH2 0x497 JUMP JUMPDEST PUSH1 0x40 MLOAD DUP1 SWAP2 SUB SWAP1 RETURN JUMPDEST PUSH2 0x1D6 PUSH2 0x33A JUMP JUMPDEST PUSH1 0x40 MLOAD PUSH2 0x1E3 SWAP2 SWAP1 PUSH2 0x3E5 JUMP JUMPDEST PUSH1 0x40 MLOAD DUP1 SWAP2 SUB SWAP1 RETURN JUMPDEST PUSH2 0x1F4 PUSH2 0x34C JUMP JUMPDEST PUSH1 0x40 MLOAD PUSH2 0x201 SWAP2 SWAP1 PUSH2 0x37E JUMP JUMPDEST PUSH1 0x40 MLOAD DUP1 SWAP2 SUB SWAP1 RETURN JUMPDEST PUSH2 0x212 PUSH2 0x352 JUMP JUMPDEST PUSH1 0x40 MLOAD PUSH2 0x21F SWAP2 SWAP1 PUSH2 0x44D JUMP JUMPDEST PUSH1 0x40 MLOAD DUP1 SWAP2 SUB SWAP1 RETURN JUMPDEST PUSH1 0x1 SLOAD DUP2 JUMP JUMPDEST PUSH1 0x3 PUSH0 SWAP1 SLOAD SWAP1 PUSH2 0x100 EXP SWAP1 DIV PUSH1 0xFF AND DUP2 JUMP JUMPDEST PUSH1 0x6 PUSH0 SWAP1 SLOAD SWAP1 PUSH2 0x100 EXP SWAP1 DIV PUSH0 SIGNEXTEND DUP2 JUMP JUMPDEST PUSH0 DUP1 SLOAD SWAP1 PUSH2 0x100 EXP SWAP1 DIV PUSH1 0xFF AND DUP2 JUMP JUMPDEST PUSH1 0x3 PUSH1 0x2 SWAP1 SLOAD SWAP1 PUSH2 0x100 EXP SWAP1 DIV PUSH2 0xFFFF AND DUP2 JUMP JUMPDEST PUSH1 0x4 SLOAD DUP2 JUMP JUMPDEST PUSH1 0x5 SLOAD DUP2 JUMP JUMPDEST PUSH1 0x3 PUSH1 0x1 SWAP1 SLOAD SWAP1 PUSH2 0x100 EXP SWAP1 DIV PUSH1 0xFF AND DUP2 JUMP JUMPDEST PUSH0 DUP1 PUSH0 DUP1 PUSH0 DUP1 PUSH0 DUP1 PUSH0 DUP1 PUSH0 DUP1 PUSH0 SWAP1 SLOAD SWAP1 PUSH2 0x100 EXP SWAP1 DIV PUSH1 0xFF AND PUSH1 0x1 SLOAD PUSH1 0x2 SLOAD PUSH1 0x3 PUSH0 SWAP1 SLOAD SWAP1 PUSH2 0x100 EXP SWAP1 DIV PUSH1 0xFF AND PUSH1 0x3 PUSH1 0x1 SWAP1 SLOAD SWAP1 PUSH2 0x100 EXP SWAP1 DIV PUSH1 0xFF AND PUSH1 0x3 PUSH1 0x2 SWAP1 SLOAD SWAP1 PUSH2 0x100 EXP SWAP1 DIV PUSH2 0xFFFF AND PUSH1 0x3 PUSH1 0x4 SWAP1 SLOAD SWAP1 PUSH2 0x100 EXP SWAP1 DIV PUSH2 0xFFFF AND PUSH1 0x4 SLOAD PUSH1 0x5 SLOAD PUSH1 0x6 PUSH0 SWAP1 SLOAD SWAP1 PUSH2 0x100 EXP SWAP1 DIV PUSH0 SIGNEXTEND PUSH1 0x6 PUSH1 0x1 SWAP1 SLOAD SWAP1 PUSH2 0x100 EXP SWAP1 DIV PUSH0 SIGNEXTEND SWAP11 POP SWAP11 POP SWAP11 POP SWAP11 POP SWAP11 POP SWAP11 POP SWAP11 POP SWAP11 POP SWAP11 POP SWAP11 POP SWAP11 POP SWAP1 SWAP2 SWAP3 SWAP4 SWAP5 SWAP6 SWAP7 SWAP8 SWAP9 SWAP10 SWAP11 JUMP JUMPDEST PUSH1 0x6 PUSH1 0x1 SWAP1 SLOAD SWAP1 PUSH2 0x100 EXP SWAP1 DIV PUSH0 SIGNEXTEND DUP2 JUMP JUMPDEST PUSH1 0x2 SLOAD DUP2 JUMP JUMPDEST PUSH1 0x3 PUSH1 0x4 SWAP1 SLOAD SWAP1 PUSH2 0x100 EXP SWAP1 DIV PUSH2 0xFFFF AND DUP2 JUMP JUMPDEST PUSH0 DUP2 SWAP1 POP SWAP2 SWAP1 POP JUMP JUMPDEST PUSH2 0x378 DUP2 PUSH2 0x366 JUMP JUMPDEST DUP3 MSTORE POP POP JUMP JUMPDEST PUSH0 PUSH1 0x20 DUP3 ADD SWAP1 POP PUSH2 0x391 PUSH0 DUP4 ADD DUP5 PUSH2 0x36F JUMP JUMPDEST SWAP3 SWAP2 POP POP JUMP JUMPDEST PUSH0 PUSH1 0xFF DUP3 AND SWAP1 POP SWAP2 SWAP1 POP JUMP JUMPDEST PUSH2 0x3AC DUP2 PUSH2 0x397 JUMP JUMPDEST DUP3 MSTORE POP POP JUMP JUMPDEST PUSH0 PUSH1 0x20 DUP3 ADD SWAP1 POP PUSH2 0x3C5 PUSH0 DUP4 ADD DUP5 PUSH2 0x3A3 JUMP JUMPDEST SWAP3 SWAP2 POP POP JUMP JUMPDEST PUSH0 DUP2 PUSH0 SIGNEXTEND SWAP1 POP SWAP2 SWAP1 POP JUMP JUMPDEST PUSH2 0x3DF DUP2 PUSH2 0x3CB JUMP JUMPDEST DUP3 MSTORE POP POP JUMP JUMPDEST PUSH0 PUSH1 0x20 DUP3 ADD SWAP1 POP PUSH2 0x3F8 PUSH0 DUP4 ADD DUP5 PUSH2 0x3D6 JUMP JUMPDEST SWAP3 SWAP2 POP POP JUMP JUMPDEST PUSH0 DUP2 ISZERO ISZERO SWAP1 POP SWAP2 SWAP1 POP JUMP JUMPDEST PUSH2 0x412 DUP2 PUSH2 0x3FE JUMP JUMPDEST DUP3 MSTORE POP POP JUMP JUMPDEST PUSH0 PUSH1 0x20 DUP3 ADD SWAP1 POP PUSH2 0x42B PUSH0 DUP4 ADD DUP5 PUSH2 0x409 JUMP JUMPDEST SWAP3 SWAP2 POP POP JUMP JUMPDEST PUSH0 PUSH2 0xFFFF DUP3 AND SWAP1 POP SWAP2 SWAP1 POP JUMP JUMPDEST PUSH2 0x447 DUP2 PUSH2 0x431 JUMP JUMPDEST DUP3 MSTORE POP POP JUMP JUMPDEST PUSH0 PUSH1 0x20 DUP3 ADD SWAP1 POP PUSH2 0x460 PUSH0 DUP4 ADD DUP5 PUSH2 0x43E JUMP JUMPDEST SWAP3 SWAP2 POP POP JUMP JUMPDEST PUSH0 DUP2 SWAP1 POP SWAP2 SWAP1 POP JUMP JUMPDEST PUSH2 0x478 DUP2 PUSH2 0x466 JUMP JUMPDEST DUP3 MSTORE POP POP JUMP JUMPDEST PUSH0 PUSH1 0x20 DUP3 ADD SWAP1 POP PUSH2 0x491 PUSH0 DUP4 ADD DUP5 PUSH2 0x46F JUMP JUMPDEST SWAP3 SWAP2 POP POP JUMP JUMPDEST PUSH0 PUSH2 0x160 DUP3 ADD SWAP1 POP PUSH2 0x4AB PUSH0 DUP4 ADD DUP15 PUSH2 0x409 JUMP JUMPDEST PUSH2 0x4B8 PUSH1 0x20 DUP4 ADD DUP14 PUSH2 0x36F JUMP JUMPDEST PUSH2 0x4C5 PUSH1 0x40 DUP4 ADD DUP13 PUSH2 0x36F JUMP JUMPDEST PUSH2 0x4D2 PUSH1 0x60 DUP4 ADD DUP12 PUSH2 0x3A3 JUMP JUMPDEST PUSH2 0x4DF PUSH1 0x80 DUP4 ADD DUP11 PUSH2 0x3A3 JUMP JUMPDEST PUSH2 0x4EC PUSH1 0xA0 DUP4 ADD DUP10 PUSH2 0x43E JUMP JUMPDEST PUSH2 0x4F9 PUSH1 0xC0 DUP4 ADD DUP9 PUSH2 0x43E JUMP JUMPDEST PUSH2 0x506 PUSH1 0xE0 DUP4 ADD DUP8 PUSH2 0x46F JUMP JUMPDEST PUSH2 0x514 PUSH2 0x100 DUP4 ADD DUP7 PUSH2 0x46F JUMP JUMPDEST PUSH2 0x522 PUSH2 0x120 DUP4 ADD DUP6 PUSH2 0x3D6 JUMP JUMPDEST PUSH2 0x530 PUSH2 0x140 DUP4 ADD DUP5 PUSH2 0x3D6 JUMP JUMPDEST SWAP13 SWAP12 POP POP POP POP POP POP POP POP POP POP POP POP JUMP INVALID LOG2 PUSH5 0x6970667358 0x22 SLT KECCAK256 0xE6 GAS SWAP16 DUP16 PUSH20 0x6AA74CAE249F3264AD0E9CA976D22391643B2AC2 KECCAK256 JUMPI 0x24 PUSH7 0x4A6EA164736F6C PUSH4 0x4300081A STOP CALLER "
				},
				"gasEstimates": {
					"creation": {
						"codeDepositCost": "279600",
						"executionCost": "241717",
						"totalCost": "521317"
					},
					"external": {
						"getGlobalValue()": "infinite",
						"isMale()": "2530",
						"maxInt()": "2536",
						"maxInt8()": "2513",
						"maxUint()": "2426",
						"maxUint16()": "2606",
						"maxUint8()": "2489",
						"minInt()": "2425",
						"minInt8()": "2585",
						"minUint()": "2513",
						"minUint16()": "2627",
						"minUint8()": "2539"
					}
				},
				"methodIdentifiers": {
					"getGlobalValue()": "86891422",
					"isMale()": "654a573c",
					"maxInt()": "7a4c2571",
					"maxInt8()": "3814c856",
					"maxUint()": "16a0c5b5",
					"maxUint16()": "719e9613",
					"maxUint8()": "24d02974",
					"minInt()": "7e4e14cc",
					"minInt8()": "a631eb62",
					"minUint()": "eacc248b",
					"minUint16()": "f260cd4c",
					"minUint8()": "85d350f1"
				}
			},
			"storageLayout": {
				"storage": [
					{
						"astId": 4,
						"contract": "DataType.sol:DataTypes",
						"label": "isMale",
						"offset": 0,
						"slot": "0",
						"type": "t_bool"
					},
					{
						"astId": 11,
						"contract": "DataType.sol:DataTypes",
						"label": "maxUint",
						"offset": 0,
						"slot": "1",
						"type": "t_uint256"
					},
					{
						"astId": 18,
						"contract": "DataType.sol:DataTypes",
						"label": "minUint",
						"offset": 0,
						"slot": "2",
						"type": "t_uint256"
					},
					{
						"astId": 25,
						"contract": "DataType.sol:DataTypes",
						"label": "maxUint8",
						"offset": 0,
						"slot": "3",
						"type": "t_uint8"
					},
					{
						"astId": 32,
						"contract": "DataType.sol:DataTypes",
						"label": "minUint8",
						"offset": 1,
						"slot": "3",
						"type": "t_uint8"
					},
					{
						"astId": 39,
						"contract": "DataType.sol:DataTypes",
						"label": "maxUint16",
						"offset": 2,
						"slot": "3",
						"type": "t_uint16"
					},
					{
						"astId": 46,
						"contract": "DataType.sol:DataTypes",
						"label": "minUint16",
						"offset": 4,
						"slot": "3",
						"type": "t_uint16"
					},
					{
						"astId": 53,
						"contract": "DataType.sol:DataTypes",
						"label": "maxInt",
						"offset": 0,
						"slot": "4",
						"type": "t_int256"
					},
					{
						"astId": 60,
						"contract": "DataType.sol:DataTypes",
						"label": "minInt",
						"offset": 0,
						"slot": "5",
						"type": "t_int256"
					},
					{
						"astId": 67,
						"contract": "DataType.sol:DataTypes",
						"label": "maxInt8",
						"offset": 0,
						"slot": "6",
						"type": "t_int8"
					},
					{
						"astId": 74,
						"contract": "DataType.sol:DataTypes",
						"label": "minInt8",
						"offset": 1,
						"slot": "6",
						"type": "t_int8"
					}
				],
				"types": {
					"t_bool": {
						"encoding": "inplace",
						"label": "bool",
						"numberOfBytes": "1"
					},
					"t_int256": {
						"encoding": "inplace",
						"label": "int256",
						"numberOfBytes": "32"
					},
					"t_int8": {
						"encoding": "inplace",
						"label": "int8",
						"numberOfBytes": "1"
					},
					"t_uint16": {
						"encoding": "inplace",
						"label": "uint16",
						"numberOfBytes": "2"
					},
					"t_uint256": {
						"encoding": "inplace",
						"label": "uint256",
						"numberOfBytes": "32"
					},
					"t_uint8": {
						"encoding": "inplace",
						"label": "uint8",
						"numberOfBytes": "1"
					}
				}
			},
			"userdoc": {
				"kind": "user",
				"methods": {},
				"version": 1
			}
		}
	}
}