{
	"tests/Sum.sol": {
		"SumArray": {
			"abi": [
				{
					"inputs": [
						{
							"internalType": "string",
							"name": "newElement",
							"type": "string"
						}
					],
					"name": "addElement",
					"outputs": [],
					"stateMutability": "nonpayable",
					"type": "function"
				},
				{
					"inputs": [
						{
							"internalType": "uint256",
							"name": "index",
							"type": "uint256"
						}
					],
					"name": "getElement",
					"outputs": [
						{
							"internalType": "string",
							"name": "",
							"type": "string"
						}
					],
					"stateMutability": "view",
					"type": "function"
				},
				{
					"inputs": [
						{
							"internalType": "uint256",
							"name": "",
							"type": "uint256"
						}
					],
					"name": "strings",
					"outputs": [
						{
							"internalType": "string",
							"name": "",
							"type": "string"
						}
					],
					"stateMutability": "view",
					"type": "function"
				},
				{
					"inputs": [
						{
							"internalType": "int256[]",
							"name": "arr",
							"type": "int256[]"
						}
					],
					"name": "sumOfArray",
					"outputs": [
						{
							"internalType": "int256",
							"name": "",
							"type": "int256"
						}
					],
					"stateMutability": "pure",
					"type": "function"
				}
			],
			"devdoc": {
				"kind": "dev",
				"methods": {},
				"version": 1
			},
			"evm": {
				"assembly": "    /* \"tests/Sum.sol\":57:803  contract SumArray {... */\n  mstore(0x40, 0x80)\n  callvalue\n  dup1\n  iszero\n  tag_1\n  jumpi\n  0x00\n  dup1\n  revert\ntag_1:\n  pop\n  dataSize(sub_0)\n  dup1\n  dataOffset(sub_0)\n  0x00\n  codecopy\n  0x00\n  return\nstop\n\nsub_0: assembly {\n        /* \"tests/Sum.sol\":57:803  contract SumArray {... */\n      mstore(0x40, 0x80)\n      callvalue\n      dup1\n      iszero\n      tag_1\n      jumpi\n      0x00\n      dup1\n      revert\n    tag_1:\n      pop\n      jumpi(tag_2, lt(calldatasize, 0x04))\n      shr(0xe0, calldataload(0x00))\n      dup1\n      0x1103e269\n      eq\n      tag_3\n      jumpi\n      dup1\n      0x3a7d22bc\n      eq\n      tag_4\n      jumpi\n      dup1\n      0x75789f01\n      eq\n      tag_5\n      jumpi\n      dup1\n      0x8b3c8a65\n      eq\n      tag_6\n      jumpi\n    tag_2:\n      0x00\n      dup1\n      revert\n        /* \"tests/Sum.sol\":146:342  function sumOfArray(int[] memory arr) public pure returns (int) {... */\n    tag_3:\n      tag_7\n      0x04\n      dup1\n      calldatasize\n      sub\n      dup2\n      add\n      swap1\n      tag_8\n      swap2\n      swap1\n      tag_9\n      jump\t// in\n    tag_8:\n      tag_10\n      jump\t// in\n    tag_7:\n      mload(0x40)\n      tag_11\n      swap2\n      swap1\n      tag_12\n      jump\t// in\n    tag_11:\n      mload(0x40)\n      dup1\n      swap2\n      sub\n      swap1\n      return\n        /* \"tests/Sum.sol\":630:800  function getElement(uint index) public view returns (string memory) {... */\n    tag_4:\n      tag_13\n      0x04\n      dup1\n      calldatasize\n      sub\n      dup2\n      add\n      swap1\n      tag_14\n      swap2\n      swap1\n      tag_15\n      jump\t// in\n    tag_14:\n      tag_16\n      jump\t// in\n    tag_13:\n      mload(0x40)\n      tag_17\n      swap2\n      swap1\n      tag_18\n      jump\t// in\n    tag_17:\n      mload(0x40)\n      dup1\n      swap2\n      sub\n      swap1\n      return\n        /* \"tests/Sum.sol\":471:565  function addElement(string memory newElement) public {... */\n    tag_5:\n      tag_19\n      0x04\n      dup1\n      calldatasize\n      sub\n      dup2\n      add\n      swap1\n      tag_20\n      swap2\n      swap1\n      tag_21\n      jump\t// in\n    tag_20:\n      tag_22\n      jump\t// in\n    tag_19:\n      stop\n        /* \"tests/Sum.sol\":394:417  string[] public strings */\n    tag_6:\n      tag_23\n      0x04\n      dup1\n      calldatasize\n      sub\n      dup2\n      add\n      swap1\n      tag_24\n      swap2\n      swap1\n      tag_15\n      jump\t// in\n    tag_24:\n      tag_25\n      jump\t// in\n    tag_23:\n      mload(0x40)\n      tag_26\n      swap2\n      swap1\n      tag_18\n      jump\t// in\n    tag_26:\n      mload(0x40)\n      dup1\n      swap2\n      sub\n      swap1\n      return\n        /* \"tests/Sum.sol\":146:342  function sumOfArray(int[] memory arr) public pure returns (int) {... */\n    tag_10:\n        /* \"tests/Sum.sol\":205:208  int */\n      0x00\n        /* \"tests/Sum.sol\":220:227  int sum */\n      dup1\n        /* \"tests/Sum.sol\":230:231  0 */\n      0x00\n        /* \"tests/Sum.sol\":220:231  int sum = 0 */\n      swap1\n      pop\n        /* \"tests/Sum.sol\":245:251  uint i */\n      0x00\n        /* \"tests/Sum.sol\":241:316  for(uint i = 0; i < arr.length; i++) {... */\n    tag_28:\n        /* \"tests/Sum.sol\":261:264  arr */\n      dup4\n        /* \"tests/Sum.sol\":261:271  arr.length */\n      mload\n        /* \"tests/Sum.sol\":257:258  i */\n      dup2\n        /* \"tests/Sum.sol\":257:271  i < arr.length */\n      lt\n        /* \"tests/Sum.sol\":241:316  for(uint i = 0; i < arr.length; i++) {... */\n      iszero\n      tag_29\n      jumpi\n        /* \"tests/Sum.sol\":299:302  arr */\n      dup4\n        /* \"tests/Sum.sol\":303:304  i */\n      dup2\n        /* \"tests/Sum.sol\":299:305  arr[i] */\n      dup2\n      mload\n      dup2\n      lt\n      tag_31\n      jumpi\n      tag_32\n      tag_33\n      jump\t// in\n    tag_32:\n    tag_31:\n      0x20\n      mul\n      0x20\n      add\n      add\n      mload\n        /* \"tests/Sum.sol\":292:305  sum += arr[i] */\n      dup3\n      tag_34\n      swap2\n      swap1\n      tag_35\n      jump\t// in\n    tag_34:\n      swap2\n      pop\n        /* \"tests/Sum.sol\":273:276  i++ */\n      dup1\n      dup1\n      0x01\n      add\n      swap2\n      pop\n      pop\n        /* \"tests/Sum.sol\":241:316  for(uint i = 0; i < arr.length; i++) {... */\n      jump(tag_28)\n    tag_29:\n      pop\n        /* \"tests/Sum.sol\":332:335  sum */\n      dup1\n        /* \"tests/Sum.sol\":325:335  return sum */\n      swap2\n      pop\n      pop\n        /* \"tests/Sum.sol\":146:342  function sumOfArray(int[] memory arr) public pure returns (int) {... */\n      swap2\n      swap1\n      pop\n      jump\t// out\n        /* \"tests/Sum.sol\":630:800  function getElement(uint index) public view returns (string memory) {... */\n    tag_16:\n        /* \"tests/Sum.sol\":683:696  string memory */\n      0x60\n        /* \"tests/Sum.sol\":724:731  strings */\n      0x00\n        /* \"tests/Sum.sol\":724:738  strings.length */\n      dup1\n      sload\n      swap1\n      pop\n        /* \"tests/Sum.sol\":716:721  index */\n      dup3\n        /* \"tests/Sum.sol\":716:738  index < strings.length */\n      lt\n        /* \"tests/Sum.sol\":708:762  require(index < strings.length, \"Index out of bounds\") */\n      tag_37\n      jumpi\n      mload(0x40)\n      0x08c379a000000000000000000000000000000000000000000000000000000000\n      dup2\n      mstore\n      0x04\n      add\n      tag_38\n      swap1\n      tag_39\n      jump\t// in\n    tag_38:\n      mload(0x40)\n      dup1\n      swap2\n      sub\n      swap1\n      revert\n    tag_37:\n        /* \"tests/Sum.sol\":779:786  strings */\n      0x00\n        /* \"tests/Sum.sol\":787:792  index */\n      dup3\n        /* \"tests/Sum.sol\":779:793  strings[index] */\n      dup2\n      sload\n      dup2\n      lt\n      tag_40\n      jumpi\n      tag_41\n      tag_33\n      jump\t// in\n    tag_41:\n    tag_40:\n      swap1\n      0x00\n      mstore\n      keccak256(0x00, 0x20)\n      add\n        /* \"tests/Sum.sol\":772:793  return strings[index] */\n      dup1\n      sload\n      tag_43\n      swap1\n      tag_44\n      jump\t// in\n    tag_43:\n      dup1\n      0x1f\n      add\n      0x20\n      dup1\n      swap2\n      div\n      mul\n      0x20\n      add\n      mload(0x40)\n      swap1\n      dup2\n      add\n      0x40\n      mstore\n      dup1\n      swap3\n      swap2\n      swap1\n      dup2\n      dup2\n      mstore\n      0x20\n      add\n      dup3\n      dup1\n      sload\n      tag_45\n      swap1\n      tag_44\n      jump\t// in\n    tag_45:\n      dup1\n      iszero\n      tag_46\n      jumpi\n      dup1\n      0x1f\n      lt\n      tag_47\n      jumpi\n      0x0100\n      dup1\n      dup4\n      sload\n      div\n      mul\n      dup4\n      mstore\n      swap2\n      0x20\n      add\n      swap2\n      jump(tag_46)\n    tag_47:\n      dup3\n      add\n      swap2\n      swap1\n      0x00\n      mstore\n      keccak256(0x00, 0x20)\n      swap1\n    tag_48:\n      dup2\n      sload\n      dup2\n      mstore\n      swap1\n      0x01\n      add\n      swap1\n      0x20\n      add\n      dup1\n      dup4\n      gt\n      tag_48\n      jumpi\n      dup3\n      swap1\n      sub\n      0x1f\n      and\n      dup3\n      add\n      swap2\n    tag_46:\n      pop\n      pop\n      pop\n      pop\n      pop\n      swap1\n      pop\n        /* \"tests/Sum.sol\":630:800  function getElement(uint index) public view returns (string memory) {... */\n      swap2\n      swap1\n      pop\n      jump\t// out\n        /* \"tests/Sum.sol\":471:565  function addElement(string memory newElement) public {... */\n    tag_22:\n        /* \"tests/Sum.sol\":534:541  strings */\n      0x00\n        /* \"tests/Sum.sol\":547:557  newElement */\n      dup2\n        /* \"tests/Sum.sol\":534:558  strings.push(newElement) */\n      swap1\n      dup1\n      0x01\n      dup2\n      sload\n      add\n      dup1\n      dup3\n      sstore\n      dup1\n      swap2\n      pop\n      pop\n      0x01\n      swap1\n      sub\n      swap1\n      0x00\n      mstore\n      keccak256(0x00, 0x20)\n      add\n      0x00\n      swap1\n      swap2\n      swap1\n      swap2\n      swap1\n      swap2\n      pop\n      swap1\n      dup2\n      tag_51\n      swap2\n      swap1\n      tag_52\n      jump\t// in\n    tag_51:\n      pop\n        /* \"tests/Sum.sol\":471:565  function addElement(string memory newElement) public {... */\n      pop\n      jump\t// out\n        /* \"tests/Sum.sol\":394:417  string[] public strings */\n    tag_25:\n      0x00\n      dup2\n      dup2\n      sload\n      dup2\n      lt\n      tag_53\n      jumpi\n      0x00\n      dup1\n      revert\n    tag_53:\n      swap1\n      0x00\n      mstore\n      keccak256(0x00, 0x20)\n      add\n      0x00\n      swap2\n      pop\n      swap1\n      pop\n      dup1\n      sload\n      tag_55\n      swap1\n      tag_44\n      jump\t// in\n    tag_55:\n      dup1\n      0x1f\n      add\n      0x20\n      dup1\n      swap2\n      div\n      mul\n      0x20\n      add\n      mload(0x40)\n      swap1\n      dup2\n      add\n      0x40\n      mstore\n      dup1\n      swap3\n      swap2\n      swap1\n      dup2\n      dup2\n      mstore\n      0x20\n      add\n      dup3\n      dup1\n      sload\n      tag_56\n      swap1\n      tag_44\n      jump\t// in\n    tag_56:\n      dup1\n      iszero\n      tag_57\n      jumpi\n      dup1\n      0x1f\n      lt\n      tag_58\n      jumpi\n      0x0100\n      dup1\n      dup4\n      sload\n      div\n      mul\n      dup4\n      mstore\n      swap2\n      0x20\n      add\n      swap2\n      jump(tag_57)\n    tag_58:\n      dup3\n      add\n      swap2\n      swap1\n      0x00\n      mstore\n      keccak256(0x00, 0x20)\n      swap1\n    tag_59:\n      dup2\n      sload\n      dup2\n      mstore\n      swap1\n      0x01\n      add\n      swap1\n      0x20\n      add\n      dup1\n      dup4\n      gt\n      tag_59\n      jumpi\n      dup3\n      swap1\n      sub\n      0x1f\n      and\n      dup3\n      add\n      swap2\n    tag_57:\n      pop\n      pop\n      pop\n      pop\n      pop\n      dup2\n      jump\t// out\n        /* \"#utility.yul\":7:82   */\n    tag_60:\n        /* \"#utility.yul\":40:46   */\n      0x00\n        /* \"#utility.yul\":73:75   */\n      0x40\n        /* \"#utility.yul\":67:76   */\n      mload\n        /* \"#utility.yul\":57:76   */\n      swap1\n      pop\n        /* \"#utility.yul\":7:82   */\n      swap1\n      jump\t// out\n        /* \"#utility.yul\":88:205   */\n    tag_61:\n        /* \"#utility.yul\":197:198   */\n      0x00\n        /* \"#utility.yul\":194:195   */\n      dup1\n        /* \"#utility.yul\":187:199   */\n      revert\n        /* \"#utility.yul\":211:328   */\n    tag_62:\n        /* \"#utility.yul\":320:321   */\n      0x00\n        /* \"#utility.yul\":317:318   */\n      dup1\n        /* \"#utility.yul\":310:322   */\n      revert\n        /* \"#utility.yul\":334:451   */\n    tag_63:\n        /* \"#utility.yul\":443:444   */\n      0x00\n        /* \"#utility.yul\":440:441   */\n      dup1\n        /* \"#utility.yul\":433:445   */\n      revert\n        /* \"#utility.yul\":457:559   */\n    tag_64:\n        /* \"#utility.yul\":498:504   */\n      0x00\n        /* \"#utility.yul\":549:551   */\n      0x1f\n        /* \"#utility.yul\":545:552   */\n      not\n        /* \"#utility.yul\":540:542   */\n      0x1f\n        /* \"#utility.yul\":533:538   */\n      dup4\n        /* \"#utility.yul\":529:543   */\n      add\n        /* \"#utility.yul\":525:553   */\n      and\n        /* \"#utility.yul\":515:553   */\n      swap1\n      pop\n        /* \"#utility.yul\":457:559   */\n      swap2\n      swap1\n      pop\n      jump\t// out\n        /* \"#utility.yul\":565:745   */\n    tag_65:\n        /* \"#utility.yul\":613:690   */\n      0x4e487b7100000000000000000000000000000000000000000000000000000000\n        /* \"#utility.yul\":610:611   */\n      0x00\n        /* \"#utility.yul\":603:691   */\n      mstore\n        /* \"#utility.yul\":710:714   */\n      0x41\n        /* \"#utility.yul\":707:708   */\n      0x04\n        /* \"#utility.yul\":700:715   */\n      mstore\n        /* \"#utility.yul\":734:738   */\n      0x24\n        /* \"#utility.yul\":731:732   */\n      0x00\n        /* \"#utility.yul\":724:739   */\n      revert\n        /* \"#utility.yul\":751:1032   */\n    tag_66:\n        /* \"#utility.yul\":834:861   */\n      tag_115\n        /* \"#utility.yul\":856:860   */\n      dup3\n        /* \"#utility.yul\":834:861   */\n      tag_64\n      jump\t// in\n    tag_115:\n        /* \"#utility.yul\":826:832   */\n      dup2\n        /* \"#utility.yul\":822:862   */\n      add\n        /* \"#utility.yul\":964:970   */\n      dup2\n        /* \"#utility.yul\":952:962   */\n      dup2\n        /* \"#utility.yul\":949:971   */\n      lt\n        /* \"#utility.yul\":928:946   */\n      0xffffffffffffffff\n        /* \"#utility.yul\":916:926   */\n      dup3\n        /* \"#utility.yul\":913:947   */\n      gt\n        /* \"#utility.yul\":910:972   */\n      or\n        /* \"#utility.yul\":907:995   */\n      iszero\n      tag_116\n      jumpi\n        /* \"#utility.yul\":975:993   */\n      tag_117\n      tag_65\n      jump\t// in\n    tag_117:\n        /* \"#utility.yul\":907:995   */\n    tag_116:\n        /* \"#utility.yul\":1015:1025   */\n      dup1\n        /* \"#utility.yul\":1011:1013   */\n      0x40\n        /* \"#utility.yul\":1004:1026   */\n      mstore\n        /* \"#utility.yul\":794:1032   */\n      pop\n        /* \"#utility.yul\":751:1032   */\n      pop\n      pop\n      jump\t// out\n        /* \"#utility.yul\":1038:1167   */\n    tag_67:\n        /* \"#utility.yul\":1072:1078   */\n      0x00\n        /* \"#utility.yul\":1099:1119   */\n      tag_119\n      tag_60\n      jump\t// in\n    tag_119:\n        /* \"#utility.yul\":1089:1119   */\n      swap1\n      pop\n        /* \"#utility.yul\":1128:1161   */\n      tag_120\n        /* \"#utility.yul\":1156:1160   */\n      dup3\n        /* \"#utility.yul\":1148:1154   */\n      dup3\n        /* \"#utility.yul\":1128:1161   */\n      tag_66\n      jump\t// in\n    tag_120:\n        /* \"#utility.yul\":1038:1167   */\n      swap2\n      swap1\n      pop\n      jump\t// out\n        /* \"#utility.yul\":1173:1483   */\n    tag_68:\n        /* \"#utility.yul\":1249:1253   */\n      0x00\n        /* \"#utility.yul\":1339:1357   */\n      0xffffffffffffffff\n        /* \"#utility.yul\":1331:1337   */\n      dup3\n        /* \"#utility.yul\":1328:1358   */\n      gt\n        /* \"#utility.yul\":1325:1381   */\n      iszero\n      tag_122\n      jumpi\n        /* \"#utility.yul\":1361:1379   */\n      tag_123\n      tag_65\n      jump\t// in\n    tag_123:\n        /* \"#utility.yul\":1325:1381   */\n    tag_122:\n        /* \"#utility.yul\":1411:1415   */\n      0x20\n        /* \"#utility.yul\":1403:1409   */\n      dup3\n        /* \"#utility.yul\":1399:1416   */\n      mul\n        /* \"#utility.yul\":1391:1416   */\n      swap1\n      pop\n        /* \"#utility.yul\":1471:1475   */\n      0x20\n        /* \"#utility.yul\":1465:1469   */\n      dup2\n        /* \"#utility.yul\":1461:1476   */\n      add\n        /* \"#utility.yul\":1453:1476   */\n      swap1\n      pop\n        /* \"#utility.yul\":1173:1483   */\n      swap2\n      swap1\n      pop\n      jump\t// out\n        /* \"#utility.yul\":1489:1606   */\n    tag_69:\n        /* \"#utility.yul\":1598:1599   */\n      0x00\n        /* \"#utility.yul\":1595:1596   */\n      dup1\n        /* \"#utility.yul\":1588:1600   */\n      revert\n        /* \"#utility.yul\":1612:1688   */\n    tag_70:\n        /* \"#utility.yul\":1648:1655   */\n      0x00\n        /* \"#utility.yul\":1677:1682   */\n      dup2\n        /* \"#utility.yul\":1666:1682   */\n      swap1\n      pop\n        /* \"#utility.yul\":1612:1688   */\n      swap2\n      swap1\n      pop\n      jump\t// out\n        /* \"#utility.yul\":1694:1814   */\n    tag_71:\n        /* \"#utility.yul\":1766:1789   */\n      tag_127\n        /* \"#utility.yul\":1783:1788   */\n      dup2\n        /* \"#utility.yul\":1766:1789   */\n      tag_70\n      jump\t// in\n    tag_127:\n        /* \"#utility.yul\":1759:1764   */\n      dup2\n        /* \"#utility.yul\":1756:1790   */\n      eq\n        /* \"#utility.yul\":1746:1808   */\n      tag_128\n      jumpi\n        /* \"#utility.yul\":1804:1805   */\n      0x00\n        /* \"#utility.yul\":1801:1802   */\n      dup1\n        /* \"#utility.yul\":1794:1806   */\n      revert\n        /* \"#utility.yul\":1746:1808   */\n    tag_128:\n        /* \"#utility.yul\":1694:1814   */\n      pop\n      jump\t// out\n        /* \"#utility.yul\":1820:1957   */\n    tag_72:\n        /* \"#utility.yul\":1865:1870   */\n      0x00\n        /* \"#utility.yul\":1903:1909   */\n      dup2\n        /* \"#utility.yul\":1890:1910   */\n      calldataload\n        /* \"#utility.yul\":1881:1910   */\n      swap1\n      pop\n        /* \"#utility.yul\":1919:1951   */\n      tag_130\n        /* \"#utility.yul\":1945:1950   */\n      dup2\n        /* \"#utility.yul\":1919:1951   */\n      tag_71\n      jump\t// in\n    tag_130:\n        /* \"#utility.yul\":1820:1957   */\n      swap3\n      swap2\n      pop\n      pop\n      jump\t// out\n        /* \"#utility.yul\":1979:2686   */\n    tag_73:\n        /* \"#utility.yul\":2074:2079   */\n      0x00\n        /* \"#utility.yul\":2099:2179   */\n      tag_132\n        /* \"#utility.yul\":2115:2178   */\n      tag_133\n        /* \"#utility.yul\":2171:2177   */\n      dup5\n        /* \"#utility.yul\":2115:2178   */\n      tag_68\n      jump\t// in\n    tag_133:\n        /* \"#utility.yul\":2099:2179   */\n      tag_67\n      jump\t// in\n    tag_132:\n        /* \"#utility.yul\":2090:2179   */\n      swap1\n      pop\n        /* \"#utility.yul\":2199:2204   */\n      dup1\n        /* \"#utility.yul\":2228:2234   */\n      dup4\n        /* \"#utility.yul\":2221:2226   */\n      dup3\n        /* \"#utility.yul\":2214:2235   */\n      mstore\n        /* \"#utility.yul\":2262:2266   */\n      0x20\n        /* \"#utility.yul\":2255:2260   */\n      dup3\n        /* \"#utility.yul\":2251:2267   */\n      add\n        /* \"#utility.yul\":2244:2267   */\n      swap1\n      pop\n        /* \"#utility.yul\":2315:2319   */\n      0x20\n        /* \"#utility.yul\":2307:2313   */\n      dup5\n        /* \"#utility.yul\":2303:2320   */\n      mul\n        /* \"#utility.yul\":2295:2301   */\n      dup4\n        /* \"#utility.yul\":2291:2321   */\n      add\n        /* \"#utility.yul\":2344:2347   */\n      dup6\n        /* \"#utility.yul\":2336:2342   */\n      dup2\n        /* \"#utility.yul\":2333:2348   */\n      gt\n        /* \"#utility.yul\":2330:2452   */\n      iszero\n      tag_134\n      jumpi\n        /* \"#utility.yul\":2363:2442   */\n      tag_135\n      tag_69\n      jump\t// in\n    tag_135:\n        /* \"#utility.yul\":2330:2452   */\n    tag_134:\n        /* \"#utility.yul\":2478:2484   */\n      dup4\n        /* \"#utility.yul\":2461:2680   */\n    tag_136:\n        /* \"#utility.yul\":2495:2501   */\n      dup2\n        /* \"#utility.yul\":2490:2493   */\n      dup2\n        /* \"#utility.yul\":2487:2502   */\n      lt\n        /* \"#utility.yul\":2461:2680   */\n      iszero\n      tag_138\n      jumpi\n        /* \"#utility.yul\":2570:2573   */\n      dup1\n        /* \"#utility.yul\":2599:2635   */\n      tag_139\n        /* \"#utility.yul\":2631:2634   */\n      dup9\n        /* \"#utility.yul\":2619:2629   */\n      dup3\n        /* \"#utility.yul\":2599:2635   */\n      tag_72\n      jump\t// in\n    tag_139:\n        /* \"#utility.yul\":2594:2597   */\n      dup5\n        /* \"#utility.yul\":2587:2636   */\n      mstore\n        /* \"#utility.yul\":2665:2669   */\n      0x20\n        /* \"#utility.yul\":2660:2663   */\n      dup5\n        /* \"#utility.yul\":2656:2670   */\n      add\n        /* \"#utility.yul\":2649:2670   */\n      swap4\n      pop\n        /* \"#utility.yul\":2537:2680   */\n      pop\n        /* \"#utility.yul\":2521:2525   */\n      0x20\n        /* \"#utility.yul\":2516:2519   */\n      dup2\n        /* \"#utility.yul\":2512:2526   */\n      add\n        /* \"#utility.yul\":2505:2526   */\n      swap1\n      pop\n        /* \"#utility.yul\":2461:2680   */\n      jump(tag_136)\n    tag_138:\n        /* \"#utility.yul\":2465:2486   */\n      pop\n        /* \"#utility.yul\":2080:2686   */\n      pop\n      pop\n        /* \"#utility.yul\":1979:2686   */\n      swap4\n      swap3\n      pop\n      pop\n      pop\n      jump\t// out\n        /* \"#utility.yul\":2708:3076   */\n    tag_74:\n        /* \"#utility.yul\":2778:2783   */\n      0x00\n        /* \"#utility.yul\":2827:2830   */\n      dup3\n        /* \"#utility.yul\":2820:2824   */\n      0x1f\n        /* \"#utility.yul\":2812:2818   */\n      dup4\n        /* \"#utility.yul\":2808:2825   */\n      add\n        /* \"#utility.yul\":2804:2831   */\n      slt\n        /* \"#utility.yul\":2794:2916   */\n      tag_141\n      jumpi\n        /* \"#utility.yul\":2835:2914   */\n      tag_142\n      tag_63\n      jump\t// in\n    tag_142:\n        /* \"#utility.yul\":2794:2916   */\n    tag_141:\n        /* \"#utility.yul\":2952:2958   */\n      dup2\n        /* \"#utility.yul\":2939:2959   */\n      calldataload\n        /* \"#utility.yul\":2977:3070   */\n      tag_143\n        /* \"#utility.yul\":3066:3069   */\n      dup5\n        /* \"#utility.yul\":3058:3064   */\n      dup3\n        /* \"#utility.yul\":3051:3055   */\n      0x20\n        /* \"#utility.yul\":3043:3049   */\n      dup7\n        /* \"#utility.yul\":3039:3056   */\n      add\n        /* \"#utility.yul\":2977:3070   */\n      tag_73\n      jump\t// in\n    tag_143:\n        /* \"#utility.yul\":2968:3070   */\n      swap2\n      pop\n        /* \"#utility.yul\":2784:3076   */\n      pop\n        /* \"#utility.yul\":2708:3076   */\n      swap3\n      swap2\n      pop\n      pop\n      jump\t// out\n        /* \"#utility.yul\":3082:3619   */\n    tag_9:\n        /* \"#utility.yul\":3165:3171   */\n      0x00\n        /* \"#utility.yul\":3214:3216   */\n      0x20\n        /* \"#utility.yul\":3202:3211   */\n      dup3\n        /* \"#utility.yul\":3193:3200   */\n      dup5\n        /* \"#utility.yul\":3189:3212   */\n      sub\n        /* \"#utility.yul\":3185:3217   */\n      slt\n        /* \"#utility.yul\":3182:3301   */\n      iszero\n      tag_145\n      jumpi\n        /* \"#utility.yul\":3220:3299   */\n      tag_146\n      tag_61\n      jump\t// in\n    tag_146:\n        /* \"#utility.yul\":3182:3301   */\n    tag_145:\n        /* \"#utility.yul\":3368:3369   */\n      0x00\n        /* \"#utility.yul\":3357:3366   */\n      dup3\n        /* \"#utility.yul\":3353:3370   */\n      add\n        /* \"#utility.yul\":3340:3371   */\n      calldataload\n        /* \"#utility.yul\":3398:3416   */\n      0xffffffffffffffff\n        /* \"#utility.yul\":3390:3396   */\n      dup2\n        /* \"#utility.yul\":3387:3417   */\n      gt\n        /* \"#utility.yul\":3384:3501   */\n      iszero\n      tag_147\n      jumpi\n        /* \"#utility.yul\":3420:3499   */\n      tag_148\n      tag_62\n      jump\t// in\n    tag_148:\n        /* \"#utility.yul\":3384:3501   */\n    tag_147:\n        /* \"#utility.yul\":3525:3602   */\n      tag_149\n        /* \"#utility.yul\":3594:3601   */\n      dup5\n        /* \"#utility.yul\":3585:3591   */\n      dup3\n        /* \"#utility.yul\":3574:3583   */\n      dup6\n        /* \"#utility.yul\":3570:3592   */\n      add\n        /* \"#utility.yul\":3525:3602   */\n      tag_74\n      jump\t// in\n    tag_149:\n        /* \"#utility.yul\":3515:3602   */\n      swap2\n      pop\n        /* \"#utility.yul\":3311:3612   */\n      pop\n        /* \"#utility.yul\":3082:3619   */\n      swap3\n      swap2\n      pop\n      pop\n      jump\t// out\n        /* \"#utility.yul\":3625:3740   */\n    tag_75:\n        /* \"#utility.yul\":3710:3733   */\n      tag_151\n        /* \"#utility.yul\":3727:3732   */\n      dup2\n        /* \"#utility.yul\":3710:3733   */\n      tag_70\n      jump\t// in\n    tag_151:\n        /* \"#utility.yul\":3705:3708   */\n      dup3\n        /* \"#utility.yul\":3698:3734   */\n      mstore\n        /* \"#utility.yul\":3625:3740   */\n      pop\n      pop\n      jump\t// out\n        /* \"#utility.yul\":3746:3964   */\n    tag_12:\n        /* \"#utility.yul\":3837:3841   */\n      0x00\n        /* \"#utility.yul\":3875:3877   */\n      0x20\n        /* \"#utility.yul\":3864:3873   */\n      dup3\n        /* \"#utility.yul\":3860:3878   */\n      add\n        /* \"#utility.yul\":3852:3878   */\n      swap1\n      pop\n        /* \"#utility.yul\":3888:3957   */\n      tag_153\n        /* \"#utility.yul\":3954:3955   */\n      0x00\n        /* \"#utility.yul\":3943:3952   */\n      dup4\n        /* \"#utility.yul\":3939:3956   */\n      add\n        /* \"#utility.yul\":3930:3936   */\n      dup5\n        /* \"#utility.yul\":3888:3957   */\n      tag_75\n      jump\t// in\n    tag_153:\n        /* \"#utility.yul\":3746:3964   */\n      swap3\n      swap2\n      pop\n      pop\n      jump\t// out\n        /* \"#utility.yul\":3970:4047   */\n    tag_76:\n        /* \"#utility.yul\":4007:4014   */\n      0x00\n        /* \"#utility.yul\":4036:4041   */\n      dup2\n        /* \"#utility.yul\":4025:4041   */\n      swap1\n      pop\n        /* \"#utility.yul\":3970:4047   */\n      swap2\n      swap1\n      pop\n      jump\t// out\n        /* \"#utility.yul\":4053:4175   */\n    tag_77:\n        /* \"#utility.yul\":4126:4150   */\n      tag_156\n        /* \"#utility.yul\":4144:4149   */\n      dup2\n        /* \"#utility.yul\":4126:4150   */\n      tag_76\n      jump\t// in\n    tag_156:\n        /* \"#utility.yul\":4119:4124   */\n      dup2\n        /* \"#utility.yul\":4116:4151   */\n      eq\n        /* \"#utility.yul\":4106:4169   */\n      tag_157\n      jumpi\n        /* \"#utility.yul\":4165:4166   */\n      0x00\n        /* \"#utility.yul\":4162:4163   */\n      dup1\n        /* \"#utility.yul\":4155:4167   */\n      revert\n        /* \"#utility.yul\":4106:4169   */\n    tag_157:\n        /* \"#utility.yul\":4053:4175   */\n      pop\n      jump\t// out\n        /* \"#utility.yul\":4181:4320   */\n    tag_78:\n        /* \"#utility.yul\":4227:4232   */\n      0x00\n        /* \"#utility.yul\":4265:4271   */\n      dup2\n        /* \"#utility.yul\":4252:4272   */\n      calldataload\n        /* \"#utility.yul\":4243:4272   */\n      swap1\n      pop\n        /* \"#utility.yul\":4281:4314   */\n      tag_159\n        /* \"#utility.yul\":4308:4313   */\n      dup2\n        /* \"#utility.yul\":4281:4314   */\n      tag_77\n      jump\t// in\n    tag_159:\n        /* \"#utility.yul\":4181:4320   */\n      swap3\n      swap2\n      pop\n      pop\n      jump\t// out\n        /* \"#utility.yul\":4326:4655   */\n    tag_15:\n        /* \"#utility.yul\":4385:4391   */\n      0x00\n        /* \"#utility.yul\":4434:4436   */\n      0x20\n        /* \"#utility.yul\":4422:4431   */\n      dup3\n        /* \"#utility.yul\":4413:4420   */\n      dup5\n        /* \"#utility.yul\":4409:4432   */\n      sub\n        /* \"#utility.yul\":4405:4437   */\n      slt\n        /* \"#utility.yul\":4402:4521   */\n      iszero\n      tag_161\n      jumpi\n        /* \"#utility.yul\":4440:4519   */\n      tag_162\n      tag_61\n      jump\t// in\n    tag_162:\n        /* \"#utility.yul\":4402:4521   */\n    tag_161:\n        /* \"#utility.yul\":4560:4561   */\n      0x00\n        /* \"#utility.yul\":4585:4638   */\n      tag_163\n        /* \"#utility.yul\":4630:4637   */\n      dup5\n        /* \"#utility.yul\":4621:4627   */\n      dup3\n        /* \"#utility.yul\":4610:4619   */\n      dup6\n        /* \"#utility.yul\":4606:4628   */\n      add\n        /* \"#utility.yul\":4585:4638   */\n      tag_78\n      jump\t// in\n    tag_163:\n        /* \"#utility.yul\":4575:4638   */\n      swap2\n      pop\n        /* \"#utility.yul\":4531:4648   */\n      pop\n        /* \"#utility.yul\":4326:4655   */\n      swap3\n      swap2\n      pop\n      pop\n      jump\t// out\n        /* \"#utility.yul\":4661:4760   */\n    tag_79:\n        /* \"#utility.yul\":4713:4719   */\n      0x00\n        /* \"#utility.yul\":4747:4752   */\n      dup2\n        /* \"#utility.yul\":4741:4753   */\n      mload\n        /* \"#utility.yul\":4731:4753   */\n      swap1\n      pop\n        /* \"#utility.yul\":4661:4760   */\n      swap2\n      swap1\n      pop\n      jump\t// out\n        /* \"#utility.yul\":4766:4935   */\n    tag_80:\n        /* \"#utility.yul\":4850:4861   */\n      0x00\n        /* \"#utility.yul\":4884:4890   */\n      dup3\n        /* \"#utility.yul\":4879:4882   */\n      dup3\n        /* \"#utility.yul\":4872:4891   */\n      mstore\n        /* \"#utility.yul\":4924:4928   */\n      0x20\n        /* \"#utility.yul\":4919:4922   */\n      dup3\n        /* \"#utility.yul\":4915:4929   */\n      add\n        /* \"#utility.yul\":4900:4929   */\n      swap1\n      pop\n        /* \"#utility.yul\":4766:4935   */\n      swap3\n      swap2\n      pop\n      pop\n      jump\t// out\n        /* \"#utility.yul\":4941:5080   */\n    tag_81:\n        /* \"#utility.yul\":5030:5036   */\n      dup3\n        /* \"#utility.yul\":5025:5028   */\n      dup2\n        /* \"#utility.yul\":5020:5023   */\n      dup4\n        /* \"#utility.yul\":5014:5037   */\n      mcopy\n        /* \"#utility.yul\":5071:5072   */\n      0x00\n        /* \"#utility.yul\":5062:5068   */\n      dup4\n        /* \"#utility.yul\":5057:5060   */\n      dup4\n        /* \"#utility.yul\":5053:5069   */\n      add\n        /* \"#utility.yul\":5046:5073   */\n      mstore\n        /* \"#utility.yul\":4941:5080   */\n      pop\n      pop\n      pop\n      jump\t// out\n        /* \"#utility.yul\":5086:5463   */\n    tag_82:\n        /* \"#utility.yul\":5174:5177   */\n      0x00\n        /* \"#utility.yul\":5202:5241   */\n      tag_168\n        /* \"#utility.yul\":5235:5240   */\n      dup3\n        /* \"#utility.yul\":5202:5241   */\n      tag_79\n      jump\t// in\n    tag_168:\n        /* \"#utility.yul\":5257:5328   */\n      tag_169\n        /* \"#utility.yul\":5321:5327   */\n      dup2\n        /* \"#utility.yul\":5316:5319   */\n      dup6\n        /* \"#utility.yul\":5257:5328   */\n      tag_80\n      jump\t// in\n    tag_169:\n        /* \"#utility.yul\":5250:5328   */\n      swap4\n      pop\n        /* \"#utility.yul\":5337:5402   */\n      tag_170\n        /* \"#utility.yul\":5395:5401   */\n      dup2\n        /* \"#utility.yul\":5390:5393   */\n      dup6\n        /* \"#utility.yul\":5383:5387   */\n      0x20\n        /* \"#utility.yul\":5376:5381   */\n      dup7\n        /* \"#utility.yul\":5372:5388   */\n      add\n        /* \"#utility.yul\":5337:5402   */\n      tag_81\n      jump\t// in\n    tag_170:\n        /* \"#utility.yul\":5427:5456   */\n      tag_171\n        /* \"#utility.yul\":5449:5455   */\n      dup2\n        /* \"#utility.yul\":5427:5456   */\n      tag_64\n      jump\t// in\n    tag_171:\n        /* \"#utility.yul\":5422:5425   */\n      dup5\n        /* \"#utility.yul\":5418:5457   */\n      add\n        /* \"#utility.yul\":5411:5457   */\n      swap2\n      pop\n        /* \"#utility.yul\":5178:5463   */\n      pop\n        /* \"#utility.yul\":5086:5463   */\n      swap3\n      swap2\n      pop\n      pop\n      jump\t// out\n        /* \"#utility.yul\":5469:5782   */\n    tag_18:\n        /* \"#utility.yul\":5582:5586   */\n      0x00\n        /* \"#utility.yul\":5620:5622   */\n      0x20\n        /* \"#utility.yul\":5609:5618   */\n      dup3\n        /* \"#utility.yul\":5605:5623   */\n      add\n        /* \"#utility.yul\":5597:5623   */\n      swap1\n      pop\n        /* \"#utility.yul\":5669:5678   */\n      dup2\n        /* \"#utility.yul\":5663:5667   */\n      dup2\n        /* \"#utility.yul\":5659:5679   */\n      sub\n        /* \"#utility.yul\":5655:5656   */\n      0x00\n        /* \"#utility.yul\":5644:5653   */\n      dup4\n        /* \"#utility.yul\":5640:5657   */\n      add\n        /* \"#utility.yul\":5633:5680   */\n      mstore\n        /* \"#utility.yul\":5697:5775   */\n      tag_173\n        /* \"#utility.yul\":5770:5774   */\n      dup2\n        /* \"#utility.yul\":5761:5767   */\n      dup5\n        /* \"#utility.yul\":5697:5775   */\n      tag_82\n      jump\t// in\n    tag_173:\n        /* \"#utility.yul\":5689:5775   */\n      swap1\n      pop\n        /* \"#utility.yul\":5469:5782   */\n      swap3\n      swap2\n      pop\n      pop\n      jump\t// out\n        /* \"#utility.yul\":5788:5905   */\n    tag_83:\n        /* \"#utility.yul\":5897:5898   */\n      0x00\n        /* \"#utility.yul\":5894:5895   */\n      dup1\n        /* \"#utility.yul\":5887:5899   */\n      revert\n        /* \"#utility.yul\":5911:6219   */\n    tag_84:\n        /* \"#utility.yul\":5973:5977   */\n      0x00\n        /* \"#utility.yul\":6063:6081   */\n      0xffffffffffffffff\n        /* \"#utility.yul\":6055:6061   */\n      dup3\n        /* \"#utility.yul\":6052:6082   */\n      gt\n        /* \"#utility.yul\":6049:6105   */\n      iszero\n      tag_176\n      jumpi\n        /* \"#utility.yul\":6085:6103   */\n      tag_177\n      tag_65\n      jump\t// in\n    tag_177:\n        /* \"#utility.yul\":6049:6105   */\n    tag_176:\n        /* \"#utility.yul\":6123:6152   */\n      tag_178\n        /* \"#utility.yul\":6145:6151   */\n      dup3\n        /* \"#utility.yul\":6123:6152   */\n      tag_64\n      jump\t// in\n    tag_178:\n        /* \"#utility.yul\":6115:6152   */\n      swap1\n      pop\n        /* \"#utility.yul\":6207:6211   */\n      0x20\n        /* \"#utility.yul\":6201:6205   */\n      dup2\n        /* \"#utility.yul\":6197:6212   */\n      add\n        /* \"#utility.yul\":6189:6212   */\n      swap1\n      pop\n        /* \"#utility.yul\":5911:6219   */\n      swap2\n      swap1\n      pop\n      jump\t// out\n        /* \"#utility.yul\":6225:6373   */\n    tag_85:\n        /* \"#utility.yul\":6323:6329   */\n      dup3\n        /* \"#utility.yul\":6318:6321   */\n      dup2\n        /* \"#utility.yul\":6313:6316   */\n      dup4\n        /* \"#utility.yul\":6300:6330   */\n      calldatacopy\n        /* \"#utility.yul\":6364:6365   */\n      0x00\n        /* \"#utility.yul\":6355:6361   */\n      dup4\n        /* \"#utility.yul\":6350:6353   */\n      dup4\n        /* \"#utility.yul\":6346:6362   */\n      add\n        /* \"#utility.yul\":6339:6366   */\n      mstore\n        /* \"#utility.yul\":6225:6373   */\n      pop\n      pop\n      pop\n      jump\t// out\n        /* \"#utility.yul\":6379:6804   */\n    tag_86:\n        /* \"#utility.yul\":6457:6462   */\n      0x00\n        /* \"#utility.yul\":6482:6548   */\n      tag_181\n        /* \"#utility.yul\":6498:6547   */\n      tag_182\n        /* \"#utility.yul\":6540:6546   */\n      dup5\n        /* \"#utility.yul\":6498:6547   */\n      tag_84\n      jump\t// in\n    tag_182:\n        /* \"#utility.yul\":6482:6548   */\n      tag_67\n      jump\t// in\n    tag_181:\n        /* \"#utility.yul\":6473:6548   */\n      swap1\n      pop\n        /* \"#utility.yul\":6571:6577   */\n      dup3\n        /* \"#utility.yul\":6564:6569   */\n      dup2\n        /* \"#utility.yul\":6557:6578   */\n      mstore\n        /* \"#utility.yul\":6609:6613   */\n      0x20\n        /* \"#utility.yul\":6602:6607   */\n      dup2\n        /* \"#utility.yul\":6598:6614   */\n      add\n        /* \"#utility.yul\":6647:6650   */\n      dup5\n        /* \"#utility.yul\":6638:6644   */\n      dup5\n        /* \"#utility.yul\":6633:6636   */\n      dup5\n        /* \"#utility.yul\":6629:6645   */\n      add\n        /* \"#utility.yul\":6626:6651   */\n      gt\n        /* \"#utility.yul\":6623:6735   */\n      iszero\n      tag_183\n      jumpi\n        /* \"#utility.yul\":6654:6733   */\n      tag_184\n      tag_83\n      jump\t// in\n    tag_184:\n        /* \"#utility.yul\":6623:6735   */\n    tag_183:\n        /* \"#utility.yul\":6744:6798   */\n      tag_185\n        /* \"#utility.yul\":6791:6797   */\n      dup5\n        /* \"#utility.yul\":6786:6789   */\n      dup3\n        /* \"#utility.yul\":6781:6784   */\n      dup6\n        /* \"#utility.yul\":6744:6798   */\n      tag_85\n      jump\t// in\n    tag_185:\n        /* \"#utility.yul\":6463:6804   */\n      pop\n        /* \"#utility.yul\":6379:6804   */\n      swap4\n      swap3\n      pop\n      pop\n      pop\n      jump\t// out\n        /* \"#utility.yul\":6824:7164   */\n    tag_87:\n        /* \"#utility.yul\":6880:6885   */\n      0x00\n        /* \"#utility.yul\":6929:6932   */\n      dup3\n        /* \"#utility.yul\":6922:6926   */\n      0x1f\n        /* \"#utility.yul\":6914:6920   */\n      dup4\n        /* \"#utility.yul\":6910:6927   */\n      add\n        /* \"#utility.yul\":6906:6933   */\n      slt\n        /* \"#utility.yul\":6896:7018   */\n      tag_187\n      jumpi\n        /* \"#utility.yul\":6937:7016   */\n      tag_188\n      tag_63\n      jump\t// in\n    tag_188:\n        /* \"#utility.yul\":6896:7018   */\n    tag_187:\n        /* \"#utility.yul\":7054:7060   */\n      dup2\n        /* \"#utility.yul\":7041:7061   */\n      calldataload\n        /* \"#utility.yul\":7079:7158   */\n      tag_189\n        /* \"#utility.yul\":7154:7157   */\n      dup5\n        /* \"#utility.yul\":7146:7152   */\n      dup3\n        /* \"#utility.yul\":7139:7143   */\n      0x20\n        /* \"#utility.yul\":7131:7137   */\n      dup7\n        /* \"#utility.yul\":7127:7144   */\n      add\n        /* \"#utility.yul\":7079:7158   */\n      tag_86\n      jump\t// in\n    tag_189:\n        /* \"#utility.yul\":7070:7158   */\n      swap2\n      pop\n        /* \"#utility.yul\":6886:7164   */\n      pop\n        /* \"#utility.yul\":6824:7164   */\n      swap3\n      swap2\n      pop\n      pop\n      jump\t// out\n        /* \"#utility.yul\":7170:7679   */\n    tag_21:\n        /* \"#utility.yul\":7239:7245   */\n      0x00\n        /* \"#utility.yul\":7288:7290   */\n      0x20\n        /* \"#utility.yul\":7276:7285   */\n      dup3\n        /* \"#utility.yul\":7267:7274   */\n      dup5\n        /* \"#utility.yul\":7263:7286   */\n      sub\n        /* \"#utility.yul\":7259:7291   */\n      slt\n        /* \"#utility.yul\":7256:7375   */\n      iszero\n      tag_191\n      jumpi\n        /* \"#utility.yul\":7294:7373   */\n      tag_192\n      tag_61\n      jump\t// in\n    tag_192:\n        /* \"#utility.yul\":7256:7375   */\n    tag_191:\n        /* \"#utility.yul\":7442:7443   */\n      0x00\n        /* \"#utility.yul\":7431:7440   */\n      dup3\n        /* \"#utility.yul\":7427:7444   */\n      add\n        /* \"#utility.yul\":7414:7445   */\n      calldataload\n        /* \"#utility.yul\":7472:7490   */\n      0xffffffffffffffff\n        /* \"#utility.yul\":7464:7470   */\n      dup2\n        /* \"#utility.yul\":7461:7491   */\n      gt\n        /* \"#utility.yul\":7458:7575   */\n      iszero\n      tag_193\n      jumpi\n        /* \"#utility.yul\":7494:7573   */\n      tag_194\n      tag_62\n      jump\t// in\n    tag_194:\n        /* \"#utility.yul\":7458:7575   */\n    tag_193:\n        /* \"#utility.yul\":7599:7662   */\n      tag_195\n        /* \"#utility.yul\":7654:7661   */\n      dup5\n        /* \"#utility.yul\":7645:7651   */\n      dup3\n        /* \"#utility.yul\":7634:7643   */\n      dup6\n        /* \"#utility.yul\":7630:7652   */\n      add\n        /* \"#utility.yul\":7599:7662   */\n      tag_87\n      jump\t// in\n    tag_195:\n        /* \"#utility.yul\":7589:7662   */\n      swap2\n      pop\n        /* \"#utility.yul\":7385:7672   */\n      pop\n        /* \"#utility.yul\":7170:7679   */\n      swap3\n      swap2\n      pop\n      pop\n      jump\t// out\n        /* \"#utility.yul\":7685:7865   */\n    tag_33:\n        /* \"#utility.yul\":7733:7810   */\n      0x4e487b7100000000000000000000000000000000000000000000000000000000\n        /* \"#utility.yul\":7730:7731   */\n      0x00\n        /* \"#utility.yul\":7723:7811   */\n      mstore\n        /* \"#utility.yul\":7830:7834   */\n      0x32\n        /* \"#utility.yul\":7827:7828   */\n      0x04\n        /* \"#utility.yul\":7820:7835   */\n      mstore\n        /* \"#utility.yul\":7854:7858   */\n      0x24\n        /* \"#utility.yul\":7851:7852   */\n      0x00\n        /* \"#utility.yul\":7844:7859   */\n      revert\n        /* \"#utility.yul\":7871:8051   */\n    tag_88:\n        /* \"#utility.yul\":7919:7996   */\n      0x4e487b7100000000000000000000000000000000000000000000000000000000\n        /* \"#utility.yul\":7916:7917   */\n      0x00\n        /* \"#utility.yul\":7909:7997   */\n      mstore\n        /* \"#utility.yul\":8016:8020   */\n      0x11\n        /* \"#utility.yul\":8013:8014   */\n      0x04\n        /* \"#utility.yul\":8006:8021   */\n      mstore\n        /* \"#utility.yul\":8040:8044   */\n      0x24\n        /* \"#utility.yul\":8037:8038   */\n      0x00\n        /* \"#utility.yul\":8030:8045   */\n      revert\n        /* \"#utility.yul\":8057:8432   */\n    tag_35:\n        /* \"#utility.yul\":8096:8099   */\n      0x00\n        /* \"#utility.yul\":8115:8134   */\n      tag_199\n        /* \"#utility.yul\":8132:8133   */\n      dup3\n        /* \"#utility.yul\":8115:8134   */\n      tag_70\n      jump\t// in\n    tag_199:\n        /* \"#utility.yul\":8110:8134   */\n      swap2\n      pop\n        /* \"#utility.yul\":8148:8167   */\n      tag_200\n        /* \"#utility.yul\":8165:8166   */\n      dup4\n        /* \"#utility.yul\":8148:8167   */\n      tag_70\n      jump\t// in\n    tag_200:\n        /* \"#utility.yul\":8143:8167   */\n      swap3\n      pop\n        /* \"#utility.yul\":8190:8191   */\n      dup3\n        /* \"#utility.yul\":8187:8188   */\n      dup3\n        /* \"#utility.yul\":8183:8192   */\n      add\n        /* \"#utility.yul\":8176:8192   */\n      swap1\n      pop\n        /* \"#utility.yul\":8388:8389   */\n      dup3\n        /* \"#utility.yul\":8383:8386   */\n      dup2\n        /* \"#utility.yul\":8379:8390   */\n      slt\n        /* \"#utility.yul\":8372:8391   */\n      iszero\n        /* \"#utility.yul\":8368:8369   */\n      0x00\n        /* \"#utility.yul\":8365:8366   */\n      dup4\n        /* \"#utility.yul\":8361:8370   */\n      slt\n        /* \"#utility.yul\":8357:8392   */\n      and\n        /* \"#utility.yul\":8340:8341   */\n      dup4\n        /* \"#utility.yul\":8335:8338   */\n      dup3\n        /* \"#utility.yul\":8331:8342   */\n      slt\n        /* \"#utility.yul\":8326:8327   */\n      0x00\n        /* \"#utility.yul\":8323:8324   */\n      dup5\n        /* \"#utility.yul\":8319:8328   */\n      slt\n        /* \"#utility.yul\":8312:8329   */\n      iszero\n        /* \"#utility.yul\":8308:8343   */\n      and\n        /* \"#utility.yul\":8292:8402   */\n      or\n        /* \"#utility.yul\":8289:8425   */\n      iszero\n      tag_201\n      jumpi\n        /* \"#utility.yul\":8405:8423   */\n      tag_202\n      tag_88\n      jump\t// in\n    tag_202:\n        /* \"#utility.yul\":8289:8425   */\n    tag_201:\n        /* \"#utility.yul\":8057:8432   */\n      swap3\n      swap2\n      pop\n      pop\n      jump\t// out\n        /* \"#utility.yul\":8438:8607   */\n    tag_89:\n        /* \"#utility.yul\":8578:8599   */\n      0x496e646578206f7574206f6620626f756e647300000000000000000000000000\n        /* \"#utility.yul\":8574:8575   */\n      0x00\n        /* \"#utility.yul\":8566:8572   */\n      dup3\n        /* \"#utility.yul\":8562:8576   */\n      add\n        /* \"#utility.yul\":8555:8600   */\n      mstore\n        /* \"#utility.yul\":8438:8607   */\n      pop\n      jump\t// out\n        /* \"#utility.yul\":8613:8979   */\n    tag_90:\n        /* \"#utility.yul\":8755:8758   */\n      0x00\n        /* \"#utility.yul\":8776:8843   */\n      tag_205\n        /* \"#utility.yul\":8840:8842   */\n      0x13\n        /* \"#utility.yul\":8835:8838   */\n      dup4\n        /* \"#utility.yul\":8776:8843   */\n      tag_80\n      jump\t// in\n    tag_205:\n        /* \"#utility.yul\":8769:8843   */\n      swap2\n      pop\n        /* \"#utility.yul\":8852:8945   */\n      tag_206\n        /* \"#utility.yul\":8941:8944   */\n      dup3\n        /* \"#utility.yul\":8852:8945   */\n      tag_89\n      jump\t// in\n    tag_206:\n        /* \"#utility.yul\":8970:8972   */\n      0x20\n        /* \"#utility.yul\":8965:8968   */\n      dup3\n        /* \"#utility.yul\":8961:8973   */\n      add\n        /* \"#utility.yul\":8954:8973   */\n      swap1\n      pop\n        /* \"#utility.yul\":8613:8979   */\n      swap2\n      swap1\n      pop\n      jump\t// out\n        /* \"#utility.yul\":8985:9404   */\n    tag_39:\n        /* \"#utility.yul\":9151:9155   */\n      0x00\n        /* \"#utility.yul\":9189:9191   */\n      0x20\n        /* \"#utility.yul\":9178:9187   */\n      dup3\n        /* \"#utility.yul\":9174:9192   */\n      add\n        /* \"#utility.yul\":9166:9192   */\n      swap1\n      pop\n        /* \"#utility.yul\":9238:9247   */\n      dup2\n        /* \"#utility.yul\":9232:9236   */\n      dup2\n        /* \"#utility.yul\":9228:9248   */\n      sub\n        /* \"#utility.yul\":9224:9225   */\n      0x00\n        /* \"#utility.yul\":9213:9222   */\n      dup4\n        /* \"#utility.yul\":9209:9226   */\n      add\n        /* \"#utility.yul\":9202:9249   */\n      mstore\n        /* \"#utility.yul\":9266:9397   */\n      tag_208\n        /* \"#utility.yul\":9392:9396   */\n      dup2\n        /* \"#utility.yul\":9266:9397   */\n      tag_90\n      jump\t// in\n    tag_208:\n        /* \"#utility.yul\":9258:9397   */\n      swap1\n      pop\n        /* \"#utility.yul\":8985:9404   */\n      swap2\n      swap1\n      pop\n      jump\t// out\n        /* \"#utility.yul\":9410:9590   */\n    tag_91:\n        /* \"#utility.yul\":9458:9535   */\n      0x4e487b7100000000000000000000000000000000000000000000000000000000\n        /* \"#utility.yul\":9455:9456   */\n      0x00\n        /* \"#utility.yul\":9448:9536   */\n      mstore\n        /* \"#utility.yul\":9555:9559   */\n      0x22\n        /* \"#utility.yul\":9552:9553   */\n      0x04\n        /* \"#utility.yul\":9545:9560   */\n      mstore\n        /* \"#utility.yul\":9579:9583   */\n      0x24\n        /* \"#utility.yul\":9576:9577   */\n      0x00\n        /* \"#utility.yul\":9569:9584   */\n      revert\n        /* \"#utility.yul\":9596:9916   */\n    tag_44:\n        /* \"#utility.yul\":9640:9646   */\n      0x00\n        /* \"#utility.yul\":9677:9678   */\n      0x02\n        /* \"#utility.yul\":9671:9675   */\n      dup3\n        /* \"#utility.yul\":9667:9679   */\n      div\n        /* \"#utility.yul\":9657:9679   */\n      swap1\n      pop\n        /* \"#utility.yul\":9724:9725   */\n      0x01\n        /* \"#utility.yul\":9718:9722   */\n      dup3\n        /* \"#utility.yul\":9714:9726   */\n      and\n        /* \"#utility.yul\":9745:9763   */\n      dup1\n        /* \"#utility.yul\":9735:9816   */\n      tag_211\n      jumpi\n        /* \"#utility.yul\":9801:9805   */\n      0x7f\n        /* \"#utility.yul\":9793:9799   */\n      dup3\n        /* \"#utility.yul\":9789:9806   */\n      and\n        /* \"#utility.yul\":9779:9806   */\n      swap2\n      pop\n        /* \"#utility.yul\":9735:9816   */\n    tag_211:\n        /* \"#utility.yul\":9863:9865   */\n      0x20\n        /* \"#utility.yul\":9855:9861   */\n      dup3\n        /* \"#utility.yul\":9852:9866   */\n      lt\n        /* \"#utility.yul\":9832:9850   */\n      dup2\n        /* \"#utility.yul\":9829:9867   */\n      sub\n        /* \"#utility.yul\":9826:9910   */\n      tag_212\n      jumpi\n        /* \"#utility.yul\":9882:9900   */\n      tag_213\n      tag_91\n      jump\t// in\n    tag_213:\n        /* \"#utility.yul\":9826:9910   */\n    tag_212:\n        /* \"#utility.yul\":9647:9916   */\n      pop\n        /* \"#utility.yul\":9596:9916   */\n      swap2\n      swap1\n      pop\n      jump\t// out\n        /* \"#utility.yul\":9922:10063   */\n    tag_92:\n        /* \"#utility.yul\":9971:9975   */\n      0x00\n        /* \"#utility.yul\":9994:9997   */\n      dup2\n        /* \"#utility.yul\":9986:9997   */\n      swap1\n      pop\n        /* \"#utility.yul\":10017:10020   */\n      dup2\n        /* \"#utility.yul\":10014:10015   */\n      0x00\n        /* \"#utility.yul\":10007:10021   */\n      mstore\n        /* \"#utility.yul\":10051:10055   */\n      0x20\n        /* \"#utility.yul\":10048:10049   */\n      0x00\n        /* \"#utility.yul\":10038:10056   */\n      keccak256\n        /* \"#utility.yul\":10030:10056   */\n      swap1\n      pop\n        /* \"#utility.yul\":9922:10063   */\n      swap2\n      swap1\n      pop\n      jump\t// out\n        /* \"#utility.yul\":10069:10162   */\n    tag_93:\n        /* \"#utility.yul\":10106:10112   */\n      0x00\n        /* \"#utility.yul\":10153:10155   */\n      0x20\n        /* \"#utility.yul\":10148:10150   */\n      0x1f\n        /* \"#utility.yul\":10141:10146   */\n      dup4\n        /* \"#utility.yul\":10137:10151   */\n      add\n        /* \"#utility.yul\":10133:10156   */\n      div\n        /* \"#utility.yul\":10123:10156   */\n      swap1\n      pop\n        /* \"#utility.yul\":10069:10162   */\n      swap2\n      swap1\n      pop\n      jump\t// out\n        /* \"#utility.yul\":10168:10275   */\n    tag_94:\n        /* \"#utility.yul\":10212:10220   */\n      0x00\n        /* \"#utility.yul\":10262:10267   */\n      dup3\n        /* \"#utility.yul\":10256:10260   */\n      dup3\n        /* \"#utility.yul\":10252:10268   */\n      shl\n        /* \"#utility.yul\":10231:10268   */\n      swap1\n      pop\n        /* \"#utility.yul\":10168:10275   */\n      swap3\n      swap2\n      pop\n      pop\n      jump\t// out\n        /* \"#utility.yul\":10281:10674   */\n    tag_95:\n        /* \"#utility.yul\":10350:10356   */\n      0x00\n        /* \"#utility.yul\":10400:10401   */\n      0x08\n        /* \"#utility.yul\":10388:10398   */\n      dup4\n        /* \"#utility.yul\":10384:10402   */\n      mul\n        /* \"#utility.yul\":10423:10520   */\n      tag_218\n        /* \"#utility.yul\":10453:10519   */\n      0xffffffffffffffffffffffffffffffffffffffffffffffffffffffffffffffff\n        /* \"#utility.yul\":10442:10451   */\n      dup3\n        /* \"#utility.yul\":10423:10520   */\n      tag_94\n      jump\t// in\n    tag_218:\n        /* \"#utility.yul\":10541:10580   */\n      tag_219\n        /* \"#utility.yul\":10571:10579   */\n      dup7\n        /* \"#utility.yul\":10560:10569   */\n      dup4\n        /* \"#utility.yul\":10541:10580   */\n      tag_94\n      jump\t// in\n    tag_219:\n        /* \"#utility.yul\":10529:10580   */\n      swap6\n      pop\n        /* \"#utility.yul\":10613:10617   */\n      dup1\n        /* \"#utility.yul\":10609:10618   */\n      not\n        /* \"#utility.yul\":10602:10607   */\n      dup5\n        /* \"#utility.yul\":10598:10619   */\n      and\n        /* \"#utility.yul\":10589:10619   */\n      swap4\n      pop\n        /* \"#utility.yul\":10662:10666   */\n      dup1\n        /* \"#utility.yul\":10652:10660   */\n      dup7\n        /* \"#utility.yul\":10648:10667   */\n      and\n        /* \"#utility.yul\":10641:10646   */\n      dup5\n        /* \"#utility.yul\":10638:10668   */\n      or\n        /* \"#utility.yul\":10628:10668   */\n      swap3\n      pop\n        /* \"#utility.yul\":10357:10674   */\n      pop\n      pop\n        /* \"#utility.yul\":10281:10674   */\n      swap4\n      swap3\n      pop\n      pop\n      pop\n      jump\t// out\n        /* \"#utility.yul\":10680:10740   */\n    tag_96:\n        /* \"#utility.yul\":10708:10711   */\n      0x00\n        /* \"#utility.yul\":10729:10734   */\n      dup2\n        /* \"#utility.yul\":10722:10734   */\n      swap1\n      pop\n        /* \"#utility.yul\":10680:10740   */\n      swap2\n      swap1\n      pop\n      jump\t// out\n        /* \"#utility.yul\":10746:10888   */\n    tag_97:\n        /* \"#utility.yul\":10796:10805   */\n      0x00\n        /* \"#utility.yul\":10829:10882   */\n      tag_222\n        /* \"#utility.yul\":10847:10881   */\n      tag_223\n        /* \"#utility.yul\":10856:10880   */\n      tag_224\n        /* \"#utility.yul\":10874:10879   */\n      dup5\n        /* \"#utility.yul\":10856:10880   */\n      tag_76\n      jump\t// in\n    tag_224:\n        /* \"#utility.yul\":10847:10881   */\n      tag_96\n      jump\t// in\n    tag_223:\n        /* \"#utility.yul\":10829:10882   */\n      tag_76\n      jump\t// in\n    tag_222:\n        /* \"#utility.yul\":10816:10882   */\n      swap1\n      pop\n        /* \"#utility.yul\":10746:10888   */\n      swap2\n      swap1\n      pop\n      jump\t// out\n        /* \"#utility.yul\":10894:10969   */\n    tag_98:\n        /* \"#utility.yul\":10937:10940   */\n      0x00\n        /* \"#utility.yul\":10958:10963   */\n      dup2\n        /* \"#utility.yul\":10951:10963   */\n      swap1\n      pop\n        /* \"#utility.yul\":10894:10969   */\n      swap2\n      swap1\n      pop\n      jump\t// out\n        /* \"#utility.yul\":10975:11244   */\n    tag_99:\n        /* \"#utility.yul\":11085:11124   */\n      tag_227\n        /* \"#utility.yul\":11116:11123   */\n      dup4\n        /* \"#utility.yul\":11085:11124   */\n      tag_97\n      jump\t// in\n    tag_227:\n        /* \"#utility.yul\":11146:11237   */\n      tag_228\n        /* \"#utility.yul\":11195:11236   */\n      tag_229\n        /* \"#utility.yul\":11219:11235   */\n      dup3\n        /* \"#utility.yul\":11195:11236   */\n      tag_98\n      jump\t// in\n    tag_229:\n        /* \"#utility.yul\":11187:11193   */\n      dup5\n        /* \"#utility.yul\":11180:11184   */\n      dup5\n        /* \"#utility.yul\":11174:11185   */\n      sload\n        /* \"#utility.yul\":11146:11237   */\n      tag_95\n      jump\t// in\n    tag_228:\n        /* \"#utility.yul\":11140:11144   */\n      dup3\n        /* \"#utility.yul\":11133:11238   */\n      sstore\n        /* \"#utility.yul\":11051:11244   */\n      pop\n        /* \"#utility.yul\":10975:11244   */\n      pop\n      pop\n      pop\n      jump\t// out\n        /* \"#utility.yul\":11250:11323   */\n    tag_100:\n        /* \"#utility.yul\":11295:11298   */\n      0x00\n        /* \"#utility.yul\":11250:11323   */\n      swap1\n      jump\t// out\n        /* \"#utility.yul\":11329:11518   */\n    tag_101:\n        /* \"#utility.yul\":11406:11438   */\n      tag_232\n      tag_100\n      jump\t// in\n    tag_232:\n        /* \"#utility.yul\":11447:11512   */\n      tag_233\n        /* \"#utility.yul\":11505:11511   */\n      dup2\n        /* \"#utility.yul\":11497:11503   */\n      dup5\n        /* \"#utility.yul\":11491:11495   */\n      dup5\n        /* \"#utility.yul\":11447:11512   */\n      tag_99\n      jump\t// in\n    tag_233:\n        /* \"#utility.yul\":11382:11518   */\n      pop\n        /* \"#utility.yul\":11329:11518   */\n      pop\n      pop\n      jump\t// out\n        /* \"#utility.yul\":11524:11710   */\n    tag_102:\n        /* \"#utility.yul\":11584:11704   */\n    tag_235:\n        /* \"#utility.yul\":11601:11604   */\n      dup2\n        /* \"#utility.yul\":11594:11599   */\n      dup2\n        /* \"#utility.yul\":11591:11605   */\n      lt\n        /* \"#utility.yul\":11584:11704   */\n      iszero\n      tag_237\n      jumpi\n        /* \"#utility.yul\":11655:11694   */\n      tag_238\n        /* \"#utility.yul\":11692:11693   */\n      0x00\n        /* \"#utility.yul\":11685:11690   */\n      dup3\n        /* \"#utility.yul\":11655:11694   */\n      tag_101\n      jump\t// in\n    tag_238:\n        /* \"#utility.yul\":11628:11629   */\n      0x01\n        /* \"#utility.yul\":11621:11626   */\n      dup2\n        /* \"#utility.yul\":11617:11630   */\n      add\n        /* \"#utility.yul\":11608:11630   */\n      swap1\n      pop\n        /* \"#utility.yul\":11584:11704   */\n      jump(tag_235)\n    tag_237:\n        /* \"#utility.yul\":11524:11710   */\n      pop\n      pop\n      jump\t// out\n        /* \"#utility.yul\":11716:12259   */\n    tag_103:\n        /* \"#utility.yul\":11817:11819   */\n      0x1f\n        /* \"#utility.yul\":11812:11815   */\n      dup3\n        /* \"#utility.yul\":11809:11820   */\n      gt\n        /* \"#utility.yul\":11806:12252   */\n      iszero\n      tag_240\n      jumpi\n        /* \"#utility.yul\":11851:11889   */\n      tag_241\n        /* \"#utility.yul\":11883:11888   */\n      dup2\n        /* \"#utility.yul\":11851:11889   */\n      tag_92\n      jump\t// in\n    tag_241:\n        /* \"#utility.yul\":11935:11964   */\n      tag_242\n        /* \"#utility.yul\":11953:11963   */\n      dup5\n        /* \"#utility.yul\":11935:11964   */\n      tag_93\n      jump\t// in\n    tag_242:\n        /* \"#utility.yul\":11925:11933   */\n      dup2\n        /* \"#utility.yul\":11921:11965   */\n      add\n        /* \"#utility.yul\":12118:12120   */\n      0x20\n        /* \"#utility.yul\":12106:12116   */\n      dup6\n        /* \"#utility.yul\":12103:12121   */\n      lt\n        /* \"#utility.yul\":12100:12149   */\n      iszero\n      tag_243\n      jumpi\n        /* \"#utility.yul\":12139:12147   */\n      dup2\n        /* \"#utility.yul\":12124:12147   */\n      swap1\n      pop\n        /* \"#utility.yul\":12100:12149   */\n    tag_243:\n        /* \"#utility.yul\":12162:12242   */\n      tag_244\n        /* \"#utility.yul\":12218:12240   */\n      tag_245\n        /* \"#utility.yul\":12236:12239   */\n      dup6\n        /* \"#utility.yul\":12218:12240   */\n      tag_93\n      jump\t// in\n    tag_245:\n        /* \"#utility.yul\":12208:12216   */\n      dup4\n        /* \"#utility.yul\":12204:12241   */\n      add\n        /* \"#utility.yul\":12191:12202   */\n      dup3\n        /* \"#utility.yul\":12162:12242   */\n      tag_102\n      jump\t// in\n    tag_244:\n        /* \"#utility.yul\":11821:12252   */\n      pop\n      pop\n        /* \"#utility.yul\":11806:12252   */\n    tag_240:\n        /* \"#utility.yul\":11716:12259   */\n      pop\n      pop\n      pop\n      jump\t// out\n        /* \"#utility.yul\":12265:12382   */\n    tag_104:\n        /* \"#utility.yul\":12319:12327   */\n      0x00\n        /* \"#utility.yul\":12369:12374   */\n      dup3\n        /* \"#utility.yul\":12363:12367   */\n      dup3\n        /* \"#utility.yul\":12359:12375   */\n      shr\n        /* \"#utility.yul\":12338:12375   */\n      swap1\n      pop\n        /* \"#utility.yul\":12265:12382   */\n      swap3\n      swap2\n      pop\n      pop\n      jump\t// out\n        /* \"#utility.yul\":12388:12557   */\n    tag_105:\n        /* \"#utility.yul\":12432:12438   */\n      0x00\n        /* \"#utility.yul\":12465:12516   */\n      tag_248\n        /* \"#utility.yul\":12513:12514   */\n      0x00\n        /* \"#utility.yul\":12509:12515   */\n      not\n        /* \"#utility.yul\":12501:12506   */\n      dup5\n        /* \"#utility.yul\":12498:12499   */\n      0x08\n        /* \"#utility.yul\":12494:12507   */\n      mul\n        /* \"#utility.yul\":12465:12516   */\n      tag_104\n      jump\t// in\n    tag_248:\n        /* \"#utility.yul\":12461:12517   */\n      not\n        /* \"#utility.yul\":12546:12550   */\n      dup1\n        /* \"#utility.yul\":12540:12544   */\n      dup4\n        /* \"#utility.yul\":12536:12551   */\n      and\n        /* \"#utility.yul\":12526:12551   */\n      swap2\n      pop\n        /* \"#utility.yul\":12439:12557   */\n      pop\n        /* \"#utility.yul\":12388:12557   */\n      swap3\n      swap2\n      pop\n      pop\n      jump\t// out\n        /* \"#utility.yul\":12562:12857   */\n    tag_106:\n        /* \"#utility.yul\":12638:12642   */\n      0x00\n        /* \"#utility.yul\":12784:12813   */\n      tag_250\n        /* \"#utility.yul\":12809:12812   */\n      dup4\n        /* \"#utility.yul\":12803:12807   */\n      dup4\n        /* \"#utility.yul\":12784:12813   */\n      tag_105\n      jump\t// in\n    tag_250:\n        /* \"#utility.yul\":12776:12813   */\n      swap2\n      pop\n        /* \"#utility.yul\":12846:12849   */\n      dup3\n        /* \"#utility.yul\":12843:12844   */\n      0x02\n        /* \"#utility.yul\":12839:12850   */\n      mul\n        /* \"#utility.yul\":12833:12837   */\n      dup3\n        /* \"#utility.yul\":12830:12851   */\n      or\n        /* \"#utility.yul\":12822:12851   */\n      swap1\n      pop\n        /* \"#utility.yul\":12562:12857   */\n      swap3\n      swap2\n      pop\n      pop\n      jump\t// out\n        /* \"#utility.yul\":12862:14257   */\n    tag_52:\n        /* \"#utility.yul\":12979:13016   */\n      tag_252\n        /* \"#utility.yul\":13012:13015   */\n      dup3\n        /* \"#utility.yul\":12979:13016   */\n      tag_79\n      jump\t// in\n    tag_252:\n        /* \"#utility.yul\":13081:13099   */\n      0xffffffffffffffff\n        /* \"#utility.yul\":13073:13079   */\n      dup2\n        /* \"#utility.yul\":13070:13100   */\n      gt\n        /* \"#utility.yul\":13067:13123   */\n      iszero\n      tag_253\n      jumpi\n        /* \"#utility.yul\":13103:13121   */\n      tag_254\n      tag_65\n      jump\t// in\n    tag_254:\n        /* \"#utility.yul\":13067:13123   */\n    tag_253:\n        /* \"#utility.yul\":13147:13185   */\n      tag_255\n        /* \"#utility.yul\":13179:13183   */\n      dup3\n        /* \"#utility.yul\":13173:13184   */\n      sload\n        /* \"#utility.yul\":13147:13185   */\n      tag_44\n      jump\t// in\n    tag_255:\n        /* \"#utility.yul\":13232:13299   */\n      tag_256\n        /* \"#utility.yul\":13292:13298   */\n      dup3\n        /* \"#utility.yul\":13284:13290   */\n      dup3\n        /* \"#utility.yul\":13278:13282   */\n      dup6\n        /* \"#utility.yul\":13232:13299   */\n      tag_103\n      jump\t// in\n    tag_256:\n        /* \"#utility.yul\":13326:13327   */\n      0x00\n        /* \"#utility.yul\":13350:13354   */\n      0x20\n        /* \"#utility.yul\":13337:13354   */\n      swap1\n      pop\n        /* \"#utility.yul\":13382:13384   */\n      0x1f\n        /* \"#utility.yul\":13374:13380   */\n      dup4\n        /* \"#utility.yul\":13371:13385   */\n      gt\n        /* \"#utility.yul\":13399:13400   */\n      0x01\n        /* \"#utility.yul\":13394:14012   */\n      dup2\n      eq\n      tag_258\n      jumpi\n        /* \"#utility.yul\":14056:14057   */\n      0x00\n        /* \"#utility.yul\":14073:14079   */\n      dup5\n        /* \"#utility.yul\":14070:14147   */\n      iszero\n      tag_259\n      jumpi\n        /* \"#utility.yul\":14122:14131   */\n      dup3\n        /* \"#utility.yul\":14117:14120   */\n      dup8\n        /* \"#utility.yul\":14113:14132   */\n      add\n        /* \"#utility.yul\":14107:14133   */\n      mload\n        /* \"#utility.yul\":14098:14133   */\n      swap1\n      pop\n        /* \"#utility.yul\":14070:14147   */\n    tag_259:\n        /* \"#utility.yul\":14173:14240   */\n      tag_260\n        /* \"#utility.yul\":14233:14239   */\n      dup6\n        /* \"#utility.yul\":14226:14231   */\n      dup3\n        /* \"#utility.yul\":14173:14240   */\n      tag_106\n      jump\t// in\n    tag_260:\n        /* \"#utility.yul\":14167:14171   */\n      dup7\n        /* \"#utility.yul\":14160:14241   */\n      sstore\n        /* \"#utility.yul\":14029:14251   */\n      pop\n        /* \"#utility.yul\":13364:14251   */\n      jump(tag_257)\n        /* \"#utility.yul\":13394:14012   */\n    tag_258:\n        /* \"#utility.yul\":13446:13450   */\n      0x1f\n        /* \"#utility.yul\":13442:13451   */\n      not\n        /* \"#utility.yul\":13434:13440   */\n      dup5\n        /* \"#utility.yul\":13430:13452   */\n      and\n        /* \"#utility.yul\":13480:13517   */\n      tag_261\n        /* \"#utility.yul\":13512:13516   */\n      dup7\n        /* \"#utility.yul\":13480:13517   */\n      tag_92\n      jump\t// in\n    tag_261:\n        /* \"#utility.yul\":13539:13540   */\n      0x00\n        /* \"#utility.yul\":13553:13761   */\n    tag_262:\n        /* \"#utility.yul\":13567:13574   */\n      dup3\n        /* \"#utility.yul\":13564:13565   */\n      dup2\n        /* \"#utility.yul\":13561:13575   */\n      lt\n        /* \"#utility.yul\":13553:13761   */\n      iszero\n      tag_264\n      jumpi\n        /* \"#utility.yul\":13646:13655   */\n      dup5\n        /* \"#utility.yul\":13641:13644   */\n      dup10\n        /* \"#utility.yul\":13637:13656   */\n      add\n        /* \"#utility.yul\":13631:13657   */\n      mload\n        /* \"#utility.yul\":13623:13629   */\n      dup3\n        /* \"#utility.yul\":13616:13658   */\n      sstore\n        /* \"#utility.yul\":13697:13698   */\n      0x01\n        /* \"#utility.yul\":13689:13695   */\n      dup3\n        /* \"#utility.yul\":13685:13699   */\n      add\n        /* \"#utility.yul\":13675:13699   */\n      swap2\n      pop\n        /* \"#utility.yul\":13744:13746   */\n      0x20\n        /* \"#utility.yul\":13733:13742   */\n      dup6\n        /* \"#utility.yul\":13729:13747   */\n      add\n        /* \"#utility.yul\":13716:13747   */\n      swap5\n      pop\n        /* \"#utility.yul\":13590:13594   */\n      0x20\n        /* \"#utility.yul\":13587:13588   */\n      dup2\n        /* \"#utility.yul\":13583:13595   */\n      add\n        /* \"#utility.yul\":13578:13595   */\n      swap1\n      pop\n        /* \"#utility.yul\":13553:13761   */\n      jump(tag_262)\n    tag_264:\n        /* \"#utility.yul\":13789:13795   */\n      dup7\n        /* \"#utility.yul\":13780:13787   */\n      dup4\n        /* \"#utility.yul\":13777:13796   */\n      lt\n        /* \"#utility.yul\":13774:13953   */\n      iszero\n      tag_265\n      jumpi\n        /* \"#utility.yul\":13847:13856   */\n      dup5\n        /* \"#utility.yul\":13842:13845   */\n      dup10\n        /* \"#utility.yul\":13838:13857   */\n      add\n        /* \"#utility.yul\":13832:13858   */\n      mload\n        /* \"#utility.yul\":13890:13938   */\n      tag_266\n        /* \"#utility.yul\":13932:13936   */\n      0x1f\n        /* \"#utility.yul\":13924:13930   */\n      dup10\n        /* \"#utility.yul\":13920:13937   */\n      and\n        /* \"#utility.yul\":13909:13918   */\n      dup3\n        /* \"#utility.yul\":13890:13938   */\n      tag_105\n      jump\t// in\n    tag_266:\n        /* \"#utility.yul\":13882:13888   */\n      dup4\n        /* \"#utility.yul\":13875:13939   */\n      sstore\n        /* \"#utility.yul\":13797:13953   */\n      pop\n        /* \"#utility.yul\":13774:13953   */\n    tag_265:\n        /* \"#utility.yul\":13999:14000   */\n      0x01\n        /* \"#utility.yul\":13995:13996   */\n      0x02\n        /* \"#utility.yul\":13987:13993   */\n      dup9\n        /* \"#utility.yul\":13983:13997   */\n      mul\n        /* \"#utility.yul\":13979:14001   */\n      add\n        /* \"#utility.yul\":13973:13977   */\n      dup9\n        /* \"#utility.yul\":13966:14002   */\n      sstore\n        /* \"#utility.yul\":13401:14012   */\n      pop\n      pop\n      pop\n        /* \"#utility.yul\":13364:14251   */\n    tag_257:\n      pop\n        /* \"#utility.yul\":12954:14257   */\n      pop\n      pop\n      pop\n        /* \"#utility.yul\":12862:14257   */\n      pop\n      pop\n      jump\t// out\n\n    auxdata: 0xa26469706673582212205d78e54efc479dfa7bae15de7ff3eb048eec444b54a95d15ac068984839f80c964736f6c634300081a0033\n}\n",
				"bytecode": {
					"linkReferences": {},
					"object": "6080604052348015600e575f80fd5b50610aed8061001c5f395ff3fe608060405234801561000f575f80fd5b506004361061004a575f3560e01c80631103e2691461004e5780633a7d22bc1461007e57806375789f01146100ae5780638b3c8a65146100ca575b5f80fd5b610068600480360381019061006391906104a7565b6100fa565b60405161007591906104fd565b60405180910390f35b61009860048036038101906100939190610549565b610149565b6040516100a591906105d4565b60405180910390f35b6100c860048036038101906100c391906106a4565b61023a565b005b6100e460048036038101906100df9190610549565b61026e565b6040516100f191906105d4565b60405180910390f35b5f805f90505f5b835181101561013f5783818151811061011d5761011c6106eb565b5b6020026020010151826101309190610745565b91508080600101915050610101565b5080915050919050565b60605f805490508210610191576040517f08c379a0000000000000000000000000000000000000000000000000000000008152600401610188906107d0565b60405180910390fd5b5f82815481106101a4576101a36106eb565b5b905f5260205f200180546101b79061081b565b80601f01602080910402602001604051908101604052809291908181526020018280546101e39061081b565b801561022e5780601f106102055761010080835404028352916020019161022e565b820191905f5260205f20905b81548152906001019060200180831161021157829003601f168201915b50505050509050919050565b5f81908060018154018082558091505060019003905f5260205f20015f90919091909150908161026a91906109e8565b5050565b5f818154811061027c575f80fd5b905f5260205f20015f9150905080546102949061081b565b80601f01602080910402602001604051908101604052809291908181526020018280546102c09061081b565b801561030b5780601f106102e25761010080835404028352916020019161030b565b820191905f5260205f20905b8154815290600101906020018083116102ee57829003601f168201915b505050505081565b5f604051905090565b5f80fd5b5f80fd5b5f80fd5b5f601f19601f8301169050919050565b7f4e487b71000000000000000000000000000000000000000000000000000000005f52604160045260245ffd5b61036e82610328565b810181811067ffffffffffffffff8211171561038d5761038c610338565b5b80604052505050565b5f61039f610313565b90506103ab8282610365565b919050565b5f67ffffffffffffffff8211156103ca576103c9610338565b5b602082029050602081019050919050565b5f80fd5b5f819050919050565b6103f1816103df565b81146103fb575f80fd5b50565b5f8135905061040c816103e8565b92915050565b5f61042461041f846103b0565b610396565b90508083825260208201905060208402830185811115610447576104466103db565b5b835b81811015610470578061045c88826103fe565b845260208401935050602081019050610449565b5050509392505050565b5f82601f83011261048e5761048d610324565b5b813561049e848260208601610412565b91505092915050565b5f602082840312156104bc576104bb61031c565b5b5f82013567ffffffffffffffff8111156104d9576104d8610320565b5b6104e58482850161047a565b91505092915050565b6104f7816103df565b82525050565b5f6020820190506105105f8301846104ee565b92915050565b5f819050919050565b61052881610516565b8114610532575f80fd5b50565b5f813590506105438161051f565b92915050565b5f6020828403121561055e5761055d61031c565b5b5f61056b84828501610535565b91505092915050565b5f81519050919050565b5f82825260208201905092915050565b8281835e5f83830152505050565b5f6105a682610574565b6105b0818561057e565b93506105c081856020860161058e565b6105c981610328565b840191505092915050565b5f6020820190508181035f8301526105ec818461059c565b905092915050565b5f80fd5b5f67ffffffffffffffff82111561061257610611610338565b5b61061b82610328565b9050602081019050919050565b828183375f83830152505050565b5f610648610643846105f8565b610396565b905082815260208101848484011115610664576106636105f4565b5b61066f848285610628565b509392505050565b5f82601f83011261068b5761068a610324565b5b813561069b848260208601610636565b91505092915050565b5f602082840312156106b9576106b861031c565b5b5f82013567ffffffffffffffff8111156106d6576106d5610320565b5b6106e284828501610677565b91505092915050565b7f4e487b71000000000000000000000000000000000000000000000000000000005f52603260045260245ffd5b7f4e487b71000000000000000000000000000000000000000000000000000000005f52601160045260245ffd5b5f61074f826103df565b915061075a836103df565b92508282019050828112155f8312168382125f8412151617156107805761077f610718565b5b92915050565b7f496e646578206f7574206f6620626f756e6473000000000000000000000000005f82015250565b5f6107ba60138361057e565b91506107c582610786565b602082019050919050565b5f6020820190508181035f8301526107e7816107ae565b9050919050565b7f4e487b71000000000000000000000000000000000000000000000000000000005f52602260045260245ffd5b5f600282049050600182168061083257607f821691505b602082108103610845576108446107ee565b5b50919050565b5f819050815f5260205f209050919050565b5f6020601f8301049050919050565b5f82821b905092915050565b5f600883026108a77fffffffffffffffffffffffffffffffffffffffffffffffffffffffffffffffff8261086c565b6108b1868361086c565b95508019841693508086168417925050509392505050565b5f819050919050565b5f6108ec6108e76108e284610516565b6108c9565b610516565b9050919050565b5f819050919050565b610905836108d2565b610919610911826108f3565b848454610878565b825550505050565b5f90565b61092d610921565b6109388184846108fc565b505050565b5b8181101561095b576109505f82610925565b60018101905061093e565b5050565b601f8211156109a0576109718161084b565b61097a8461085d565b81016020851015610989578190505b61099d6109958561085d565b83018261093d565b50505b505050565b5f82821c905092915050565b5f6109c05f19846008026109a5565b1980831691505092915050565b5f6109d883836109b1565b9150826002028217905092915050565b6109f182610574565b67ffffffffffffffff811115610a0a57610a09610338565b5b610a14825461081b565b610a1f82828561095f565b5f60209050601f831160018114610a50575f8415610a3e578287015190505b610a4885826109cd565b865550610aaf565b601f198416610a5e8661084b565b5f5b82811015610a8557848901518255600182019150602085019450602081019050610a60565b86831015610aa25784890151610a9e601f8916826109b1565b8355505b6001600288020188555050505b50505050505056fea26469706673582212205d78e54efc479dfa7bae15de7ff3eb048eec444b54a95d15ac068984839f80c964736f6c634300081a0033",
					"opcodes": "PUSH1 0x80 PUSH1 0x40 MSTORE CALLVALUE DUP1 ISZERO PUSH1 0xE JUMPI PUSH0 DUP1 REVERT JUMPDEST POP PUSH2 0xAED DUP1 PUSH2 0x1C PUSH0 CODECOPY PUSH0 RETURN INVALID PUSH1 0x80 PUSH1 0x40 MSTORE CALLVALUE DUP1 ISZERO PUSH2 0xF JUMPI PUSH0 DUP1 REVERT JUMPDEST POP PUSH1 0x4 CALLDATASIZE LT PUSH2 0x4A JUMPI PUSH0 CALLDATALOAD PUSH1 0xE0 SHR DUP1 PUSH4 0x1103E269 EQ PUSH2 0x4E JUMPI DUP1 PUSH4 0x3A7D22BC EQ PUSH2 0x7E JUMPI DUP1 PUSH4 0x75789F01 EQ PUSH2 0xAE JUMPI DUP1 PUSH4 0x8B3C8A65 EQ PUSH2 0xCA JUMPI JUMPDEST PUSH0 DUP1 REVERT JUMPDEST PUSH2 0x68 PUSH1 0x4 DUP1 CALLDATASIZE SUB DUP2 ADD SWAP1 PUSH2 0x63 SWAP2 SWAP1 PUSH2 0x4A7 JUMP JUMPDEST PUSH2 0xFA JUMP JUMPDEST PUSH1 0x40 MLOAD PUSH2 0x75 SWAP2 SWAP1 PUSH2 0x4FD JUMP JUMPDEST PUSH1 0x40 MLOAD DUP1 SWAP2 SUB SWAP1 RETURN JUMPDEST PUSH2 0x98 PUSH1 0x4 DUP1 CALLDATASIZE SUB DUP2 ADD SWAP1 PUSH2 0x93 SWAP2 SWAP1 PUSH2 0x549 JUMP JUMPDEST PUSH2 0x149 JUMP JUMPDEST PUSH1 0x40 MLOAD PUSH2 0xA5 SWAP2 SWAP1 PUSH2 0x5D4 JUMP JUMPDEST PUSH1 0x40 MLOAD DUP1 SWAP2 SUB SWAP1 RETURN JUMPDEST PUSH2 0xC8 PUSH1 0x4 DUP1 CALLDATASIZE SUB DUP2 ADD SWAP1 PUSH2 0xC3 SWAP2 SWAP1 PUSH2 0x6A4 JUMP JUMPDEST PUSH2 0x23A JUMP JUMPDEST STOP JUMPDEST PUSH2 0xE4 PUSH1 0x4 DUP1 CALLDATASIZE SUB DUP2 ADD SWAP1 PUSH2 0xDF SWAP2 SWAP1 PUSH2 0x549 JUMP JUMPDEST PUSH2 0x26E JUMP JUMPDEST PUSH1 0x40 MLOAD PUSH2 0xF1 SWAP2 SWAP1 PUSH2 0x5D4 JUMP JUMPDEST PUSH1 0x40 MLOAD DUP1 SWAP2 SUB SWAP1 RETURN JUMPDEST PUSH0 DUP1 PUSH0 SWAP1 POP PUSH0 JUMPDEST DUP4 MLOAD DUP2 LT ISZERO PUSH2 0x13F JUMPI DUP4 DUP2 DUP2 MLOAD DUP2 LT PUSH2 0x11D JUMPI PUSH2 0x11C PUSH2 0x6EB JUMP JUMPDEST JUMPDEST PUSH1 0x20 MUL PUSH1 0x20 ADD ADD MLOAD DUP3 PUSH2 0x130 SWAP2 SWAP1 PUSH2 0x745 JUMP JUMPDEST SWAP2 POP DUP1 DUP1 PUSH1 0x1 ADD SWAP2 POP POP PUSH2 0x101 JUMP JUMPDEST POP DUP1 SWAP2 POP POP SWAP2 SWAP1 POP JUMP JUMPDEST PUSH1 0x60 PUSH0 DUP1 SLOAD SWAP1 POP DUP3 LT PUSH2 0x191 JUMPI PUSH1 0x40 MLOAD PUSH32 0x8C379A000000000000000000000000000000000000000000000000000000000 DUP2 MSTORE PUSH1 0x4 ADD PUSH2 0x188 SWAP1 PUSH2 0x7D0 JUMP JUMPDEST PUSH1 0x40 MLOAD DUP1 SWAP2 SUB SWAP1 REVERT JUMPDEST PUSH0 DUP3 DUP2 SLOAD DUP2 LT PUSH2 0x1A4 JUMPI PUSH2 0x1A3 PUSH2 0x6EB JUMP JUMPDEST JUMPDEST SWAP1 PUSH0 MSTORE PUSH1 0x20 PUSH0 KECCAK256 ADD DUP1 SLOAD PUSH2 0x1B7 SWAP1 PUSH2 0x81B JUMP JUMPDEST DUP1 PUSH1 0x1F ADD PUSH1 0x20 DUP1 SWAP2 DIV MUL PUSH1 0x20 ADD PUSH1 0x40 MLOAD SWAP1 DUP2 ADD PUSH1 0x40 MSTORE DUP1 SWAP3 SWAP2 SWAP1 DUP2 DUP2 MSTORE PUSH1 0x20 ADD DUP3 DUP1 SLOAD PUSH2 0x1E3 SWAP1 PUSH2 0x81B JUMP JUMPDEST DUP1 ISZERO PUSH2 0x22E JUMPI DUP1 PUSH1 0x1F LT PUSH2 0x205 JUMPI PUSH2 0x100 DUP1 DUP4 SLOAD DIV MUL DUP4 MSTORE SWAP2 PUSH1 0x20 ADD SWAP2 PUSH2 0x22E JUMP JUMPDEST DUP3 ADD SWAP2 SWAP1 PUSH0 MSTORE PUSH1 0x20 PUSH0 KECCAK256 SWAP1 JUMPDEST DUP2 SLOAD DUP2 MSTORE SWAP1 PUSH1 0x1 ADD SWAP1 PUSH1 0x20 ADD DUP1 DUP4 GT PUSH2 0x211 JUMPI DUP3 SWAP1 SUB PUSH1 0x1F AND DUP3 ADD SWAP2 JUMPDEST POP POP POP POP POP SWAP1 POP SWAP2 SWAP1 POP JUMP JUMPDEST PUSH0 DUP2 SWAP1 DUP1 PUSH1 0x1 DUP2 SLOAD ADD DUP1 DUP3 SSTORE DUP1 SWAP2 POP POP PUSH1 0x1 SWAP1 SUB SWAP1 PUSH0 MSTORE PUSH1 0x20 PUSH0 KECCAK256 ADD PUSH0 SWAP1 SWAP2 SWAP1 SWAP2 SWAP1 SWAP2 POP SWAP1 DUP2 PUSH2 0x26A SWAP2 SWAP1 PUSH2 0x9E8 JUMP JUMPDEST POP POP JUMP JUMPDEST PUSH0 DUP2 DUP2 SLOAD DUP2 LT PUSH2 0x27C JUMPI PUSH0 DUP1 REVERT JUMPDEST SWAP1 PUSH0 MSTORE PUSH1 0x20 PUSH0 KECCAK256 ADD PUSH0 SWAP2 POP SWAP1 POP DUP1 SLOAD PUSH2 0x294 SWAP1 PUSH2 0x81B JUMP JUMPDEST DUP1 PUSH1 0x1F ADD PUSH1 0x20 DUP1 SWAP2 DIV MUL PUSH1 0x20 ADD PUSH1 0x40 MLOAD SWAP1 DUP2 ADD PUSH1 0x40 MSTORE DUP1 SWAP3 SWAP2 SWAP1 DUP2 DUP2 MSTORE PUSH1 0x20 ADD DUP3 DUP1 SLOAD PUSH2 0x2C0 SWAP1 PUSH2 0x81B JUMP JUMPDEST DUP1 ISZERO PUSH2 0x30B JUMPI DUP1 PUSH1 0x1F LT PUSH2 0x2E2 JUMPI PUSH2 0x100 DUP1 DUP4 SLOAD DIV MUL DUP4 MSTORE SWAP2 PUSH1 0x20 ADD SWAP2 PUSH2 0x30B JUMP JUMPDEST DUP3 ADD SWAP2 SWAP1 PUSH0 MSTORE PUSH1 0x20 PUSH0 KECCAK256 SWAP1 JUMPDEST DUP2 SLOAD DUP2 MSTORE SWAP1 PUSH1 0x1 ADD SWAP1 PUSH1 0x20 ADD DUP1 DUP4 GT PUSH2 0x2EE JUMPI DUP3 SWAP1 SUB PUSH1 0x1F AND DUP3 ADD SWAP2 JUMPDEST POP POP POP POP POP DUP2 JUMP JUMPDEST PUSH0 PUSH1 0x40 MLOAD SWAP1 POP SWAP1 JUMP JUMPDEST PUSH0 DUP1 REVERT JUMPDEST PUSH0 DUP1 REVERT JUMPDEST PUSH0 DUP1 REVERT JUMPDEST PUSH0 PUSH1 0x1F NOT PUSH1 0x1F DUP4 ADD AND SWAP1 POP SWAP2 SWAP1 POP JUMP JUMPDEST PUSH32 0x4E487B7100000000000000000000000000000000000000000000000000000000 PUSH0 MSTORE PUSH1 0x41 PUSH1 0x4 MSTORE PUSH1 0x24 PUSH0 REVERT JUMPDEST PUSH2 0x36E DUP3 PUSH2 0x328 JUMP JUMPDEST DUP2 ADD DUP2 DUP2 LT PUSH8 0xFFFFFFFFFFFFFFFF DUP3 GT OR ISZERO PUSH2 0x38D JUMPI PUSH2 0x38C PUSH2 0x338 JUMP JUMPDEST JUMPDEST DUP1 PUSH1 0x40 MSTORE POP POP POP JUMP JUMPDEST PUSH0 PUSH2 0x39F PUSH2 0x313 JUMP JUMPDEST SWAP1 POP PUSH2 0x3AB DUP3 DUP3 PUSH2 0x365 JUMP JUMPDEST SWAP2 SWAP1 POP JUMP JUMPDEST PUSH0 PUSH8 0xFFFFFFFFFFFFFFFF DUP3 GT ISZERO PUSH2 0x3CA JUMPI PUSH2 0x3C9 PUSH2 0x338 JUMP JUMPDEST JUMPDEST PUSH1 0x20 DUP3 MUL SWAP1 POP PUSH1 0x20 DUP2 ADD SWAP1 POP SWAP2 SWAP1 POP JUMP JUMPDEST PUSH0 DUP1 REVERT JUMPDEST PUSH0 DUP2 SWAP1 POP SWAP2 SWAP1 POP JUMP JUMPDEST PUSH2 0x3F1 DUP2 PUSH2 0x3DF JUMP JUMPDEST DUP2 EQ PUSH2 0x3FB JUMPI PUSH0 DUP1 REVERT JUMPDEST POP JUMP JUMPDEST PUSH0 DUP2 CALLDATALOAD SWAP1 POP PUSH2 0x40C DUP2 PUSH2 0x3E8 JUMP JUMPDEST SWAP3 SWAP2 POP POP JUMP JUMPDEST PUSH0 PUSH2 0x424 PUSH2 0x41F DUP5 PUSH2 0x3B0 JUMP JUMPDEST PUSH2 0x396 JUMP JUMPDEST SWAP1 POP DUP1 DUP4 DUP3 MSTORE PUSH1 0x20 DUP3 ADD SWAP1 POP PUSH1 0x20 DUP5 MUL DUP4 ADD DUP6 DUP2 GT ISZERO PUSH2 0x447 JUMPI PUSH2 0x446 PUSH2 0x3DB JUMP JUMPDEST JUMPDEST DUP4 JUMPDEST DUP2 DUP2 LT ISZERO PUSH2 0x470 JUMPI DUP1 PUSH2 0x45C DUP9 DUP3 PUSH2 0x3FE JUMP JUMPDEST DUP5 MSTORE PUSH1 0x20 DUP5 ADD SWAP4 POP POP PUSH1 0x20 DUP2 ADD SWAP1 POP PUSH2 0x449 JUMP JUMPDEST POP POP POP SWAP4 SWAP3 POP POP POP JUMP JUMPDEST PUSH0 DUP3 PUSH1 0x1F DUP4 ADD SLT PUSH2 0x48E JUMPI PUSH2 0x48D PUSH2 0x324 JUMP JUMPDEST JUMPDEST DUP2 CALLDATALOAD PUSH2 0x49E DUP5 DUP3 PUSH1 0x20 DUP7 ADD PUSH2 0x412 JUMP JUMPDEST SWAP2 POP POP SWAP3 SWAP2 POP POP JUMP JUMPDEST PUSH0 PUSH1 0x20 DUP3 DUP5 SUB SLT ISZERO PUSH2 0x4BC JUMPI PUSH2 0x4BB PUSH2 0x31C JUMP JUMPDEST JUMPDEST PUSH0 DUP3 ADD CALLDATALOAD PUSH8 0xFFFFFFFFFFFFFFFF DUP2 GT ISZERO PUSH2 0x4D9 JUMPI PUSH2 0x4D8 PUSH2 0x320 JUMP JUMPDEST JUMPDEST PUSH2 0x4E5 DUP5 DUP3 DUP6 ADD PUSH2 0x47A JUMP JUMPDEST SWAP2 POP POP SWAP3 SWAP2 POP POP JUMP JUMPDEST PUSH2 0x4F7 DUP2 PUSH2 0x3DF JUMP JUMPDEST DUP3 MSTORE POP POP JUMP JUMPDEST PUSH0 PUSH1 0x20 DUP3 ADD SWAP1 POP PUSH2 0x510 PUSH0 DUP4 ADD DUP5 PUSH2 0x4EE JUMP JUMPDEST SWAP3 SWAP2 POP POP JUMP JUMPDEST PUSH0 DUP2 SWAP1 POP SWAP2 SWAP1 POP JUMP JUMPDEST PUSH2 0x528 DUP2 PUSH2 0x516 JUMP JUMPDEST DUP2 EQ PUSH2 0x532 JUMPI PUSH0 DUP1 REVERT JUMPDEST POP JUMP JUMPDEST PUSH0 DUP2 CALLDATALOAD SWAP1 POP PUSH2 0x543 DUP2 PUSH2 0x51F JUMP JUMPDEST SWAP3 SWAP2 POP POP JUMP JUMPDEST PUSH0 PUSH1 0x20 DUP3 DUP5 SUB SLT ISZERO PUSH2 0x55E JUMPI PUSH2 0x55D PUSH2 0x31C JUMP JUMPDEST JUMPDEST PUSH0 PUSH2 0x56B DUP5 DUP3 DUP6 ADD PUSH2 0x535 JUMP JUMPDEST SWAP2 POP POP SWAP3 SWAP2 POP POP JUMP JUMPDEST PUSH0 DUP2 MLOAD SWAP1 POP SWAP2 SWAP1 POP JUMP JUMPDEST PUSH0 DUP3 DUP3 MSTORE PUSH1 0x20 DUP3 ADD SWAP1 POP SWAP3 SWAP2 POP POP JUMP JUMPDEST DUP3 DUP2 DUP4 MCOPY PUSH0 DUP4 DUP4 ADD MSTORE POP POP POP JUMP JUMPDEST PUSH0 PUSH2 0x5A6 DUP3 PUSH2 0x574 JUMP JUMPDEST PUSH2 0x5B0 DUP2 DUP6 PUSH2 0x57E JUMP JUMPDEST SWAP4 POP PUSH2 0x5C0 DUP2 DUP6 PUSH1 0x20 DUP7 ADD PUSH2 0x58E JUMP JUMPDEST PUSH2 0x5C9 DUP2 PUSH2 0x328 JUMP JUMPDEST DUP5 ADD SWAP2 POP POP SWAP3 SWAP2 POP POP JUMP JUMPDEST PUSH0 PUSH1 0x20 DUP3 ADD SWAP1 POP DUP2 DUP2 SUB PUSH0 DUP4 ADD MSTORE PUSH2 0x5EC DUP2 DUP5 PUSH2 0x59C JUMP JUMPDEST SWAP1 POP SWAP3 SWAP2 POP POP JUMP JUMPDEST PUSH0 DUP1 REVERT JUMPDEST PUSH0 PUSH8 0xFFFFFFFFFFFFFFFF DUP3 GT ISZERO PUSH2 0x612 JUMPI PUSH2 0x611 PUSH2 0x338 JUMP JUMPDEST JUMPDEST PUSH2 0x61B DUP3 PUSH2 0x328 JUMP JUMPDEST SWAP1 POP PUSH1 0x20 DUP2 ADD SWAP1 POP SWAP2 SWAP1 POP JUMP JUMPDEST DUP3 DUP2 DUP4 CALLDATACOPY PUSH0 DUP4 DUP4 ADD MSTORE POP POP POP JUMP JUMPDEST PUSH0 PUSH2 0x648 PUSH2 0x643 DUP5 PUSH2 0x5F8 JUMP JUMPDEST PUSH2 0x396 JUMP JUMPDEST SWAP1 POP DUP3 DUP2 MSTORE PUSH1 0x20 DUP2 ADD DUP5 DUP5 DUP5 ADD GT ISZERO PUSH2 0x664 JUMPI PUSH2 0x663 PUSH2 0x5F4 JUMP JUMPDEST JUMPDEST PUSH2 0x66F DUP5 DUP3 DUP6 PUSH2 0x628 JUMP JUMPDEST POP SWAP4 SWAP3 POP POP POP JUMP JUMPDEST PUSH0 DUP3 PUSH1 0x1F DUP4 ADD SLT PUSH2 0x68B JUMPI PUSH2 0x68A PUSH2 0x324 JUMP JUMPDEST JUMPDEST DUP2 CALLDATALOAD PUSH2 0x69B DUP5 DUP3 PUSH1 0x20 DUP7 ADD PUSH2 0x636 JUMP JUMPDEST SWAP2 POP POP SWAP3 SWAP2 POP POP JUMP JUMPDEST PUSH0 PUSH1 0x20 DUP3 DUP5 SUB SLT ISZERO PUSH2 0x6B9 JUMPI PUSH2 0x6B8 PUSH2 0x31C JUMP JUMPDEST JUMPDEST PUSH0 DUP3 ADD CALLDATALOAD PUSH8 0xFFFFFFFFFFFFFFFF DUP2 GT ISZERO PUSH2 0x6D6 JUMPI PUSH2 0x6D5 PUSH2 0x320 JUMP JUMPDEST JUMPDEST PUSH2 0x6E2 DUP5 DUP3 DUP6 ADD PUSH2 0x677 JUMP JUMPDEST SWAP2 POP POP SWAP3 SWAP2 POP POP JUMP JUMPDEST PUSH32 0x4E487B7100000000000000000000000000000000000000000000000000000000 PUSH0 MSTORE PUSH1 0x32 PUSH1 0x4 MSTORE PUSH1 0x24 PUSH0 REVERT JUMPDEST PUSH32 0x4E487B7100000000000000000000000000000000000000000000000000000000 PUSH0 MSTORE PUSH1 0x11 PUSH1 0x4 MSTORE PUSH1 0x24 PUSH0 REVERT JUMPDEST PUSH0 PUSH2 0x74F DUP3 PUSH2 0x3DF JUMP JUMPDEST SWAP2 POP PUSH2 0x75A DUP4 PUSH2 0x3DF JUMP JUMPDEST SWAP3 POP DUP3 DUP3 ADD SWAP1 POP DUP3 DUP2 SLT ISZERO PUSH0 DUP4 SLT AND DUP4 DUP3 SLT PUSH0 DUP5 SLT ISZERO AND OR ISZERO PUSH2 0x780 JUMPI PUSH2 0x77F PUSH2 0x718 JUMP JUMPDEST JUMPDEST SWAP3 SWAP2 POP POP JUMP JUMPDEST PUSH32 0x496E646578206F7574206F6620626F756E647300000000000000000000000000 PUSH0 DUP3 ADD MSTORE POP JUMP JUMPDEST PUSH0 PUSH2 0x7BA PUSH1 0x13 DUP4 PUSH2 0x57E JUMP JUMPDEST SWAP2 POP PUSH2 0x7C5 DUP3 PUSH2 0x786 JUMP JUMPDEST PUSH1 0x20 DUP3 ADD SWAP1 POP SWAP2 SWAP1 POP JUMP JUMPDEST PUSH0 PUSH1 0x20 DUP3 ADD SWAP1 POP DUP2 DUP2 SUB PUSH0 DUP4 ADD MSTORE PUSH2 0x7E7 DUP2 PUSH2 0x7AE JUMP JUMPDEST SWAP1 POP SWAP2 SWAP1 POP JUMP JUMPDEST PUSH32 0x4E487B7100000000000000000000000000000000000000000000000000000000 PUSH0 MSTORE PUSH1 0x22 PUSH1 0x4 MSTORE PUSH1 0x24 PUSH0 REVERT JUMPDEST PUSH0 PUSH1 0x2 DUP3 DIV SWAP1 POP PUSH1 0x1 DUP3 AND DUP1 PUSH2 0x832 JUMPI PUSH1 0x7F DUP3 AND SWAP2 POP JUMPDEST PUSH1 0x20 DUP3 LT DUP2 SUB PUSH2 0x845 JUMPI PUSH2 0x844 PUSH2 0x7EE JUMP JUMPDEST JUMPDEST POP SWAP2 SWAP1 POP JUMP JUMPDEST PUSH0 DUP2 SWAP1 POP DUP2 PUSH0 MSTORE PUSH1 0x20 PUSH0 KECCAK256 SWAP1 POP SWAP2 SWAP1 POP JUMP JUMPDEST PUSH0 PUSH1 0x20 PUSH1 0x1F DUP4 ADD DIV SWAP1 POP SWAP2 SWAP1 POP JUMP JUMPDEST PUSH0 DUP3 DUP3 SHL SWAP1 POP SWAP3 SWAP2 POP POP JUMP JUMPDEST PUSH0 PUSH1 0x8 DUP4 MUL PUSH2 0x8A7 PUSH32 0xFFFFFFFFFFFFFFFFFFFFFFFFFFFFFFFFFFFFFFFFFFFFFFFFFFFFFFFFFFFFFFFF DUP3 PUSH2 0x86C JUMP JUMPDEST PUSH2 0x8B1 DUP7 DUP4 PUSH2 0x86C JUMP JUMPDEST SWAP6 POP DUP1 NOT DUP5 AND SWAP4 POP DUP1 DUP7 AND DUP5 OR SWAP3 POP POP POP SWAP4 SWAP3 POP POP POP JUMP JUMPDEST PUSH0 DUP2 SWAP1 POP SWAP2 SWAP1 POP JUMP JUMPDEST PUSH0 PUSH2 0x8EC PUSH2 0x8E7 PUSH2 0x8E2 DUP5 PUSH2 0x516 JUMP JUMPDEST PUSH2 0x8C9 JUMP JUMPDEST PUSH2 0x516 JUMP JUMPDEST SWAP1 POP SWAP2 SWAP1 POP JUMP JUMPDEST PUSH0 DUP2 SWAP1 POP SWAP2 SWAP1 POP JUMP JUMPDEST PUSH2 0x905 DUP4 PUSH2 0x8D2 JUMP JUMPDEST PUSH2 0x919 PUSH2 0x911 DUP3 PUSH2 0x8F3 JUMP JUMPDEST DUP5 DUP5 SLOAD PUSH2 0x878 JUMP JUMPDEST DUP3 SSTORE POP POP POP POP JUMP JUMPDEST PUSH0 SWAP1 JUMP JUMPDEST PUSH2 0x92D PUSH2 0x921 JUMP JUMPDEST PUSH2 0x938 DUP2 DUP5 DUP5 PUSH2 0x8FC JUMP JUMPDEST POP POP POP JUMP JUMPDEST JUMPDEST DUP2 DUP2 LT ISZERO PUSH2 0x95B JUMPI PUSH2 0x950 PUSH0 DUP3 PUSH2 0x925 JUMP JUMPDEST PUSH1 0x1 DUP2 ADD SWAP1 POP PUSH2 0x93E JUMP JUMPDEST POP POP JUMP JUMPDEST PUSH1 0x1F DUP3 GT ISZERO PUSH2 0x9A0 JUMPI PUSH2 0x971 DUP2 PUSH2 0x84B JUMP JUMPDEST PUSH2 0x97A DUP5 PUSH2 0x85D JUMP JUMPDEST DUP2 ADD PUSH1 0x20 DUP6 LT ISZERO PUSH2 0x989 JUMPI DUP2 SWAP1 POP JUMPDEST PUSH2 0x99D PUSH2 0x995 DUP6 PUSH2 0x85D JUMP JUMPDEST DUP4 ADD DUP3 PUSH2 0x93D JUMP JUMPDEST POP POP JUMPDEST POP POP POP JUMP JUMPDEST PUSH0 DUP3 DUP3 SHR SWAP1 POP SWAP3 SWAP2 POP POP JUMP JUMPDEST PUSH0 PUSH2 0x9C0 PUSH0 NOT DUP5 PUSH1 0x8 MUL PUSH2 0x9A5 JUMP JUMPDEST NOT DUP1 DUP4 AND SWAP2 POP POP SWAP3 SWAP2 POP POP JUMP JUMPDEST PUSH0 PUSH2 0x9D8 DUP4 DUP4 PUSH2 0x9B1 JUMP JUMPDEST SWAP2 POP DUP3 PUSH1 0x2 MUL DUP3 OR SWAP1 POP SWAP3 SWAP2 POP POP JUMP JUMPDEST PUSH2 0x9F1 DUP3 PUSH2 0x574 JUMP JUMPDEST PUSH8 0xFFFFFFFFFFFFFFFF DUP2 GT ISZERO PUSH2 0xA0A JUMPI PUSH2 0xA09 PUSH2 0x338 JUMP JUMPDEST JUMPDEST PUSH2 0xA14 DUP3 SLOAD PUSH2 0x81B JUMP JUMPDEST PUSH2 0xA1F DUP3 DUP3 DUP6 PUSH2 0x95F JUMP JUMPDEST PUSH0 PUSH1 0x20 SWAP1 POP PUSH1 0x1F DUP4 GT PUSH1 0x1 DUP2 EQ PUSH2 0xA50 JUMPI PUSH0 DUP5 ISZERO PUSH2 0xA3E JUMPI DUP3 DUP8 ADD MLOAD SWAP1 POP JUMPDEST PUSH2 0xA48 DUP6 DUP3 PUSH2 0x9CD JUMP JUMPDEST DUP7 SSTORE POP PUSH2 0xAAF JUMP JUMPDEST PUSH1 0x1F NOT DUP5 AND PUSH2 0xA5E DUP7 PUSH2 0x84B JUMP JUMPDEST PUSH0 JUMPDEST DUP3 DUP2 LT ISZERO PUSH2 0xA85 JUMPI DUP5 DUP10 ADD MLOAD DUP3 SSTORE PUSH1 0x1 DUP3 ADD SWAP2 POP PUSH1 0x20 DUP6 ADD SWAP5 POP PUSH1 0x20 DUP2 ADD SWAP1 POP PUSH2 0xA60 JUMP JUMPDEST DUP7 DUP4 LT ISZERO PUSH2 0xAA2 JUMPI DUP5 DUP10 ADD MLOAD PUSH2 0xA9E PUSH1 0x1F DUP10 AND DUP3 PUSH2 0x9B1 JUMP JUMPDEST DUP4 SSTORE POP JUMPDEST PUSH1 0x1 PUSH1 0x2 DUP9 MUL ADD DUP9 SSTORE POP POP POP JUMPDEST POP POP POP POP POP POP JUMP INVALID LOG2 PUSH5 0x6970667358 0x22 SLT KECCAK256 TSTORE PUSH25 0xE54EFC479DFA7BAE15DE7FF3EB048EEC444B54A95D15AC0689 DUP5 DUP4 SWAP16 DUP1 0xC9 PUSH5 0x736F6C6343 STOP ADDMOD BYTE STOP CALLER "
				},
				"gasEstimates": {
					"creation": {
						"codeDepositCost": "559400",
						"executionCost": "592",
						"totalCost": "559992"
					},
					"external": {
						"addElement(string)": "infinite",
						"getElement(uint256)": "infinite",
						"strings(uint256)": "infinite",
						"sumOfArray(int256[])": "infinite"
					}
				},
				"methodIdentifiers": {
					"addElement(string)": "75789f01",
					"getElement(uint256)": "3a7d22bc",
					"strings(uint256)": "8b3c8a65",
					"sumOfArray(int256[])": "1103e269"
				}
			},
			"storageLayout": {
				"storage": [
					{
						"astId": 38,
						"contract": "tests/Sum.sol:SumArray",
						"label": "strings",
						"offset": 0,
						"slot": "0",
						"type": "t_array(t_string_storage)dyn_storage"
					}
				],
				"types": {
					"t_array(t_string_storage)dyn_storage": {
						"base": "t_string_storage",
						"encoding": "dynamic_array",
						"label": "string[]",
						"numberOfBytes": "32"
					},
					"t_string_storage": {
						"encoding": "bytes",
						"label": "string",
						"numberOfBytes": "32"
					}
				}
			},
			"userdoc": {
				"kind": "user",
				"methods": {},
				"version": 1
			}
		}
	}
}